S01200006D635F72376661366D342E737265639C
S3150000000080B000200D1C0000351A0000091C0000FD
S31500000010091C0000091C0000091C0000091C000046
S31500000020000000000000000000000000091C0000A5
S31500000030091C000000000000091C0000091C00004B
S31500000040D10C000025050000B9050000850600005A
S31500000050F90600007116000049170000611800003B
S3150000006071160000491700006118000035080000ED
S31500000070B1070000C1080000FD08000035080000B7
S31500000080B1070000C1080000FD08000025050000BA
S31500000090B905000085060000F90600000000000012
S315000000A0000000000000000000000000000000004A
S315000000B0000000000000000000000000000000003A
S315000000C0000000000000000000000000000000002A
S315000000D0000000000000000000000000000000001A
S315000000E0000000000000000000000000000000000A
S315000000F000000000000000000000000000000000FA
S3150000010000000000000000000000000000000000E9
S3150000011000000000000000000000000000000000D9
S3150000012000000000000000000000000000000000C9
S3150000013000000000000000000000000000000000B9
S3150000014000000000000000000000000000000000A9
S315000001500000000000000000000000000000000099
S315000001600000000000000000000000000000000089
S315000001700000000000000000000000000000000079
S315000001800000000000000000000000000000000069
S315000001900000000000000000000000000000000059
S315000001A00000000000000000000000000000000049
S315000001B00000000000000000000000000000000039
S315000001C010B5054C237833B9044B13B1044800E04D
S315000001D000BF0123237010BDF00B002000000000BB
S315000001E0D059000008B5034B1BB10349034800E092
S315000001F000BF08BD00000000F40B0020D05900002D
S3150000020008B502F01BFA04F0A3FBBDE8084002F0B3
S31500000210CBBC00BF022800D070470249024800F05C
S315000002206FBC00BF28540000CC0C002008B5FFF7B7
S31500000230E7FF002008BD00BF70B5836A04460E467E
S3150000024084B0ABB193E8070001AD85E807006268AA
S31500000250184611781E71E26A19609A60636A9847B7
S31500000260A36A1BB195E8070083E8070004B070BDD8
S3150000027001AD2B46EBE700BF2DE9F04F0346D1E970
S3150000028006020026C3E90A62596058620A7883B0FA
S3150000029002F5800202F58D5212029A60487A002811
S315000002A000F0FF80B025B4464A7B0C6A91F80BE05B
S315000002B012038F7A42EA4E0122783943002A40F02F
S315000002C0ED8041F0800194F801E0E2784FEA4E16A5
S315000002D025EACE1546EA4E06A77894F804E021F002
S315000002E070012E4397404FEA0218BEF1000F06D068
S315000002F0BEF1020F14BF4FF0200E4FF0300E65799D
S315000003002DB1012D14BF4CF0010C4CF0030C257AD5
S31500000310A27905F00305009248EA850211430028F8
S3150000032040F0C480A27A94F8099094F80B8041F4C6
S3150000033060410192EFF3108A012585F310885A680F
S315000003405D481278D0F800B0C2F1130205FA02F245
S315000003502BEA0202026002688AF3108800204FF03E
S31500000360100A9A68F6B2FFB292F803B0D07016700F
S31500000370577082F802E0E6795C689672019E5FFA31
S315000003808CFC89B282F80C90567382F80E8082F843
S315000003900FC011820099494E82F8201082F821A0E0
S315000003A094F806C094F9022045494FEA0C1C454FC3
S315000003B001EB020E5FFA8CFC8EF800C346F8223081
S315000003C002F1C00E4FEA521C57F82E804FEA8C0CF1
S315000003D00CF1604C02F01F0205FA02F260F31048BD
S315000003E00CF5614C47F82E80CCF88021CCF8002023
S315000003F094F805C094F901204FEA0C1C01EB020E9B
S315000004005FFA8CFC8EF800C346F8223002F1C00E6B
S315000004104FEA521C57F82E804FEA8C0C0CF1604CB8
S3150000042002F01F0205FA02F260F310480CF5614C67
S3150000043047F82E80CCF88021CCF80020227A94F957
S3150000044004C0120101EB0C0ED2B28EF8002346F85E
S315000004502C300CF1C00E4FEA5C1257F82E80920039
S315000004600CF01F0C02F1604205FA0CF502F5614230
S3150000047060F3104847F82E80C2F880511560E27983
S3150000048094F90340104D1201D2B2214481F80023A1
S3150000049046F824301D6003B0BDE8F08F46F0B10584
S315000004A011E7B82508264FF0100CFDE64FF00008BE
S315000004B0C146CDF804803DE7044008408C0E00207C
S315000004C000E100E00060004049505352816890F816
S315000004D02000CA7A0B8A0128D2B29BB217D0022812
S315000004E00BD023F4706322F0400243F4407342F0D1
S315000004F020029BB2CA720B82704723F4706343F4E6
S31500000500706302F09F029BB2CA720B82704723F49B
S31500000510706343F4E06342F040029BB2CA720B82FE
S31500000520704700BF10B4EFF30383103B1F4A5BB262
S3150000053003F1C00152F821001D4C6FF3104042F840
S31500000540210054F82330D3E906218A4213D01869D2
S31500000550F8B193F82040012C1ED0022C21D09968C6
S31500000560496840F82210D96901328A429A6102D05C
S315000005705DF8044B704701225B680E4993F903301E
S315000005805DF8044B03F01F0082405B0941F823200D
S31500000590704798684068E7E7996809798154D9698E
S315000005A0E2E79C68A48820F81240DDE7006000407E
S315000005B08C0E002000E100E0F0B4EFF30383103B63
S315000005C02D495BB203F1C00251F822002B4C6FF3A8
S315000005D0104041F8220054F823305868026A12B1DC
S315000005E05578012D13D05A69DC6994420DD0D9682B
S315000005F0F9B193F8200001281ED0022837D051F80F
S3150000060022009968486001325A61F0BC7047DC6983
S315000006105A69661EB24213D001690029E5D090F9E5
S315000006200310174801F01F06B540490940F821504C
S31500000630DBE798684160E6E7885C99680871E2E75D
S3150000064090F9036006F1C007700951F827C08000D1
S3150000065000F1604006F01F0600F56140B5406FF3FB
S31500000660104C41F827C0C0F880510560BDE731F84D
S31500000670120099688880C6E7006000408C0E002052
S3150000068000E100E010B4EFF30383103B174A5BB2BE
S3150000069003F1C00152F82100154C6FF3104042F8E7
S315000006A0210054F823008268D278920706D5426862
S315000006B0527A012A02D05DF8044B704701210D4C95
S315000006C003F01F025B0901FA02F2203344F82320EB
S315000006D0BFF34F8FBFF36F8F82685DF8044B1378BB
S315000006E06FF386131370FFF7A7BD00BF00600040CD
S315000006F08C0E002000E100E070B5EFF303840021CA
S31500000700184B103C64B253F82460B3681A786FF340
S3150000071086121A70DA78D970D5B212070ED4EB07A2
S3150000072012D405F01405142D16D00F4BC03453F80F
S3150000073024206FF3104243F8242070BD0521304673
S31500000740FFF77AFDEB07ECD50421304605F01405DA
S31500000750FFF772FD142DE8D130460821FFF76CFD36
S31500000760E3E700BF8C0E002000600040F0B5846A0D
S3150000077005460F46944685B0BCB194E80F006E4618
S3150000078086E80F00EB6920461A7884F804C0EB6A05
S315000007902260C4E902736B6A9847AC6A1CB196E89A
S315000007A00F0084E80F0005B0F0BD6E463446E9E759
S315000007B030B4EFF30383103B5BB21C4A03F1C00174
S315000007C052F821001A4C6FF3104042F8210054F8F9
S315000007D02300C3691B691BB103691BB130BC704799
S315000007E0036963B930BC0021026A937803F07F0382
S315000007F043F0040393708022C160FFF7B7BF82788D
S3150000080002F003010229C16809D0046A0D78E57077
S3150000081002F003029B1A0A44C0E90323DDE70C88B1
S31500000820056A44F47E44EC81F2E700BF00600040B4
S315000008308C0E002010B582B0EFF30383103B1E4AE6
S315000008405BB203F1C00152F821001C4C6FF310405B
S3150000085042F8210054F82340A27802F00303022B49
S31500000860236A0CBF198A5979A3690CBFC1F3080121
S31500000870C9B2019133B92046042202B0BDE8104046
S31500000880FFF774BF02F0030201A9606904F08AF859
S31500000890D4E90521A37803F003031A44C91AC4E96D
S315000008A0052109B102B010BD2046012202B0BDE803
S315000008B01040FFF75BBF00BF006000408C0E0020B9
S315000008C038B5EFF303840B4B103C64B253F82400A5
S315000008D00222056A0021AB78C03403F07B03AB70BB
S315000008E0FFF744FF044B53F824206FF3104243F8FC
S315000008F0242038BD8C0E00200060004038B5EFF390
S315000009000384154B103C64B253F82400837803F03B
S315000009100303022B036A0CBF198A59791D790CBF90
S31500000920C1F30801C9B205F03802ED0604D51D7FF2
S31500000930ED0758BF42F040021D79C03405F0C705E7
S315000009401D71FFF713FF054B53F824206FF3104278
S3150000095043F8242038BD00BF8C0E00200060004004
S315000009600123C8B283404AB91A040B0A5B0103F19A
S31500000970804303F5002300209A6070479AB2F4E79B
S31500000980F8B500284CD000240B6840F20246043328
S31500000990254640F2034740F2044C03EBC0010FE04A
S315000009A0BA422FD153F8042C02F0B852B2F1807F2C
S315000009B014BF44F0020445F0020508338B4210D000
S315000009C01A88B242ECD153F8042C083302F0B8521C
S315000009D0B2F1807F14BF44F0010445F001058B425B
S315000009E0EED1E443E4B2012001F0C4F80E4A01203E
S315000009F092F8BB341D432C4082F8BB44BDE8F84056
S31500000A0001F088B86245D8D153F8042C02F0B852E8
S31500000A10B2F1807F0CBF45F0040544F00404CCE736
S31500000A200546FF24DFE700BF00E001400146F8B5B8
S31500000A30044631F8040BFFF7A3FFEFF310820123FE
S31500000A4083F31088DFF8B4C0DCF800301BB940200F
S31500000A502849CB70C870DCF800300133CCF8003080
S31500000A6082F3108827886FB36368013FBFB203F132
S31500000A700801214C01EBC70708E0D2B21B01134461
S31500000A808F4244F823000B461CD0083118689A8818
S31500000A9010F4803F4FEA1223EFD0130AD2B202EBD2
S31500000AA0031554F825E01B01134420F480366FF338
S31500000AB0104E8F4244F825E044F8256044F82300A0
S31500000AC00B46E2D1EFF31082012383F31088DCF8A2
S31500000AD0003023B1DCF80030013BCCF80030DCF804
S31500000AE000301BB980200349CB70C87082F3108890
S31500000AF0F8BD00BF000D084000080840880E002021
S31500000B0008B50346034A08461A60FFF78FFF002020
S31500000B1008BD00BF54524F50D0E9023200209A60FF
S31500000B20704700BFD0E9023200205A60704700BF0C
S31500000B30D0E902320020DA60704700BF002824DBCB
S31500000B4030B4012400F160430901104DC9B203F528
S31500000B50614383F800130E4945F8202000F1C002D6
S31500000B6051F8225043099B006FF3104503F160438F
S31500000B7000F01F0004FA00F041F8225003F561432B
S31500000B80C3F8800130BC1860704770478C0E002097
S31500000B90006000402DE9F8430D4601212A7C00261D
S31500000BA001FA02F3C3601B071CBF00230374364B14
S31500000BB008BF017469691344AA691B0204464560AB
S31500000BC08360C0E90516C261EF69EFF3108E01205C
S31500000BD080F310884FF000412C4B95F810C0DA686E
S31500000BE021FA0CFC22EA0C02DA60DB688EF310882C
S31500000BF04FF425484FF4AA0E4FF0030CA3686A6819
S31500000C00C3F80080DE62DE639E6495F80880013AD0
S31500000C104FEAC858C3F82C80D7E90698196159617C
S31500000C2099615E629E62C3F81C90C3F820809A6642
S31500000C305A669E63C3F8886097F8212097F820804B
S31500000C40E168520742EA4832C3F840E0D9605A6385
S31500000C50C3F830C018632246697C95F91200FFF785
S31500000C606DFF224697F8221097F92400FFF766FFDA
S31500000C7097F92500224697F82310FFF75FFF044BEC
S31500000C8030462360BDE8F8839016400004400840D3
S31500000C9054504700F0B5836904460F46164685B0A2
S31500000CA09BB193E8070001AD85E807001F71E26973
S31500000CB018469E601A6063699847A3691BB195E858
S31500000CC0070083E8070005B0F0BD01AD2B46EDE750
S31500000CD0F0B4EFF30383103B184A5BB203F1C00193
S31500000CE052F82100164C6FF3104042F8210054F8D8
S31500000CF0230044682478012C17D1D0E90267002527
S31500000D00B760B564F564356552F821705E09DFF8A1
S31500000D1034C003F01F0365F3104704FA03F306F12A
S31500000D20600542F821704CF82530436923B1F0BCC8
S31500000D3000221146FFF7AEBFF0BC704700600040CE
S31500000D408C0E002000E100E02DE9F047012100258E
S31500000D50394B80F83450394A83F816140446186A19
S31500000D601268C0F302611B6A02FA01F1344EC0F345
S31500000D700270C3F30263C1409A40B14222FA03F201
S31500000D8055D943F6B85E40F6D86C542744F25066FF
S31500000D902C4802F5742303F23F23A0FB032301F53D
S31500000DA0742202F23F22A0FB021227499B0C01FB90
S31500000DB003F926490EFB03FE01FB03F824490CFB4D
S31500000DC003FC07FB03F706FB03F601FB03F1DFF861
S31500000DD088A0920C02F5F052AAF8E4201D4A5B00A6
S31500000DE02846A2FB0959A2FB0E5EA2FB0C5CA2FBE5
S31500000DF00757A2FB0656A2FB0858A2FB0151A2FB0D
S31500000E0003324FEA9E0E4FEA9C0CBF084FEA990345
S31500000E10B6084FEA980589089208C4E902ECC4E9C5
S31500000E200573C4E90856E1612261BDE8F0874FF415
S31500000E30FB70BDE8F08700BF00E001409C0C00207D
S31500000E40FF083D0083DE1B4338AF040080DE0F0041
S31500000E50A0F70300ABAAAAAA00E07F400B782DE911
S31500000E60F04704464160002B59D0002701204FF07F
S31500000E70980A4A68CB68DFF8BCE0C4E90E27236409
S31500000E808EF818000A7C91F91130274EDFF8A8C0B9
S31500000E901201264D06EB0308D2B288F800234CF85F
S31500000EA0234003F1C0085A0955F82890920002F130
S31500000EB0604203F01F0302F5614200FA03F367F391
S31500000EC0104945F82890C2F8803113608EF814A0B6
S31500000ED08B7C91F913201B011644DBB286F8003394
S31500000EE002F1C0014CF82240530955F821609B00DD
S31500000EF002F01F0203F1604300FA02F203F56143B8
S31500000F0067F3104645F82160C3F880211A60204631
S31500000F10FFF71AFF08B9064B2360BDE8F087054ABC
S31500000F2013761375F3E700BF00E100E000600040B0
S31500000F304E45504F00E07F408C0E00204FF4964205
S31500000F4070B4037883B001927BB3012190F911202C
S31500000F50254C02F1C005530954F825609B0003F1A6
S31500000F60604302F01F0203F5614301FA02F26FF3D8
S31500000F70104644F82560C3F880211A6090F91320C2
S31500000F8002F1C000530954F820509B0002F01F02E2
S31500000F9003F1604301FA02F203F561436FF3104572
S31500000FA044F82050C3F880211A604AF680230F4A7D
S31500000FB0A2F88430B2F884309BB2802B08D10FE0BF
S31500000FC0019B013B0193B2F884309BB2802B07D082
S31500000FD0019B002BF4D14FF4FA7003B070BC70473C
S31500000FE0002003B070BC70470060004000E07F4006
S31500000FF070B490F90450224E83B0019105F1C001FE
S31500001000009256F821201F4C6FF3186246F82120F3
S3150000101056F82110C1F3080141F40041E28992B269
S315000010208A42FBD008222274019A32B3164A019CE6
S3150000103052F825104C60009919B152F82510009C01
S315000010408C6052F82510CA7802F0C002802A12D0AD
S3150000105002B9CB8118220B4B09491A7490F9043056
S315000010600020C03351F8232042F0807241F823203B
S3150000107003B070BC70478B81ECE7034ADBE700BF27
S315000010800060004000540040000000200620704729
S315000010900620704790F904300449C03351F82320E4
S315000010A0002042F0807241F8232070470060004023
S315000010B090F90430044AC03352F8231000206FF32D
S315000010C0186142F8231070470060004010B40024F5
S315000010D090F90420144B53F822200C60D3784C600E
S315000010E013F0C0030BD04FF48074D089802BC0B2AC
S315000010F08C60C8600DD000205DF8044B70474FF43B
S315000011008030D3895DF8044B9BB28860CB600020A9
S3150000111070474FF4803093895DF8044B9BB20860AA
S315000011204B600020704700BF0000002003460020EF
S3150000113070B493F90420074902F1C00451F8245011
S31500001140054E6FF3186541F8245046F822001860E2
S3150000115070BC704700600040000000200B4630B4B1
S31500001160DA781C4612F0C00F04D0DA89D2B242EA0D
S315000011700222DA81A278103312F0C00FF0D10825CE
S315000011801822054B054C1D7490F9000044F82010F8
S315000011901A7030BC704700BF0054004000000020A9
S315000011A038B590F90430114AC033054652F8230089
S315000011B00F4C6FF3186042F8230052F82320C2F355
S315000011C0080242F40042E3899BB29342FBD0281DF9
S315000011D0FFF7C4FF95F904300449C03351F82320C2
S315000011E0002042F0807241F8232038BD00600040A4
S315000011F0005400401C4AF8B5137806460C46A3B1C5
S31500001200636893F90030002B2CDB184A52F8235000
S315000012100DB10820F8BD304600F8043F2168FFF7FD
S315000012209DFF134B28463360F8BD01251570EFF37B
S31500001230108085F310880F4AD16921F48001D161AD
S31500001240D26980F31088094F194638464FF4C072A8
S3150000125003F0B5FB084B5F611D73636893F90030BB
S31500001260002BD2DA0B20F8BD4C0C00200000002029
S315000012700043544400E00140005400402DE9F0438F
S31500001280D1F800C0884681468DB0BCF1000F24D04D
S31500001290654614460FCD674601AE0FC60FCD0FC685
S315000012A095E8070086E807000FCC0FC70FCC0FC7DD
S315000012B094E8070085E807006046C847D8F800406C
S315000012C044B101AD0FCD0FC40FCD0FC495E8070093
S315000012D084E807000DB0BDE8F0839446ECE700BF54
S315000012E0437B30B4934256D002254468B4F8403864
S315000012F06FF38A23A4F84038B4F8403865F309231D
S31500001300A4F84038B4F8423803F4E063B3F5007F3C
S31500001310F8D102252B4684F8582842730573994262
S3150000132016D0052916D042680C02B2F840386FF381
S315000013308A23A2F84038B2F8403861F30923A2F8AC
S315000013404038B2F8423803F4E063A342F9D101739E
S3150000135030BC704702244268B2F840386FF38A23E3
S31500001360A2F84038B2F8403864F30923A2F84038AE
S31500001370B2F8423803F4E063B3F5007FF8D1B2F86F
S31500001380403843F48063A2F84038B2F842385B052F
S31500001390FBD50173DCE7037BC1E700BF2DE9F04F06
S315000013A00B6883B003F58023A8331B030E690F4631
S315000013B0804600914360EFF31085012181F3108888
S315000013C0A44A3B681468C3F1020301FA03F324EA52
S315000013D003031360136885F310880024FA68BB685A
S315000013E0D7F81090C0E908420760C36199F8003049
S315000013F022464376FFF774FF327D7868337BD2004E
S3150000140042EA430283684768D8F8041002F0FE02F5
S31500001410C56842F4E072013BA1F8402800687A1ED4
S315000014201B0298F8197043EA0273013D8A4A43EA9F
S315000014300533013802EA00423B431343C1F84438FE
S31500001440404622460221FFF74BFFD8F804004FF42E
S315000014500072214600F5007003F0B1FA8022D8F838
S3150000146004503769CDF804802346A2464FF00F0C8E
S31500001470A04685F850284FEA970E35E096F80CB04E
S31500001480BBF1000F00F0CE80BBF1020F00F0DB8055
S3150000149000598C7920F0604141EA847103F1200003
S315000014A00A4301016A504FF04001EA1882F82018F9
S315000014B09E4516D96FF06041D9F8042052F82320D2
S315000014C08A420CD2317B002940F0B880634901EA98
S315000014D0824203F5807145F8212048EA0C084FEA5C
S315000014E00C1C0133202B14D09F420CD9B068DC00B1
S315000014F000EBC3014A79002AC0D0012A04BFEA18CA
S3150000150082F820A8D4E7EA180133202B82F820A815
S31500001510EAD143460022DB43DDF804801146C5F8D4
S3150000152028344046FFF7DCFED8F80430B3F84028EC
S3150000153042F02002A3F84028B3F84028C2F3401036
S315000015409206F9D401254FF03E094FF0FF3BD8F83B
S315000015500010009A0C7D92F91520414FDFF80CC15E
S315000015602401404EE4B2B91881F8004302F1C00EDE
S315000015704CF8228056F82EA05109890060F3104AD3
S3150000158001F1604102F01F0246F82EA005FA02F2B0
S3150000159001F56141C1F880210A60009991F9162090
S315000015A0B91881F8004302F1C00E4CF8228056F8B3
S315000015B02EA05109890060F3104A01F1604102F042
S315000015C01F0246F82EA005FA02F201F56141C1F8A4
S315000015D080210A60009991F917E02349774487F83A
S315000015E000434FEA5E124CF82E800EF1C00456F806
S315000015F0247092000EF01F0E02F1604205FA0EF5FD
S3150000160002F5614260F3104746F82470C2F8805133
S31500001610156083F84C98C3F82CB4C8F8081003B0CA
S31500001620BDE8F08F025988790C4901EA824103F13D
S31500001630200241EA80711201A95034E703F5807156
S3150000164045F8212049E70A79002AEBD04FF00042FD
S315000016501EE700BF044008400000FF030000FC1F17
S3150000166000E100E0006000404E4143528C0E002035
S3150000167030B58DB0EFF30383103B304A5BB2C03315
S3150000168052F823106FF3104142F82310EFF303834F
S3150000169000252B4C103B5BB254F823402C22002132
S315000016A001A803F08CF9636893F84D2883F84D5828
S315000016B0D2B2ADF80820B3F84218C1F30010C9063B
S315000016C016D5022142F02002ADF8082093F85328DF
S315000016D083F8531893F85208D2B200F01F0083F82B
S315000016E05328034493F8202865F3820283F82028C0
S315000016F000252268636A116804900191E06901AAD5
S3150000170004F12001CDE90553FFF7B8FD6368B3F88E
S315000017104238DB0610D523681A69127D62B193F947
S315000017201530AB4208DB012203F01F0005495B09B7
S315000017308240403341F823200DB030BD00600040A8
S315000017408C0E002000E100E0F0B58DB0EFF30383CE
S31500001750103B404A5BB2C03352F823106FF310417E
S3150000176042F82310EFF3038300223B49103B5BB2A0
S3150000177051F82340656895F8533885F8532895F84D
S315000017805278DBB207F01F0707F1200285F85338BD
S315000017901301E958C1F380708DF82200D4F800C017
S315000017A0E858DCF810301B7B43EAD07303F00103E2
S315000017B08DF82030002B4AD1C1F38A41079105EB01
S315000017C002129188C1F3030301F00F0108298DF875
S315000017D0213039D908218DF8211000230AAA05EBFA
S315000017E00716F01890F8060201338B4202F8010B37
S315000017F0F7D344234FF48060DCF800203D4485F89D
S315000018002038656A07AB0192ADF8080001AAE069C5
S3150000181004F12001CDE905350497FFF72FFD636834
S31500001820B3F84238DB070DD5236893F91630002B41
S3150000183008DB012203F01F0008495B0982404033A0
S3150000184041F823200DB0F0BD0029C6D1D1E721F023
S315000018506041B3E7006000408C0E002000E100E02C
S31500001860F0B58DB0EFF30383103B244A5BB2C0336F
S3150000187052F823106FF3104142F82310EFF303835D
S31500001880012500264FF400601D4A103B5BB252F85A
S315000018902340636893F8531883F8535893F85228F3
S315000018A0C9B283F8531802F01F02216813440F6867
S315000018B083F8206883F82068636A0492ADF808000C
S315000018C004F12001E06901AA069301970596FFF746
S315000018D0D5FC6368B3F842389B070CD5236893F9A7
S315000018E01730B34207DB5A09064903F01F0340329B
S315000018F09D4041F822500DB0F0BD00BF0060004091
S315000019008C0E002000E100E0064B074993F8260004
S315000019101A6A51F82030C2F302620449D3400B60C0
S31500001920704700BF00E00140D40B00209C0C002053
S31500001930354BF0B401214AF203541A463348A0F855
S31500001940FE43A3F80411B2F804319BB2002BFAD17E
S3150000195001214FF4004409262D4DA2F800112D480F
S31500001960A9602A4A29602C4D92F8261045602B4D15
S315000019702B4FC0E902452B4D0760C0E90445146AA8
S3150000198050F82110C4F30264E140274C216082F82C
S31500001990133482F8A26092F8801419B182F8813467
S315000019A082F88034194B002543F20212194683F857
S315000019B032501A8591F83C301A07FBD50023134A9A
S315000019C081F82A3092F83C309B06FBD50327052385
S315000019D001254FF425460C4981F81C7182F8263002
S315000019E0124B136292F82630116A50F82330C1F375
S315000019F00261CB40236082F8305082F85250A2F840
S31500001A00FE63F0BC704700BF00C0014000E001402B
S31500001A1000700040D40B002000127A0000366E01E0
S31500001A20002D310100C2EB0B9C0C0020211201207D
S31500001A30704700BF70B500240A4B0B4EB3F84051F7
S31500001A40ADB225FA04F3DB07E0B203D556F824302D
S31500001A5003B198470134102CF3D1024BA3F830514F
S31500001A6070BD00BF00600040500C0020F0B50320A0
S31500001A7085B000F07FF86FF0FF054FF0FF311F4C87
S31500001A800023224601271E4804F1C0068564CDE9DD
S31500001A900111039132F8020F590960B104A800EB55
S31500001AA0810151F80C0C03F01F0507FA05F520EA31
S31500001AB0050041F80C0CB24203F10103EAD1019A88
S31500001AC0104B114911480A60C3F88022029A02603D
S31500001AD0C3F88422039A03208A60C3F8882200F0A0
S31500001AE019F800230A4803F1C00234F8021F013333
S31500001AF0602B40F82210F6D105B0F0BD3656000036
S31500001B000080004000E100E07080004074800040EA
S31500001B1000600040EFF31081012383F31088124B1D
S31500001B2033F8102092B22AB133F81020013A92B25B
S31500001B3023F8102033F810309BB293B90B4A10B437
S31500001B40B2F8FE330A4C9BB234F8100043F4254336
S31500001B5023EA0003A2F8FE3381F310885DF8044BF4
S31500001B60704781F310887047900C002000E0014018
S31500001B701C57000030B4EFF31081012383F3108863
S31500001B800D4A32F810309BB263B90C4C0C4DB4F8C8
S31500001B90FE3335F810509BB22B4343F425439BB2DA
S31500001BA0A4F8FE3332F8103001339BB222F810301D
S31500001BB081F3108830BC7047900C002000E0014093
S31500001BC01C5700000D4908B50A6803464AB103339D
S31500001BD00B4823F003031344834206D810460B60D8
S31500001BE008BD084802460860F1E702F0D5FE0C235E
S31500001BF04FF0FF320360104608BD00BF980C00206E
S31500001C0080AC002080AC002000BE704708B500F014
S31500001C1003F8FEF70BFBFEE74FF47001234B244A53
S31500001C2070B50020C3F888109A60FEF7F3FAFFF744
S31500001C307FFE0120FEF7EEFA1E4B83F30A881E484C
S31500001C401E4A0021121A02F0BAFE1D481D4A1E49FC
S31500001C50121A02F0A7FE1D4D1D4B5B1B002B07DD64
S31500001C6000249E1055F8043B01349847A642F9DC3F
S31500001C70FFF74AFE0320FFF77DFF00234FF6FF70B4
S31500001C80144903F108020133092B21F81200F8D197
S31500001C900320FFF73FFF0220FEF7BCFAFFF7E6FE40
S31500001CA0BDE870400020FFF7C3BE00BF00ED00E0B6
S31500001CB00000000080AC0020F00B00207CAC00206F
S31500001CC080010020D40B0020D4590000CC0B00204A
S31500001CD0D00B0020000D0840F8B5514E514FF36867
S31500001CE03A68986AD98C121A92B2914238BFDA844D
S31500001CF09A84DA6939680132DA61996200F050FC37
S31500001D00F5686C89F42C48D031D8002C6AD0EF2CB9
S31500001D1036D1EA683B68D2E900125B1A9A421BD8B0
S31500001D20002240F203414048FEF71AFE012240F22B
S31500001D3004413D48FEF714FE002240F205413A48B0
S31500001D40FEF70EFEF568EB6873B34FF47A70F42273
S31500001D503968C3E900106A8100F032FCF368288410
S31500001D601A8C598C914200D25A840120F8BDF92C64
S31500001D7006D1EA683B68D2E900125B1A9A42EBD8B0
S31500001D8000F01EFCF36828841A8C598C04209142BA
S31500001D9038BF5A8400225A81F8BDEA683B68D2E906
S31500001DA000125B1A9A42D7D8002240F203411E481D
S31500001DB0FEF7D6FD002240F204411B48FEF7D0FD97
S31500001DC0012240F205411848FEF7CAFDF568EB68A6
S31500001DD0002BD5D04FF47A70F9223968C3E9001088
S31500001DE06A81B9E7012240F203410F48FEF7B8FDC8
S31500001DF0224640F204410C48FEF7B2FD224640F26C
S31500001E0005410948FEF7ACFDF568EB68002B87D065
S31500001E104FF47A70EF223968C3E900106A819BE7B4
S31500001E200C100020A00C0020CC0C002030B50025A2
S31500001E300D4C83B0E5802560257100F089FC4FF4D8
S31500001E4096720A4BA0601B68C0E9003200F080FC65
S31500001E500749034600912A460649642000F056FECB
S31500001E60E06003B030BD00BF0C100020A00C0020C5
S31500001E7024570000D91C000070B5164C1649A368FB
S31500001E800A689D6AD88C521B92B290429A8438BFD7
S31500001E90DA84DA69096801329962DA6100F080FB56
S31500001EA0A5686E8946B9618831B1E36823B1606877
S31500001EB09847A56800B1668000F082FBA368288475
S31500001EC01A8C598C0420914238BF5A8400225A81B8
S31500001ED070BD00BF1C100020A00C002003784BB37F
S31500001EE010B5427B00F10D016F2A05D0427B6F2AA7
S31500001EF022D00023184610BD827B6E2AF6D1C27B03
S31500001F00002AF3D1012B3AD9437F00F11D04612B3E
S31500001F103ED0652B55D02046424902F058FD002898
S31500001F207DD02046404902F052FD0028E1D104222E
S31500001F30104639E0184670474A780131662AD8D1EA
S31500001F4011F8012F662AD4D14A78002AD1D1012B63
S31500001F5030D9437F00F11D04612B3ED0652B48D05C
S31500001F602046304902F033FD00284FD10822D243E3
S31500001F7001232E49086802400A60184610BD2B4905
S31500001F8001230A686FEA12426FEA02420A60B1E769
S31500001F90837F6C2BBFD1C37F6C2BBCD190F82030D4
S31500001FA0002BB8D14FF6FF70204901230A6802437F
S31500001FB00A609FE71D4901230A68120C12040A6091
S31500001FC098E76378722BA6D1C37F722BA3D190F8C2
S31500001FD02030002B9FD10120E6E7837F6C2BBFD1F9
S31500001FE0C37F6C2BBCD190F82030002BB8D1104A9F
S31500001FF0BEE76378722BB3D1C37F722BB0D190F852
S315000020002030002BACD16FF00102B1E72046064923
S3150000201002F0DDFC00287FF46CAF0422A7E708225B
S315000020201046C1E7385700003C5700005C0B002003
S315000020300000FFFFF0B500250E4C83B04FF4806121
S315000020400120256000F098FB07460B4E2B462A46DA
S315000020500A4900960920676000F058FD034630469D
S31500002060074A0849C4E9023503B0BDE8F04000F06C
S31500002070F1B800BF1C10002044570000791E000074
S3150000208048570000DD1E000030B40E4D622329467D
S315000020906F2201F8C03F104601230B4C05E0B3F553
S315000020A0806F08D0104614F9012F01339BB201F856
S315000020B0010F002AF3D16B80022301202B7030BC64
S315000020C0704700BF2C1000208657000038B5084B1B
S315000020D0D3F8B8305C684CB1054601E024682CB1F1
S315000020E02946606802F073FC0028F7D1204638BD07
S315000020F02C10002038B50378DBB9D0F8B020374C67
S31500002100D168638091F900207AB1012340F201453C
S3150000211004F1BF0001E0AB4207D000F8012F638055
S3150000212011F9012F0133002AF5D102230120237072
S3150000213038BD0D30FFF7CAFFE8B1C168002935D0B8
S315000021400023264C638091F90020002AEDD001235C
S3150000215040F2014504F1BF0001E0AB42E5D000F8D2
S31500002160012F638011F9012F0133002AF5D10223D3
S315000021700120237038BD194C682321466C2201F8D2
S31500002180C03F65200123164D05E0B3F5806F08D0EA
S31500002190104615F9012F01339BB201F8010F002AF1
S315000021A0F3D1638002230120237038BD0B4C6823D2
S315000021B021466C2201F8C03F65200123094D05E048
S315000021C0B3F5806FEDD0104615F9012F01339BB2A0
S315000021D001F8010F002AF3D1E3E700BF2C1000201D
S315000021E0CA5700009E5700000FB4002310B582B0F6
S315000021F004AA094C52F8041B04F1C0000192638042
S3150000220002F00EFC80B210B102236080237002B08F
S31500002210BDE8104004B070472C100020F0B583B024
S3150000222000F0A6FA44687CB10025094FD4E90113F1
S3150000223001355E1AE2683846CDE900162946FFF7F1
S31500002240D3FF2468002CF1D1012003B0F0BD00BFFC
S31500002250E457000070B50C461546064602F0C1FB71
S31500002260431E9BB20A2B13D884B11021012000F023
S3150000227083FA0022074B0146C0E90164C56002608B
S31500002280D3F8B80000F0FAF9012070BD204670BD01
S31500002290002070BD2C1000202DE9F041DFF8E8C0C9
S315000022A09CF8C010202925D00A2923D0BCF802802A
S315000022B0B8F1000F5AD00CF1C00E08F1FF34774682
S315000022C005460022A4B203E017F8011F202917D003
S315000022D093B25E1CA1B1A24205F8011FB3B245D06C
S315000022E00A2A02F10102EFD12448FFF77DFF002000
S315000022F0BDE8F0812248FFF777FF0020BDE8F081B6
S31500002300002102444345517030D29E44E41ABF3343
S315000023100D460E460F461EFA84F463440DE0A2B93C
S31500002320FEB100EB051211444F731A780135ADB2B8
S31500002330BAB100210E469C4213D013F8012F202A71
S31500002340EDD1002EEDD10021F5E700EB051601F1E8
S31500002350010C0E441FFA8CF10F29727308D801265E
S31500002360E9E7EDB205700120BDE8F0810025F9E747
S315000023700448FFF739FF0020BAE700BF3C580000C9
S315000023801C580000585800002C100020F8B5414C8D
S315000023904149D4F8BC300A689D6AD88C521B92B267
S315000023A090429A8438BFDA84DA6909680132996200
S315000023B0DA6100F0F5F8D4F8BC506E8936B92578A4
S315000023C0012D11D0022D16D0D4F8BC5000F0F8F82B
S315000023D0D4F8BC3028841A8C598C0420914238BF1A
S315000023E05A8400225A81F8BD2C482670FFF754FF04
S315000023F088B92578E6E76688294F3146D4F8C0348F
S31500002400274898470028DFD00023D4F8BC506380C3
S3150000241007F8C03CDAE72348FFF758FE0746F0B155
S315000024208368C4F8B4001D4898470028E1D1FA68CB
S31500002430608092F9003073B140F201401A4901E020
S31500002440854208D0AEB201F8013F668012F9013F1D
S315000024500135002BF4D10223114F2370CDE76522FD
S3150000246072230F4F84F8C0202E4618463A460F496D
S3150000247005E0B6F5806F08D0184611F9013F013620
S31500002480B6B202F8010F002BF3D102236680237047
S31500002490B3E700BF2C100020A00C00203010002055
S315000024A0EC10002031100020EB10002076580000C0
S315000024B0012270B50025134C82B0114610462570D6
S315000024C000F038F9064610492B462A4600910920A5
S315000024D00E49C4F8B86000F019FB03460C4A0D49D2
S315000024E00D48C4F8BC30FFF7B5FE0C4A0C490D4840
S315000024F0FFF7B0FE0C4A0D490D4802B0BDE870402A
S31500002500FFF7A8BE2C1000208C5800008D23000079
S3150000251094580000F5200000B8580000C05800008C
S3150000252089200000E8580000F05800001D22000035
S315000025300059000010B5074C07492046FEF72AFB54
S315000025402046FEF7EFFABDE8104004490448FEF7BE
S3150000255021BB00BFE00D0020305300007C5300007B
S31500002560000E0020037903B170470B4910B48A8826
S315000025700A4C0132206892B20130B2F57A7F2060AF
S3150000258003D25DF8044B8A8070470A685DF8044BF5
S3150000259001328B800A607047A40C0020A00C00203A
S315000025A010B5064C2046FEF7C3FA0022A368204663
S315000025B0BDE810409A64FEF7B5BA00BF000E0020D1
S315000025C0064810B583689C6CFEF7A6FA4FF6FF70B6
S315000025D0A04228BF204680B210BD00BF000E0020DA
S315000025E038B54FF4004101230F48104A0374C0E97F
S315000025F0021200F0F1F84FF000430D4A1B70013350
S315000026009342FBD14FF00144372503234FF000419D
S315000026104FF40022074825700374BDE83840C0E92E
S31500002620022100F0D9B800BFF014002004150020E4
S315000026300000088004950020FEE700BF00220A2162
S3150000264008B50B4BC3E90022C3E90222C3E9042201
S31500002650197100F011F800F0D3F800F0E7FA00F075
S315000026602DFAFFF725FFBDE80840FFF7E3BC00BFE2
S3150000267018950020704700BFFFF75CBF4388F0B590
S31500002680D0F804E001334380BEF1000F36D0447821
S315000026900578012C2CD0022D27D0042D25D000261C
S315000026A03746022D734694BFD1F804C0D1F808C04E
S315000026B008E0032C01D162450CD91A681E469742E0
S315000026C016D01346022D94BF5A689A68022CF0D190
S315000026D06245F2D39E450FD006B13160022D0B60E4
S315000026E002D94E6003B15960F0BD77468668D8E7D7
S315000026F0866833688160F0E74160EDE70378022B76
S3150000270008D80CBF0960C1F800E00123C0E9011137
S315000027104380F0BD042B0CBFC1E90011C1E900EEF6
S31500002720F3E700BF00234170C0E901330270438024
S31500002730704700BF38B50D460C21144600F01CF852
S3150000274028B10023C0E9013345700470438038BDC9
S3150000275010B50821012000F00FF800240349046099
S315000027608A894460531C8B8110BD00BF18950020D8
S3150000277000487047AC0C002011F003031CBF043165
S31500002780C91A134B70B45B680446184613B90CE0BB
S31500002790006850B1027CA242FAD1D0E90126551850
S315000027A0B542F5D2C1684560881800B9FEE7002237
S315000027B0084EC6E904224BB11146D3E901451B6810
S315000027C029442244002BF8D1C6E9041270BC704794
S315000027D0AC0C00201895002018B1C3680BB18368B3
S315000027E00BB90120704710B500240146C0E900442A
S315000027F00248FFF743FF204610BD00BFAC0C002087
S31500002800012208B511460348FFF78CFFBDE80840D2
S31500002810FFF7E6BEAC0C0020F8B50D460821FFF721
S31500002820ABFF164B0646DA790132DA7145B9012259
S31500002830057011461046FFF77DFF70603046F8BD03
S315000028400120757030701A89A9002A441A81FFF791
S3150000285093FF013DEDB2013507460024AD007060DF
S3150000286000E07768012211461046FFF763FF3851F2
S315000028700434AC42F5D13046F8BD00BF18950020AF
S31500002880436870B55C6806460D4614B906E02468D0
S3150000289024B12379AB42FAD1204670BD0C21012028
S315000028A0FFF76AFF01220023044611460360104623
S315000028B0FFF740FF0346257170682146A360FFF7C6
S315000028C0DDFE034A204613890133138170BD00BF24
S315000028D01895002038B5436805460C4613B905E03F
S315000028E01B681BB15A689442FAD138BD08210120F1
S315000028F0FFF742FF002301462846C1E90034FFF7EF
S31500002900BDFE024A53890133538138BD1895002014
S31500002910C8B138B51446AAB105785DB10A46417802
S3150000292091420FD94368214653F82200BDE838404A
S31500002930FFF7D0BFFFF7A4FF2146BDE83840806807
S31500002940FFF7C8BF38BD70470378012B0AD043682C
S31500002950586810B90AE0006848B103798B42FAD189
S315000029608068704743788B4202D8002070477047D2
S31500002970436853F82100704780B138B5FFF7E4FF8C
S3150000298050B1446815463CB1636813B12846984770
S3150000299030B92468002CF7D1002038BD00207047DC
S315000029A0012038BDD0E9023293421DBF0122827058
S315000029B058680020704700BF83782BB100238268D7
S315000029C01268437082608370704700BF427872B9A4
S315000029D010B4D0E902420346D2E90010A14204BF76
S315000029E001225A705DF8044B18BFD9607047002069
S315000029F0704700BF2DE9F04707460E4690461D4634
S31500002A00012EFDD910213846FFF7B6FE0023824677
S31500002A1046604370837025B308213846FFF7ACFE45
S31500002A2000230124994645600360CAE90200454433
S31500002A3008213846FFF7A0FE0134DAF80C20A4B2CC
S31500002A40A642C0E90095034610604544CAF80C004A
S31500002A50EED1DAF8082050461A60CAF80C20BDE814
S31500002A60F087384608FB06F1FFF786FE0546D3E7F2
S31500002A7038B5104C104923680A689D6AD88C521BD9
S31500002A8092B2904238BFDA849A84DA6909680132D0
S31500002A909962DA61FFF784FD2568FFF791FD2368E7
S31500002AA028841A8C598C0420914238BF5A840022FB
S31500002AB05A8138BD30950020A00C002030B5032285
S31500002AC083B002210120FFF735FE012104460A4B9F
S31500002AD0084603221C60FFF72DFE00230546074922
S31500002AE0074C00911A4618460649256000F00EF874
S31500002AF0054B186003B030BD349500200459000022
S31500002B0038950020712A0000309500202DE9F0420A
S31500002B100546894601202C211F461646FFF72CFE46
S31500002B200023092D0446C0E904960572C760438157
S31500002B301CD82B46124F03EB430307EB83072146B2
S31500002B40B868FFF79BFD7B68ABB100220D4906987C
S31500002B504B7825720133DBB24B706372A061C4E916
S31500002B6007222046C4E90922BDE8F082092213465D
S31500002B7015460272DEE7BB685B687B60E5E700BF6F
S31500002B80409500201895002038B5082104460120FC
S31500002B90FFF7F2FD0025034944604A880580531C6F
S31500002BA04B8038BD1895002070B51E4C002221467A
S31500002BB004F178008B685B682BB1C3E907225A627F
S31500002BC01B68002BF9D10C318842F3D1164D62688F
S31500002BD02C60144C2346264692B1D2E9043098471D
S31500002BE02B6818B15A6812685A6092B1A3420ED087
S31500002BF0A3682C605A680B4B62603446002AECD1FD
S31500002C009A6852685A601B685A682B60E4E75A68EB
S31500002C10E2E7A342ECD19A6852685A601B685A6888
S31500002C202B60D9E7409500203C9500202DE9F04126
S31500002C30104D0124A84600270F4E01210322C8F893
S31500002C4004700846FFF776FDA6FB0423DB0803EBBA
S31500002C508303A4EB430303EB4303013405EB830334
S31500002C600B2CC8F8080048F80C3BE6D1034B1D6056
S31500002C70BDE8F08140950020CDCCCCCC3C95002021
S31500002C8038B5164C1649E3680A689D6AD88C521BFB
S31500002C9092B290429A8438BFDA84DA6909680132BE
S31500002CA09962DA61FFF77CFCE5686B8943B9606875
S31500002CB0C36BDB6998476068C36BDB699847E56857
S31500002CC0FFF77EFCE36828841A8C598C0420914215
S31500002CD038BF5A8400225A8138BD00BFC4950020EF
S31500002CE0A00C0020F0B583B00E4617460446FFF749
S31500002CF02FFD184D18492A46034600910220174910
S31500002D00FFF704FF034600210120EB60FFF784FD77
S31500002D10A86000F0BDFA4FF4006301211A4601F0E5
S31500002D203FF84FF6FF729642034668600CD08686DF
S31500002D30C7863033621EE01C12F8011F904203F86A
S31500002D40011BF9D103B0F0BD0549064AC0E90C12D2
S31500002D5003B0F0BDC49500200C590000812C000082
S31500002D60C0A8001E70178813024B0A4601469868D1
S31500002D70FFF7CEBDD4950020002A60D0002B5ED090
S31500002D802DE9F0432F4C6568EC7A032C52D12F8A3B
S31500002D902E8C03F10A04F61BA4B2A64247DBD5F833
S31500002DA028C03C442C821CEB070440D04FF0EE0EAA
S31500002DB0154603F104085E1E1FFA88F8B6B24FEAFC
S31500002DC0182901360CF807E01644E07184F80590DE
S31500002DD084F8048084F801E084F802E084F803E0D3
S31500002DE0A171C2F108002A1815F8011B92B2B5426A
S31500002DF0A154F8D14FF6FD70002103F1080203F14A
S31500002E000905ADB292B28342A154615525440BD057
S31500002E10A21D9E1C12FA86F6621D12F8010F0144CD
S31500002E20C9B296422970F8D11846BDE8F083002051
S31500002E30BDE8F083002318462B82BDE8F08300200E
S31500002E40704700BFD4950020F0B4254D6A68568AB5
S31500002E50082E3ED99379506A7BB1431E02F13001A8
S31500002E60C71C13F8014FBB4201F8014BF9D1017998
S31500002E704379083003EB01236B800378FF2B23D1C2
S31500002E804378FF2B20D18378FF2B1DD1C378FF2BEE
S31500002E901AD18488A31C9BB20533B34219DA012CDC
S31500002EA000F106071AD039460023023CA6B2F51DEA
S31500002EB0054411F8014B2344A942DBB2F9D101368E
S31500002EC037443978994207D0002318465382F0BC1C
S31500002ED070470020F0BC70470430F8E70023F0E7A5
S31500002EE0D495002070B51B4C1B49E3680A689D6A9F
S31500002EF0D88C521B92B290429A8438BFDA84DA692F
S31500002F00096801329962DA61FFF74AFBE5686E8962
S31500002F108EB96068C36BDB699847FFF795FF024679
S31500002F20B0B1C178A068FFF727FD60684682C36B21
S31500002F30DB699847E568FFF743FBE36828841A8C4A
S31500002F40598C0420914238BF5A8400225A8170BDA0
S31500002F506068ECE7D4950020A00C002010B582B084
S31500002F60FFF7F6FB104C1149224603460091092053
S31500002F700F49FFF7CBFD034600210120E360FFF771
S31500002F804BFCA06000F084F94FF4006302211A465E
S31500002F9000F006FF01230749074A6060C0E90C12EA
S31500002FA0837102B010BD00BFD495002014590000F3
S31500002FB0E52E0000C0A80064F04EF14E00220F215D
S31500002FC00148FDF7CDBC00BFCC0C002001220F212B
S31500002FD00148FDF7C5BC00BFCC0C00200279034BAD
S31500002FE0012A0CBF012202221A607047E4950020D4
S31500002FF010B5002240F2037104461E48FDF7B0FCEE
S315000030000120FFF737FB1C4B9B68DA789206FCD54C
S31500003010C4F307421A71DA78D209FCD01A79DA7841
S315000030209006FCD5C4F307221A71DA78D209FCD0CF
S315000030301A79DA789106FCD5E4B21C71DA78D209ED
S31500003040FCD01A79DA789206FCD500221A71DA7861
S31500003050D209FCD01C790120FFF70CFB012240F2BB
S3150000306003710448FDF77CFCE4B20120FFF702FB84
S31500003070204610BDCC0C0020A80D002038B5054612
S3150000308000220C461F4840F20371FDF769FC01203F
S31500003090FFF7F0FA1C4B45F004009B68DA789206BD
S315000030A0FCD5C0F307421A71DA78D209FCD01A7936
S315000030B0DA789506FCD5C0F307221A71DA78D209B8
S315000030C0FCD01A79DA789106FCD5C0B21871DA7894
S315000030D0D209FCD01A79DA789206FCD51C71DA7816
S315000030E0D209FCD01C790120FFF7C4FA012240F274
S315000030F003710448FDF734FCE4B20120FFF7BAFA85
S31500003100204638BDCC0C0020A80D0020002963D035
S315000031102DE9F04116460AB9BDE8F0811F46804602
S315000031200D46002240F203712C48FDF719FC0120E0
S31500003130FFF7A0FA0FB948F0040829488468E37835
S315000031409A06FCD5C8F307432371E378DB09FCD064
S315000031502379E3789B06FCD5C8F307232371E3782C
S31500003160DB09FCD02379E3789906FCD55FFA88F869
S3150000317084F80480E278D309FCD029465525731ECD
S31500003180227911FA83F3E2789206FCD567B12571AC
S31500003190E278D209FCD022798B420A7001F1010251
S315000031A00CD011468468EEE70A782271E278D209DB
S315000031B0FCD08B42227901F10102F2D10120FFF706
S315000031C059FA012240F203710448FDF7C9FBBDE834
S315000031D0F0410120FFF74EBA704700BFCC0C00202B
S315000031E0A80D002010B5244C24492046FDF744F8CC
S315000031F0A36818B91A7842F040021A70012284F8BE
S315000032002020DA7A1C4842F04002DA72FDF75EF9B5
S31500003210A36807211A786FF345121A701A786FF3AC
S31500003220C7121A701A8A42F001021A821A8A42F0EA
S3150000323002021A821A8A6FF383021A821A8A6FF3BB
S3150000324006121A821A8A6FF3C7121A821A8A61F351
S315000032500B221A821A8A6FF30C321A821A8A42F4E5
S3150000326000521A821A8A42F480421A821A8A42F458
S3150000327000421A8210BD00BFA80D0020F8530000BE
S31500003280024B9878421C9A7040B27047E89500202D
S3150000329000487047E8950020F8B504260127054642
S315000032A0007916FB0070C00000F50070FFF7A0FE65
S315000032B00446287904F01F0116FB0070C00000F5D3
S315000032C00070FFF7DBFEE60748BFAF73A00744BFF9
S315000032D00323AB73610744BF02236B73220703D535
S315000032E001220023EA712B73E30644BF00232B73EC
S315000032F0F8BD00BF2DE9F0414701083707F518581A
S31500003300002607F51C5701E0A64219D04046FFF7F4
S315000033106FFE05463846FFF76BFE2D02ADB2284418
S3150000332084B2002CF0D04046FFF762FE05463846D0
S31500003330FFF75EFE2D02ADB2284486B2A642E5D165
S315000033403046BDE8F08100BF2DE9F041470108375E
S3150000335007F50058002607F5045701E0A64219D0E4
S315000033604046FFF745FE05463846FFF741FE2D026B
S31500003370ADB2284484B2002CF0D04046FFF738FEA8
S3150000338005463846FFF734FE2D02ADB2284486B214
S31500003390A642E5D13046BDE8F08100BF2DE9F041F7
S315000033A004460079FFF7A6FF0646002869D00425E3
S315000033B04FF00108207915FB0080C00000F5205071
S315000033C0FFF716FE2379074615FB0383DB0003F59B
S315000033D02450FFF70DFE0322237900EB072015FB8F
S315000033E00323618A626A87B2380200EBC300114484
S315000033F043463246FFF78AFE2079374415FB0080A4
S31500003400C000C7F3072100F52050FFF737FE2079EB
S31500003410BFB215FB0080C000F9B200F52450FFF7DB
S315000034202DFE4FF4FA70FFF725F9207915FB008081
S31500003430C00000F52050FFF7DBFD2379074615FB9A
S315000034400383DB0003F52450FFF7D2FD237900EB5D
S31500003450072015FB0383DB004021A06303F5807082
S31500003460FFF70CFE4FF4FA70FFF704F9207915FB0D
S315000034700085ED0005F58070FFF7BAFD638A3344D9
S3150000348063823046BDE8F0812DE9F04204460079BA
S31500003490FFF75AFF238A834201D8237B13B100200A
S315000034A0BDE8F08204250126207915FB0060C000E6
S315000034B000F50070FFF79CFDC20651D4030745D402
S315000034C06379022B56D004250126207915FB00606E
S315000034D0C00000F51050FFF78BFD2379814615FBE0
S315000034E00363DB0003F51450FFF782FD0222237904
S315000034F000EB092915FB03234FEA0920228AA16A5A
S3150000350000EBC3000023FFF701FE2379278A15FB92
S3150000351003634F44D800C7F3072100F51050FFF7A7
S31500003520ADFD2079F9B215FB0060C00000F514501E
S31500003530FFF7A4FD2079202115FB0060C00000F5EF
S315000035408070FFF79BFD207CBDE8F0822079082182
S3150000355015FB0060C00000F50070FFF78FFDAFE7B8
S315000035602079102115FB0060C00000F50070FFF700
S3150000357085FDA5E70425012620792A4615FB00606E
S31500003580C000002304F1300100F54060FFF7BEFDE6
S315000035902079A18E15FB0060C000090A00F5805055
S315000035A0FFF76CFD207994F8341015FB0060C0001D
S315000035B000F58850FFF762FD85E700BFC36A2DE975
S315000035C0F0411A88044612B3B2F5D67F19D15A686B
S315000035D05F4B11681B6852685B1A9A4272D8207951
S315000035E0400100F54270FFF703FD63790546012BA4
S315000035F082B200F08E80022B68D00422E36AE27267
S3150000360000E00025002228461A80BDE8F0814079B6
S315000036102379012800F08380014658010830FFF71E
S315000036202DFD01260425207915FB0060C000FFF75B
S31500003630DFFC2079E18E15FB0060C000090A00F569
S315000036408060FFF71BFD207994F8361015FB0060AB
S31500003650C00000F5A060FFF711FD207915FB0060A2
S31500003660C00000F58060FFF7C3FC207915FB006001
S31500003670C00000F5A060FFF7BBFC6679012E55D0AF
S31500003680012504262079294616FB0050C00000F5C6
S315000036908070FFF7F3FC207916FB0050C00000F5A0
S315000036A08070FFF7A5FCE26A5368002B97D00A24C6
S315000036B04FF4D67126480068C3E9000428461180F5
S315000036C0BDE8F08101252846BDE8F081222A94D183
S315000036D00023032204264FF001082079E37116FB2C
S315000036E00080C00023612372A381A373E27200F5F8
S315000036F02050FFF77DFC2379074616FB0386F6006C
S3150000370006F52450FFF774FC00EB0720E36AA0637C
S3150000371078E7132A7FF471AF00230222DAE700EB81
S3150000372083002121C000FFF7A9FC7AE72079052153
S3150000373015FB0060C00000F53C50FFF79FFC2079A8
S3150000374015FB0060C00000F53C50FFF751FC97E701
S31500003750A00C002070B504460125FFF79DFD2079D9
S3150000376005EB8000C00000F54070FFF741FCE26AFF
S31500003770172808BFA57313889BB1B3F50F7F45D1F2
S31500003780A37B012B3DD05168294B08681B6849680B
S315000037901B1A994249D804210023E17203201380A1
S315000037A070BD042601252079324616FB0050C00064
S315000037B000F5406004F13001FFF7A8FC2079A18EE6
S315000037C016FB0050C000090A00F58050FFF756FCB2
S315000037D0207994F8341016FB0050C00000F588508C
S315000037E0FFF74CFC2079314616FB0050C00000F56F
S315000037F08070FFF743FCE26A53685BB9A37B012B39
S31500003800C9D100200323A1694860E3720023032085
S31500003810138070BD4FF47A764FF40F71044C28462E
S315000038202468C3E90046118070BD012070BD00BF49
S31500003830A00C002040F28121C26A70B513880446AC
S315000038408B4209D040F28D218B4238D0002B43D0D9
S3150000385000230320138070BD5268354B11681B6826
S3150000386052685B1A9A4235D82079400100F54270B9
S31500003870FFF7BEFB10B10022E36B1A700426012588
S3150000388020791F2116FB0050C00000F50070FFF7DD
S31500003890F5FB207916FB0050C00000F50070FFF71D
S315000038A0A7FBE26A536893B14FF4FA6640F28D21A2
S315000038B01F4C28462468C3E90046118070BD516834
S315000038C01B4B08681B6849681B1A994202D80123DA
S315000038D0E372BDE7012070BD04250126007915FBC2
S315000038E00060C00000F54070FFF782FB70B9E26A25
S315000038F05368002BB8D04FF4FA7440F281210C487B
S315000039005C60046801201C60118070BD2079102164
S3150000391015FB0060C00000F58070FFF7AFFB207953
S3150000392015FB0060C00000F58070FFF761FBDEE765
S31500003930A00C002038B5038A0446002B33D1E36A75
S315000039401A88FAB140F2C5218A4228D15A681C4D1C
S3150000395011682B6852685B1A9A4201D9012038BD5A
S315000039602046FFF799FC2046FFF718FD10B100230B
S3150000397063732372A37B042B1CD0E379012B19D02C
S31500003980E36A00E00E4D5A68002AE9D0052440F2A9
S31500003990C5212868C2E900040120198038BD00222B
S315000039A003201A8038BDFFF76FFD0028C7D000231B
S315000039B02382C4E7002204232282E372E0E700BFE9
S315000039C0A00C002040F20931826910B51388044624
S315000039D08B422FD04FF0000017D8002B47D040F273
S315000039E005318B4223D15268264B11681B685268F9
S315000039F05B1A9A4239D8FFF7E9FAA26953680BB302
S31500003A004FF47A7440F2093128E040F20E318B42CD
S31500003A100DD152681B4B11681B6852685B1A9A429B
S31500003A2023D80020FFF7E4FA0123A26923700023BC
S31500003A30138010BD5268134B11681B6852685B1ADD
S31500003A409A4212D880210020FFF718FBA26953681A
S31500003A50002BE6D04FF4FA7440F20E3109485C6050
S31500003A60046801201C60118010BD012010BDFFF705
S31500003A70A5FAA2695368002BBDD0642440F2053133
S31500003A80ECE700BFA00C0020826913881BB100235D
S31500003A90042013807047F0B5062283B03C490546E2
S31500003AA04FF41060FFF732FB0123062269464FF4FC
S31500003AB01060FFF72BFB6C466B46FF27354A0DF16E
S31500003AC0060613F8011B12F8010F884218BF03F807
S31500003AD0017CB342F5D1002304224FF480702E49B5
S31500003AE0FFF714FB0123042269464FF48070FFF7A9
S31500003AF00DFBFF276B46284A01AE13F8011B12F88F
S31500003B00010B884218BF03F8017CB342F5D10023AC
S31500003B1004224FF4A0602149FFF7F8FA012304229A
S31500003B2069464FF4A060FFF7F1FAFF276B461B4A80
S31500003B3013F8011B12F8010B884218BF03F8017C29
S31500003B40B342F5D1002304224FF470601449FFF705
S31500003B50DDFA01234FF4706069460422FFF7D6FAB6
S31500003B60FF200F4B14F8012B13F8011B914218BFCD
S31500003B7004F8010CB442F5D14FF43850FFF738FA87
S31500003B80032304202B700023AA69138003B0F0BD21
S31500003B90F7950020F6950020F3950020EF9500207C
S31500003BA0EB950020836910B51A8804469AB140F255
S31500003BB099318A4220D15A68124B11681B685268A3
S31500003BC05B1A9A421CD84FF43850FFF711FAC30714
S31500003BD060700ED5A3695A68002AF4D04FF47A743F
S31500003BE040F2993107485460046801201460198036
S31500003BF010BD0322A3692270002203201A8010BD83
S31500003C00012010BDA00C0020836910B51A88044657
S31500003C109AB140F2C1318A4220D15A68124B1168DA
S31500003C201B6852685B1A9A421CD84FF43850FFF74B
S31500003C30DFF9C30760700ED4A3695A68002AF4D06E
S31500003C404FF47A7440F2C131074854600468012089
S31500003C501460198010BD0222A3692270002203207D
S31500003C601A8010BD012010BDA00C00200378032B84
S31500003C700BD8DFE803F004060802FFF7C5BFFFF71D
S31500003C80A1BEFFF701BFFFF78DBF704710B5044611
S31500003C90C06BFFF7EBFF104B1B78022B07D1E37AC3
S31500003CA0013B032B03D8DFE803F0080D120310BD18
S31500003CB02046BDE81040FFF7BDBD2046BDE81040D8
S31500003CC0FFF77CBC2046BDE81040FFF743BD204609
S31500003CD0BDE81040FFF72EBEE89500202DE9F84319
S31500003CE00027184E8946144605469846FFF77AFA85
S31500003CF0154B3770F361FEF72BFDFEF745FF134AB0
S31500003D00B0613262691E09F1FF33013CB7700335B9
S31500003D1008F1FF30F21C11F8017F02F8017B13F85D
S31500003D20017FA942D77014F8017FD77110F8017F7F
S31500003D30D772F0D198F80430F37498F805303375DB
S31500003D40BDE8F883E89500208D3C00008132000034
S31500003D50F0B504466FF07F460E4887B00D4603C89F
S31500003D60ADF8141021680C4F04900C4801310296EE
S31500003D700197039005D029462046FFF7AFFF07B00D
S31500003D80F0BD04AB01AA02A903A8FFF7A7FF07B07D
S31500003D90F0BD00BF1C590000C0A80001C0A8000368
S31500003DA02DE9F84F8146006A8A4690461F468047AD
S31500003DB00546002DFDDB40210120FEF7DDFC002637
S31500003DC04FF0010B04464146057180F805A0C0F886
S31500003DD03C90A0F820804784C67186818673066170
S31500003DE080F80BB05846FEF7C7FC3946A062584625
S31500003DF0FEF7C2FC6062FEF7ABFCE061FEF7A8FCD2
S31500003E00E369A0615E60FEF7A3FCFEF7BDFE034614
S31500003E102046E362BDE8F88F08B504490448FDF77B
S31500003E201DF8B0FA80F0400908BD00BF1C53000021
S31500003E303C0D002070B5D0E90045827A0389C67A28
S31500003E40418984B058BAC2F301028DF80520ADF855
S31500003E5006000C23C6F340162DBA24BAC1F3C411CA
S31500003E6001AA0220CDE902548DF80460FEF784FF12
S31500003E70012004B070BD00BF30B584684278237855
S31500003E8083B08DF801208DF800302379C1788DF844
S31500003E900230627908238DF80320A0796A468DF8EE
S31500003EA00400E57903208DF80550257A8DF8065033
S31500003EB0647A8DF80740FEF75FFF012003B030BD3E
S31500003EC030B584684278237883B08DF801208DF868
S31500003ED000302379C1788DF80230627908238DF895
S31500003EE00320A0796A468DF80400E57904208DF850
S31500003EF00550257A8DF80650647A8DF80740FEF74E
S31500003F003BFF012003B030BD014670B58268052035
S31500003F101478937894708D684E78D478EE708A68A9
S31500003F20023B03EB0423C9789BB20232FEF724FF5F
S31500003F30012070BD837A13F0030301D0002070477F
S31500003F4070B5D0E900450289C67A418984B050BA75
S31500003F508DF80430ADF806000C23C6F340162DBAD2
S31500003F6024BAC1F3C41101AA0120CDE902548DF887
S31500003F700560FEF701FF012004B070BD30B50021D9
S31500003F804FF48075012485B00C2301AA0220CDE9E7
S31500003F9001540391FEF7F0FE05B030BD10B50021C7
S31500003FA040F2011482B006236A4601200091ADF862
S31500003FB00440FEF7E1FE02B010BD00BF70B50D462D
S31500003FC014461E4600F042FA58B1002148F210038A
S31500003FD004F01F02C0E9001143EAC21206724572DC
S31500003FE0428170BD08B50379B3B98179024631B112
S31500003FF04B1E032B07D9062905D0012008BDFFF764
S31500004000CDFF012008BD50790128F6D8D3799278E2
S31500004010FFF7D4FF012008BD002008BDF8B50D4606
S3150000402017461E469DF8184000F010FA78B1002396
S3150000403004F0030444F4004444F0140407F01F079A
S31500004040C0E9003344EAC714448106724572F8BDDC
S3150000405000B54179C37983B031B9C3B1FFF78EFF9B
S31500004060012003B05DF804FB0246481E032808D869
S3150000407010790128F4D8009393799278FFF7CEFF50
S31500004080EEE70629F4D0012003B05DF804FB00F04A
S3150000409035F9012003B05DF804FB00BF2DE9F043BC
S315000040A0064683B00A200B9D88461F469DF8289039
S315000040B0019200F0C7F9002204460A23062084F87C
S315000040C000806070277184F80590E270A3702A78EA
S315000040D03046A2716A780199E271AA782272224664
S315000040E0ED78657203B0BDE8F04300F0F1B900BFAA
S315000040F010B5837982B073B15A1E032A014605D8DA
S31500004100487901280CD9012002B010BD062BF7D042
S31500004110012002B010BD00F0F1F8012002B010BD80
S31500004120CC7901F10802CDE900428A780979FFF7D6
S31500004130B5FF012002B010BD024630B40725037852
S315000041404178023B047903EB01239BB281784079E5
S3150000415094701C0AD5701371547130BC023200F091
S31500004160B7B900BF08B583792BB15A1E032A04D804
S315000041704379012B05D9012008BD062BF8D0012073
S3150000418008BDFFF7D9FF012008BD00BF30B40246C5
S31500004190082500240A2381780079D5709070137160
S315000041A05079547130BC023200F092B908B5837967
S315000041B02BB15A1E032A04D84379012B05D90120B5
S315000041C008BD062BF8D0012008BDFFF7DFFFF6E794
S315000041D008B501201649FEF7C7FD02201549FEF76E
S315000041E0C3FD03201449FEF7BFFD04201349FEF763
S315000041F0BBFD05201249FEF7B7FD04210020114A38
S3150000420000F05EF9052100200F4A00F059F9062159
S3150000421000200E4A00F054F9072100200C4A00F055
S315000042204FF9BDE80840082100200A4A00F048B9C5
S31500004230E53F000051400000F140000065410000EC
S31500004240AD410000353F0000353E0000793E0000DC
S31500004250C13E0000093F0000704700BF01221A4B13
S31500004260C3F88020BFF34F8FBFF36F8F2022C3F8B0
S315000042708020BFF34F8FBFF36F8F4022C3F880209B
S31500004280BFF34F8FBFF36F8F8022C3F88020BFF339
S315000042904F8FBFF36F8F4FF48072C3F88020BFF348
S315000042A04F8FBFF36F8F4FF40072C3F88020BFF3B8
S315000042B04F8FBFF36F8FC3F88020BFF34F8FBFF3CD
S315000042C06F8F72B6704700BF00E100E058B94FF437
S315000042D04C43094A9360BFF34F8FBFF36F8F1B6840
S315000042E083F3088870470023034A9360BFF34F8F18
S315000042F0BFF36F8F1B68FFDE00ED00E008B5FFF728
S31500004300ADFF0120FFF7E2FF04231B68984700205A
S3150000431008BD00BF08B5FFF75BFFBDE80840FFF723
S315000043209BBF00BF1B4B70B453F820305D6895F8F7
S315000043302038DB092AD108248A684B1EC5F80022DA
S31500004340B5F80422CE1D64F30302A5F80422C1F1D8
S315000043500101CA1813F8014F2A44B34282F80642F3
S31500004360F7D1002480220C4948F2A0630C5485F84A
S31500004370202801E0013B02D00A5C002AFAD00B5C3F
S3150000438070BC002B14BF002002207047012070BCB7
S31500004390704700BF600B0020C00C0020828838B533
S315000043A0B2F5806F034607D0B2F5006F03D1012145
S315000043B00368134AD15438BD0568124AE9B252F867
S315000043C021000028F7D01C69FEF700FB0028F2D078
S315000043D023688360227BC37A0270627B65F3451390
S315000043E04270A27B8270E27BC270227C0271627C88
S315000043F04271A27C8271E27CC372C27138BD00BF79
S31500004400C00C0020B80C002010B51C4610B10128C5
S3150000441007D010BD06490748FCF7C0FF064B1C60D5
S3150000442010BD06490648FCF7B9FF034B5C6010BD9A
S31500004430BC520000800D0020B80C0020EC52000099
S31500004440E40C00200048704754A80020024B03EB00
S315000044504010C068FEF7BABA0CA20020C368002B51
S315000044602BD070B51A780446012A0FD05968134D1F
S315000044700E682A684868921B904206D89B6813B15A
S315000044809847E36859682B680B6070BD5A680B4DF6
S3150000449011682B6852685B1A9A42F6D800220921E5
S315000044A00069FEF769FA4FF47A700021E3682C6818
S315000044B05A68C2E90040197070BD7047A00C002010
S315000044C0024B03EB40104069FEF722BA0CA2002013
S315000044D02DE9F04706460C4615469946002B4AD06C
S315000044E0002A48D041F6991109EB490303EB03135F
S315000044F003EB032309EB8303C3F34E0242EAC33300
S315000045009BB28B421F4A204B02EB4616A3FB0923A4
S3150000451083BFDB080133DBB2C3F3C703F7681FFAB7
S3150000452083F823B34FF0000A04F01F04E6010835B0
S315000045303846FEF74BFAA5F10802D0B10AF07F0320
S3150000454043F4104333434381411E12F8014BAA4200
S3150000455001F8014FF9D12B780AF1010A03726B7841
S315000045601FFA8AFAD045437205F10A05E0D15FFACF
S3150000457089F0BDE8F08740F217110448FEF75CF8B1
S31500004580B0E700BF0CA20020CDCCCCCC2459000053
S315000045908B7AF0B45A063ED101270D4643690E4682
S315000045A01F7004789A685C7035F80A4F9F70C4F3E0
S315000045B0C414DC70DA6001E04369DA68541CDC601C
S315000045C011F8013BA9421370F6D141F6991473888C
S315000045D003EB430202EB021202EB022203EB82021E
S315000045E0C2F34E0141EAC23292B2A2421B4AA2FB78
S315000045F0032388BFDB08426986BF0133DBB2C3F3FE
S31500004600C7035371717894781171A3429CBF02233A
S315000046101370F0BC704742694C89D578C4F3C41452
S31500004620AC42947804D08369013383615379ECE713
S3150000463003F07F03A342F6D101F10A05D3685C1C9F
S31500004640D46011F8012B1A708D424269F6D1947824
S3150000465053790134E4B29470D7E700BFCDCCCCCC0B
S315000046602DE9F0414468D4E902369E4236D005462B
S315000046704FF000081A4F0CE0817A0246C1F384011C
S315000046802869FEF779F92046FEF796F9A368B34242
S3150000469024D02046FEF786F90028F4D0EB682BB12B
S315000046A01A78012A02D15B683A681A60C37ADB0677
S315000046B0E2D501462846FFF76BFF6A691378022B9D
S315000046C0E1D111792869FEF757F96B69204683F81D
S315000046D00080FEF771F9A368B342DAD1BDE8F08134
S315000046E0A00C002038B58468D4E902329A4210D072
S315000046F005462046FEF756F9014618B1EB692878BB
S31500004700984730B92046FEF757F9D4E902239A4272
S31500004710EFD138BD38B51B4C1B4923680A689D6A22
S31500004720D88C521B92B290429A8438BFDA84DA69E6
S31500004730096801329962DA61FDF732FF25686B89F3
S3150000474093B91248FFF78CFF1048FFF787FE0F4812
S31500004750FFF7C8FF0E48FFF783FF0D48FFF77EFE01
S315000047600B48FFF7BFFF2568FDF72AFF236828845B
S315000047701A8C598C0420914238BF5A8400225A81DF
S3150000478038BD00BF0CA20020A00C002010A2002003
S3150000479030A200202DE9F0410025274C0C22274BA2
S315000047A00746884601208021A580E561FEF722F9AB
S315000047B006460C228021224B0120A660FEF71AF93C
S315000047C0034610210120E360FDF7D6FF06464FF4AD
S315000047D0A0610120A661FDF7CFFF4FF4A061A36998
S315000047E0184AB060D98022621D709D7060790128D8
S315000047F00ED0256100210120FEF70EF8054642463F
S315000048003946A36865610020BDE8F041FFF7FCBDAD
S315000048100C21FDF7B1FF2061057085600646FDF7A6
S3150000482097FF4FF47A712369074A70605B681268D4
S31500004830C3E90021DEE700BF0CA200200C9C00208B
S3150000484054A2002025430000A00C00202DE9F047CB
S3150000485001250026254C0C22254B804689462846F4
S315000048604021A584E663FEF7C5F807460C224021E1
S31500004870204B2846A762FEF7BDF8034610212846BE
S31500004880E362FDF779FF07464FF4A0612846A76368
S31500004890FDF772FF4FF4A061A36B174AB860D98089
S315000048A022641E709E7094F82500A8420AD02663E2
S315000048B065694A464146A36A65630120BDE8F0473B
S315000048C0FFF7A2BD0C21FDF757FF20630670866037
S315000048D00546FDF73DFF4FF47A71236B074A686082
S315000048E05B681268C3E90021E2E700BF0CA2002062
S315000048F00C9900200C96002025430000A00C0020F7
S3150000490030B514461D4683B0FFF744FF29462046BE
S31500004910FFF79CFF00230A491A4600910120094926
S31500004920FEF7F4F8084C2060FDF712FF4FF47A7298
S31500004930064B60641B68C0E9003203B030BD00BF9F
S3150000494038590000154700000CA20020A00C0020DA
S3150000495010B572B6FFF760FA02233F220D4C1946D6
S315000049601046FFF7CDFF2068831C00F1140200F10A
S3150000497010010830FFF7ECF92068028B418B0C30F0
S31500004980FEF7B0F9FEF7EAFAFFF7C4FCFDF74EFAB8
S3150000499062B610BD580B0020014B1868704700BF67
S315000049A0680B00200A44431E914200D1704710B59F
S315000049B011F8014B914203F8014FF9D110BD0244A1
S315000049C00346934200D1704703F8011BF9E710F83C
S315000049D0012B11F8013B012A28BF9A42F7D0D01AC1
S315000049E07047034613F8012B002AFBD1181A013829
S315000049F07047FFFF00B59BB0009104916FF0004136
S31500004A000591029105490391694600F06FF8009BF4
S31500004A1000221A701BB05DF804FB00BF0802FFFFFE
S31500004A2013460A46014602480068FFF7E3BF00BF87
S31500004A30680B00202DE9F0478E6882460C469046AA
S31500004A409E421F4638D88A8912F4906F32D0256864
S31500004A5001330969A5EB0109656905EB45054B4479
S31500004A6005EBD5756D109D4238BF1D46530531D5F2
S31500004A70294600F049FB064650B90C234FF0FF309B
S31500004A80CAF80030A38943F04003A381BDE8F0874C
S31500004A904A462169FFF786FFA38923F4906343F012
S31500004AA08003A38126614E446561A5EB0905266056
S31500004AB03E46A560BE4200D93E4632464146206883
S31500004AC000F0B8FAA368226800209B1B3244A3605A
S31500004AD02260DBE72A4600F071FB06460028E1D19A
S31500004AE02169504600F0C0FAC7E7FFFF2DE9F04FF5
S31500004AF098468B899DB007461B060D4614460ED573
S31500004B000B6963B9402100F0FFFA2860286120B9DB
S31500004B100C233B604FF0FF30D1E040236B61002354
S31500004B20CDF80C804FF00109DFF8AC810993202302
S31500004B308DF8293030238DF82A3023469A4613F80B
S31500004B40012B0AB1252AF9D1BAEB040B0BD05B462F
S31500004B50224629463846FFF76DFF013000F0AA804D
S31500004B60099A5A4409929AF80030002B00F0A28064
S31500004B7000234FF0FF320AF1010A049307938DF8E0
S31500004B8053301A93CDE9052354460522524814F8AA
S31500004B90011B00F041FA049AD8B9D00644BF20237D
S31500004BA08DF85330110744BF2B238DF853309AF8F4
S31500004BB000302A2B15D0079A544600204FF00A0CD5
S31500004BC0214611F8013B303B092B4ED9B0B1079273
S31500004BD014E0A0EB0803A24609FA03F31343049377
S31500004BE0D2E7039B191D1B68002B0391BBBF5B42D9
S31500004BF042F0020207930793B8BF049223782E2B44
S31500004C000CD163782A2B35D1039B02341A1D1B68FD
S31500004C10002B0392B8BF4FF0FF330593DFF8C8A00F
S31500004C2003222178504600F0F7F940B14023A0EB6B
S31500004C300A00013403FA00F0049B0343049314F8BA
S31500004C40011B062225488DF8281000F0E5F90028FA
S31500004C5038D0234B1BBB039B073323F007030833D2
S31500004C600393099B3344099367E70CFB02320C4616
S31500004C700120A5E7002301344FF00A0C19460593DD
S31500004C80204610F8012B303A092A03D9002BC5D04B
S31500004C900591C3E70CFB012104460123F0E703ABB2
S31500004CA02A4604A9384600930E4B00E000BF421C7A
S31500004CB00646D6D1AB895B063FF52CAF09981DB0E9
S31500004CC0BDE8F08F03AB2A4604A938460093054B8E
S31500004CD000F07CF8EBE700BF3C59000046590000A5
S31500004CE000000000354A0000425900002DE9F04757
S31500004CF0164699468A6807460B690C46DDF82080F9
S31500004D009342B8BF1346336091F843200AB101338A
S31500004D1033602368990642BF3368023333602568DF
S31500004D2015F0060506D104F1190AE36832689B1AE4
S31500004D30AB4229DC94F84320131E226818BF0123D6
S31500004D4092062ED404F1430249463846C047013044
S31500004D5021D023681A3454F80E5C03F00603326837
S31500004D600026042B54F8123C08BFAD1A54F80A2C3E
S31500004D7014BF002525EAE5759342C4BF9B1AED18BA
S31500004D80B5421AD1002008E001235246494638466A
S31500004D90C047013003D14FF0FF30BDE8F087013541
S31500004DA0C3E7E1185A1C30200233224481F843003D
S31500004DB094F8451082F84310C4E701232246494679
S31500004DC03846C0470130E6D00136D9E72DE9FF471E
S31500004DD00C46914680469A46277E04F143020C997A
S31500004DE0782F07D8622F0AD8002F00F0D880582FC6
S31500004DF000F0A38004F1420684F842703AE0A7F17D
S31500004E006303152BF6D801A050F823F0654E000079
S31500004E10794E0000F54D0000F54D0000F54D0000FF
S31500004E20F54D0000794E0000F54D0000F54D0000EF
S31500004E30F54D0000F54D0000854F0000A94E00001D
S31500004E40674F0000F54D0000F54D0000A74F00002C
S31500004E50F54D0000A94E0000F54D0000F54D00008F
S31500004E606F4F00000B6804F142061A1D1B680A60AA
S31500004E7084F842300123A3E0256808682E0600F175
S31500004E8004030AD505680B60002D03DA2D236D4255
S31500004E9084F843305E480A2319E015F0400F056890
S31500004EA00B6018BF2DB2EFE70B682568181D086068
S31500004EB0280601D51D6802E06906FBD51D886F2FFF
S31500004EC053480CBF08230A23002184F84310666860
S31500004ED0002EA660A2BF216821F0040121600DB951
S31500004EE0002E4DD01646B5FBF3F103FB1157C75DF7
S31500004EF006F8017D2F460D46BB42F4D9082B0BD18F
S31500004F002368DF0708D5236961689942DEBF30232D
S31500004F1006F8013C06F1FF36921B22614B4603AAB6
S31500004F2021464046CDF800A0FFF7E0FE01304CD107
S31500004F304FF0FF3004B0BDE8F087354884F845707F
S31500004F4023680E681F0656F8045B0E6014D5D90751
S31500004F5044BF43F0200323601DB9236823F02003D8
S31500004F6023601023B0E7236843F0200323607823EF
S31500004F70284884F84530E3E75E0648BFADB2E6E769
S31500004F801646BBE70B6826681D1D60690D60350671
S31500004F901B6801D5186002E07106FBD51880002356
S31500004FA016462361BAE70B681A1D0A6000211E68BF
S31500004FB06268304600F030F808B1801B60606368B4
S31500004FC02361002384F84330A8E723693246494623
S31500004FD04046D0470130ABD023689B0713D4E06826
S31500004FE0039B9842B8BF1846A4E7012332464946B8
S31500004FF04046D04701309BD00135E36803995B1AE0
S31500005000AB42F2DCEBE7002504F11906F5E700BF39
S315000050104D5900005E590000C9B2024410B59042D5
S31500005020034601D1002303E01C7801308C42F6D1FF
S31500005030184610BD884210B501EB020402D984421D
S31500005040234607D8431EA14208D011F8012B03F8C6
S31500005050012FF8E7024401468A4200D110BD13F839
S31500005060014D02F8014DF7E737B5002947D051F851
S31500005070043C0C1F0190002BB8BFE41800F0D4F8D4
S31500005080204A01981368154633B96360146003B06B
S31500005090BDE8304000F0CEB8A3420BD921686218B3
S315000050A0934202BF1A685B685218636008BF2260A9
S315000050B02C60ECE71A465B680BB1A342FAD911687B
S315000050C05518A5420BD12468214454181160A342F7
S315000050D0DDD11C685B68214453601160D7E702D9B3
S315000050E00C230360D3E7256861198B4202BF196858
S315000050F05B684919636008BF21605460C7E703B065
S3150000510030BD00BFC40C0020F8B5CD1C064625F006
S31500005110030508350C2D38BF0C25002D01DBA942EF
S3150000512003D90C2333600020F8BD00F07DF8214937
S315000051300A6814469CB9204F3B6823B9214630467D
S3150000514000F062F838602946304600F05DF8431CEE
S3150000515023D10C233046336000F06CF8E3E7236874
S315000051605B1B17D40B2B03D923601C44256004E07A
S315000051706368A2420CBF0B605360304600F05AF8D9
S3150000518004F10B00231D20F00700C21ACCD01B1A15
S31500005190A350C9E722466468CCE7C41C24F0030484
S315000051A0A042E3D0211A304600F02EF80130DDD1BE
S315000051B0CFE700BFC40C0020C80C0020F8B5074696
S315000051C014460E4621B91146BDE8F840FFF79CBFCC
S315000051D022B92546FFF748FF2846F8BD00F030F80B
S315000051E0A0420FD221463846FFF78EFF054600281B
S315000051F0F2D031462246FFF7D5FB31463846FFF757
S3150000520033FFE9E73546E7E738B50023054D0446A1
S3150000521008462B60FCF7D6FC431C02D12B6803B171
S31500005220236038BD6CAC0020014800F011B800BF07
S3150000523074AC0020014800F00CB800BF74AC00202C
S3150000524051F8043C181F002BBCBF0B58C018704700
S31500005250704770474275696C74207769746820528C
S31500005260656E6573617320416476616E6365642063
S31500005270466C657869626C6520536F6674776172F7
S3150000528065205061636B6167652076657273696F2F
S315000052906E20332E302E3000332E302E300000009C
S315000052A000000003F8B500BFF8BC08BC9E46704776
S315000052B0F8B500BFF8BC08BC9E4670470000000069
S315000052C0080900209D43000000000000D4520000A1
S315000052D002050607010000000C0C0020180900203A
S315000052E00100000020000000000000000100000096
S315000052F0180A00209D43000000000000045300002F
S315000053000208090A010000002C0C0020280A0020CF
S315000053100100000020000000000000000000000066
S31500005320000000000000000000000000FFDFFFDFBB
S3150000533000000000A08601000000000050C300002D
S31500005340000000006525000000000000505300002A
S315000053500000000000000000000000000000000047
S315000053600000000000000000000000000000000037
S315000053700000FFFFDFDF000000000000010000006A
S3150000538000000064080000000000003201FFDF009A
S3150000539000000000000000009C5300000000000018
S315000053A000000000000000000000000000000000F7
S315000053B00000000000000000000000000000FFFFE9
S315000053C0DFDF000000000000D80D0020D4530000ED
S315000053D0F8560000280B0020DC53000002FFFFFFF8
S315000053E0200E0020EC530000F8560000380B002079
S315000053F0F453000001FFFFFF00010203040C0C0C34
S315000054000C00000001000000C8530000E05300003B
S31500005410DD2F0000000000001C5400000100000009
S3150000542000000002000000004100000030540000AF
S31500005430050000000F0000000000010B0001000045
S315000054400000010B010100000000010B0201000039
S315000054500000010B030100000000010B0401000025
S315000054600000010B050100000000010B0601000011
S315000054700000010B07010000000001000801000008
S315000054800000010009010000000001000A010000FF
S315000054900000010B0B0100000000010B0C010000D5
S315000054A00000010B0D0100000000010B0E010000C1
S315000054B00000010B0F0100000000010B03020000B9
S315000054C00000010B040200000000010B05020000B1
S315000054D00000010B070200000000010000030000AD
S315000054E00000010B010300000000010B0203000095
S315000054F00000010B030300000000010B0403000081
