:020000021000EC
:10040000904A0120C1E10100D1DF0100BDE10100FE
:10041000BDE10100BDE10100BDE10100BDE1010060
:10042000000000000000000000000000BDE101002D
:10043000BDE1010000000000BDE10100BDE10100DF
:10044000ADD10100C1C6010049C701005DC801006E
:10045000CDC80100FDDB0100E1DC010009DE010087
:10046000FDDB0100E1DC010009DE010015CD01002A
:100470008DCC010099CD0100D5CD010015CD010035
:100480008DCC010099CD0100D5CD0100C1C6010080
:1004900049C701005DC80100CDC80100000000008F
:1004A000000000000000000000000000000000004C
:1004B000000000000000000000000000000000003C
:1004C000000000000000000000000000000000002C
:1004D000000000000000000000000000000000001C
:1004E000000000000000000000000000000000000C
:1004F00000000000000000000000000000000000FC
:1005000000000000000000000000000000000000EB
:1005100000000000000000000000000000000000DB
:1005200000000000000000000000000000000000CB
:1005300000000000000000000000000000000000BB
:1005400000000000000000000000000000000000AB
:10055000000000000000000000000000000000009B
:10056000000000000000000000000000000000008B
:10057000000000000000000000000000000000007B
:10058000000000000000000000000000000000006B
:10059000000000000000000000000000000000005B
:1005A000000000000000000000000000000000004B
:1005B000000000000000000000000000000000003B
:1005C00010B5054C237833B9044B13B1044800E04F
:1005D00000BF0123237010BDC00B002000000000ED
:1005E0008C4A020008B5034B1BB10349034800E0E5
:1005F00000BF08BD00000000C40B00208C4A0200B0
:100600007047704770477047704700238B7470477E
:10061000704770477047FFFF08B5084B1B6840F2F2
:1006200001121A81018A064A1268A2F80C1140F2DE
:1006300005120421184604F0B5FA08BD540D002037
:100640004C0D002008B5084B1B6840F201121A81BE
:10065000018A064A1268A2F80C114FF481720C212B
:10066000184604F09FFA08BD540D00204C0D0020E0
:1006700038B503468168027EC87AB2FBF0F2486A58
:100680004FF4967404FB02020E4800684C6824780C
:1006900004730024C4734FF4857404811D7ECC7AE6
:1006A000B5FBF4F104FB11514173528842815B7E2A
:1006B000B3FA83F35B09837340F20222082104F04A
:1006C00071FA38BD540D002008B5836858684FF49E
:1006D00085721978007806F025FC08BD08B5836896
:1006E0005B684FF485721978408A04F001FB08BDFD
:1006F000F0B4D0F808014C8804EBC40600EB860681
:100700000025357272724FF0FF0C86F80AC0F57240
:1007100035734FF0010C86F80DC0F38104EBC4066D
:1007200000EB860635617561B561F561356275620C
:10073000B5620C7ADCB131462C3104EBC40401EB18
:100740008404A14213D26646FF2500200E704A7031
:100750008D70C87008714871CB808860C86008616E
:1007600048618861C861086224318C42EED8F0BCCF
:10077000704783680269934206D001338360C28860
:10078000C3691344C3617047002383604369C36135
:10079000012303707047C36A826A93420EBF436AA3
:1007A00082889B18C3627047002380F81331A0F839
:1007B0001031436942894FF4967101FB0232934232
:1007C00005D20021997403F596739A42FAD8002352
:1007D00080F8DD3003694278C2EBC20203EBC2024B
:1007E000934204D20021D97438339A42FBD870471F
:1007F0000023C37390F8B93053B9344A1168826941
:10080000D278C96902EB021201EBC2025279A2B995
:1008100090F8BE2080F8BA20B0F8C020A0F8BC2024
:10082000002280F8BE2080F8B830D0F8CC30C0F874
:10083000C430D0F8D030C0F8C830002380F8B930C8
:10084000B0F8B620A0F8B420A0F8B630436C002B66
:100850003BD0F0B4067AC6EB061603EB0616B3429D
:1008600031D21A4A176800221EE093F8824083F8BA
:100870007E40B3F88440A3F8804083F8822083F858
:100880007C10D3F89010C3F88810D3F89410C3F8F4
:100890008C1083F87D20B3F87A10A3F87810A3F8B1
:1008A0007A20F0339E420ED993F87D100029DCD1D6
:1008B0008469E478FD6904EB041405EBC4046479ED
:1008C000002CE6D1D1E7F0BC70477047E80C00205F
:1008D00038B5002380F85D3AA0F8483A90F8623ABB
:1008E00080F85E3AB0F8643AA0F8603A90F87A304E
:1008F00080F8563A838BA0F84E3A446945894FF404
:10090000967303FB0545AC4206D22046FFF770FF05
:1009100004F59674A542F8D838BDFFFF074B1B6855
:100920001868984207D042680368136042685A60AA
:100930000060406070470020704700BFE00C00205E
:10094000034B1B6803605A68426010605860704730
:10095000E00C002010B5114B1B68D0F88040D07817
:100960001881D07808B98870087292785A81218AE3
:100970000B4A1268A2F80C1140F205120421184625
:1009800004F010F962682368136062685A6024609A
:1009900064602046FFF7D4FF10BD00BF540D002057
:1009A0004C0D002010B5154B1B68D0F88040D17855
:1009B000198191885981D07828B9B1F5806F84BFA9
:1009C00040F20D111981917819820D4909689288B8
:1009D000A1F86E21228AA1F80C214FF481720C211A
:1009E000184604F0DFF862682368136062685A6092
:1009F000246064602046FFF7A3FF10BD540D002063
:100A00004C0D002010B5D0F88040208A0A4B1B689E
:100A1000A3F80C014B6892781978608A04F068F9A1
:100A200062682368136062685A60246064602046CC
:100A3000FFF786FF10BD00BF4C0D002070B50D46BE
:100A40001646D0F88040228A0D4B1B68A3F80C2173
:100A50004B6832880978187806F064FA33881BB935
:100A6000B3780BB9AB702B7262682368136062684D
:100A70005A60246064602046FFF762FF70BD00BFCB
:100A80004C0D002010B5D0F88040208A0A4B1B681E
:100A9000A3F80C014B6812881978608A04F028F9D1
:100AA00062682368136062685A602460646020464C
:100AB000FFF746FF10BD00BF4C0D00202DE9F04FA1
:100AC00083B01546474B1C68D0F8807092F80280BE
:100AD000CB7AB8FBF3F84B6A4FF4967202FB0838F6
:100AE0002B8823814B681B782373AB88002B51D153
:100AF000B8F802306381A878CA7AB0FBF2F302FB3F
:100B000013036373EB78B3FA83F35B09A3733A8A35
:100B1000354B1B68A3F80C210123E373AB88002B32
:100B200041D105F1060A1422514604F1100003F0E8
:100B300019F9EB78002B52D098F8083003EB8302B8
:100B400092001C320192E27B1344E37398F8083060
:100B500093B34FF0000904F1080B5FFA89F14E1CC2
:100B60000AEB0111B50006EB86000BEB80001022AA
:100B70001431083003F0F6F8354404EB8505002302
:100B80002B6209F1010998F808205FFA89F39A426B
:100B9000E3D811E0D8F84420C3EB031302EB0313AE
:100BA00033F8EE3CA6E71022A91DA01803F0DAF8EE
:100BB000002323621C23019340F202220199204664
:100BC00003F0F0FF7A683B6813607A685A603F6010
:100BD0007F603846FFF7B4FE03B0BDE8F08F1C23FA
:100BE0000193E9E7540D00204C0D002010B5C378A7
:100BF0001375C0F88020537D03710446D38A1432E4
:100C0000497814F8480B12F037F80123C822042160
:100C100020460AF053F910BD08B50E4B1A6800EBD8
:100C20000013D06900EBC30000F15003026D9A423B
:100C30000BD00B688B4200D008BD00F178030B602D
:100C4000C36F4B601960C167F6E70A468968FFF712
:100C5000CDFFF1E7E80C002043788B4221D910B496
:100C6000114B1C6804E00131C9B243788B4214D99E
:100C70004318DB79C3EBC303626902EBC3039A78C1
:100C8000002AF0D1427942B11A7D32B95A6892F8FD
:100C9000DD30013382F8DD30E5E781705DF8044B2B
:100CA00070478170704700BFE80C00202DE9F041CB
:100CB0000D46144681780131C9B2FFF7CDFFE379C3
:100CC0006B72E368EB612369AB61A37AEB73E37A40
:100CD000AB73A3792B73227AEA7261795D4B1B782F
:100CE00099422CD36E6896F8B4102379013B8B425D
:100CF00032D1E07996F8B530984230D196F8B630D6
:100D000093422FD1A27A96F8B8309A422DD1E27A46
:100D100096F8B7309A422BD1E268D6F8B0309A42B2
:100D200029D12269D6F8AC309A4227D1002942D085
:100D3000627AAB7A9A423ED04FF4006801E040F606
:100D400002086C6A95F820604FF4967303FB064620
:100D5000B4422BD2012725E04FF40068F1E74FF4AD
:100D60000068EEE74FF40068EBE74FF40068E8E74F
:100D70004FF40068E5E74FF40068E2E74FF40068DD
:100D8000DFE743463A4621466868FFF7B1FCA7749F
:100D90006A68B2F810310133A2F8103104F5967484
:100DA000A64203D9A37C002BF8D1EAE76B680122A5
:100DB0001A72BDE8F08101232B720023AB7004F09E
:100DC00021FC04F1140396F8B820FAB1183400217C
:100DD0006A68EB7B2F7888B207FB0303D2F8A42064
:100DE00002EBC302234614F8030C907014F8010CB4
:100DF000D07014F8020C107114F8040C5071013109
:100E0000043496F8B8008AB29042E1D896F8B72038
:100E1000002ACED0043300216C68AA7B2F7888B2D8
:100E200007FB0200D4F8A82002EBC00213F8030C61
:100E3000907013F8010CD07013F8020C107113F8B5
:100E4000040C50710131043396F8B7008AB2904215
:100E5000E2D8AEE78108002070B506460C4615467C
:100E600000234B740B740F4B1A680F4B1B689B7954
:100E7000383352F823302A1D698820469847237D4D
:100E800043B100232375B1780131C9B23046FFF771
:100E9000E3FE70BD6B78002BF5D001232375B37191
:100EA000F1E700BFE00C0020E80C002083784278D6
:100EB0009A4209D9054A12681844C079C0EBC003A8
:100EC000506900EBC300704700207047E80C002019
:100ED0002DE9F047394B1A68C37813700423538007
:100EE0000B7A2BB3022353700B8A003B18BF0123EC
:100EF00093800023D38008235380CB7C3BB901230C
:100F0000CB744C6894F8DD30013384F8DD305378CD
:100F1000037104465388497814F8480B11F0ACFE6D
:100F200001231E220321204609F0C8FFBDE8F087F7
:100F300001235370082353804B7B002BDDD091F8A5
:100F4000203013710133DB005380D1F824C091F8B5
:100F500020804FF4967303FB08C8C445CDD202F13C
:100F6000100E4FF00009012705E00CF5967C0EF1FC
:100F7000080EE045C1D94B6893F8BA3076460EF8B2
:100F8000083C9CF808300EF8073C4EF8049CDCF84E
:100F900044309CF808A0CAEB0A1A03EB0A1A53451E
:100FA000E3D2DC7907FA04F556F8044C2C4346F8F2
:100FB000044CF0339A45F4D8D7E700BFDC0C00208E
:100FC00038B50446A0F15C0500212846FFF744FE31
:100FD000A4F10C0354F80C2C9A4200D038BD2846DA
:100FE000FFF764FF014618B12846FFF771FFF5E7E8
:100FF00000234FF47A721946204609F05FFFEDE7AF
:10100000F0B4068E0E4217D00023012702E0013310
:10101000102B14D041FA03F515F0010FF7D042FA66
:1010200003F515F0010F07FA03F4458E14BF2C43A6
:1010300025EA04044486EAE7438E1A434286314394
:101040000186F0BC7047012303FA01F109B2038E57
:101050000B43038622B1438E194389B24186704700
:10106000438E23EA0101F9E738B5044683695B68DA
:10107000417A187802F06EFD0546617A0131A36964
:101080005B68C9B2187802F065FD6B78022B03D05B
:10109000032B0ED0002038BDC0B14378062B01D001
:1010A0000020F8E7EB688068834214BF002001202D
:1010B000F1E768B14378072B01D00020EBE7EB683C
:1010C0008068834214BF00200120E4E70020E2E7AB
:1010D0000020E0E72DE9F04F83B001908946584B9E
:1010E0001E68C3783370032373700C2373808B7C6A
:1010F000003B18BF01233371002333817381B1F8A2
:1011000030B04B8E00934C6A91F820804FF4967368
:1011100003FB0848444576D206F10C054FF0010A5E
:101120003CE00423AB707B68E26B9B1AEB602DE024
:101130004FF01D03AB707B686B603B4653F8081F94
:101140005A689B68E9602A616B61BB68E26B9B1A15
:10115000EB603B69226A9B1A6B6117E0BB78AB704E
:101160003B4653F8042FD3F804C09868D9686A60E6
:10117000C5F808C0E86029611A696A61FB68E26B1A
:101180009B1AEB607B69226A9B1A6B617388183328
:101190007380183504F59674A04534D9E3794BFA79
:1011A00003F313F0010FF5D04FF000036374A3793C
:1011B0000AFA03F3328913433381E379009A42FA3E
:1011C00003F313F0010FE5D0A3790AFA03F3728950
:1011D00013437381D9F80430617A187802F0BAFCAD
:1011E0000746637A2B7043786B702046FFF73CFF0D
:1011F000E8707B78012B94D09A1ED2B2012A97D93D
:10120000072BABD919E0D9F83030C9F834300023B6
:10121000C9F830307378019C2371C4F884907388C6
:10122000324699F8011014F8480B11F025FD0123FE
:101230001E220221204609F041FE03B0BDE8F08FD6
:10124000DC0C002008B501460E4B1A68C07800EB94
:101250000013D06900EBC30000F15003026D9A4205
:101260000DD001F128038A6A9A4200D008BD00F12E
:1012700070028A62426FCA6213604367F6E7FFF743
:1012800029FFF3E7E80C00202DE9F04782B005467E
:101290000AF04AF8D5F8084109F002FE454B1B68F0
:1012A000034423600023237124236371EB89E380CB
:1012B0006C696E894FF4967303FB0646B4422ED2D6
:1012C0004FF00008C2464FF00709012705E0A37C54
:1012D0009BB104F59674A64216D9B5F8483A002B8E
:1012E000F5D0B4F8B620002AF3D1A4F8B6303946C8
:1012F000204600F0F1FEB846EBE753464A46214649
:101300002846FFF7F5F9E4E7B8F1000F07D02C699C
:101310006E78C6EBC60604EBC606B44210D3B5F829
:10132000483AB3F5506F0FD095F8DE308BB902B064
:10133000BDE8F0872046FFF785FF3834A642EED996
:10134000238E002BF9D0F5E705F6682009F0C9FCDB
:10135000EAE705F1DC04D5F8E4602046FFF709FA76
:10136000D5F8E830F3B9D5F8EC30D5F8E4209A4256
:101370001AD095F8DF303BB14FF4406128460AF0AF
:10138000D6F9002385F8DE30D5F8E83000933346EF
:10139000D5F808210121287810F0C2FF2046FFF778
:1013A000FAF9C4E7013BE0E795F8DC30002BE3D124
:1013B000DFE700BF480D0020F8B50446034653F8A8
:1013C000705F9D421DD1034653F8782F9A4224D175
:1013D00000F16403426E9A421ED1FFF767FD014699
:1013E000F8B92B4B1B689A79012A3ED19D691B786D
:1013F00040F6CC2202FB03539D4232D2244F1646C4
:1014000025E0A5F12801FFF765FE6A682B681360E7
:101410006A685A602D606D60F8BD9168FFF7E6FB61
:10142000FAE72046FFF754FDF6E72846FFF72CFFC2
:101430002846FFF74DFA2846FFF7B6F905F6CC2502
:101440003A681378926906FB03239D4209D295F806
:10145000DD206B789A42F1D3B5F81031002BE7D03C
:10146000E3E7A37953B90023637100234FF47A7241
:10147000194604F15C0009F021FDCDE70023A371BA
:101480000123637104F15C00FFF79AFDC4E700BF1C
:10149000E80C002010B510F8453C013300F8453C3D
:1014A000C46BA37C012B0FD80133A374226B636B35
:1014B000236391B219B92046FFF7C4FE10BD120C88
:1014C0002046FFF79DFDF6E70023A3744838FFF799
:1014D00073FFF3E72DE9F8434C6A91F820504FF47D
:1014E000967303FB0545AC421BD2064617464FF0E8
:1014F00000094FF0010810E04B463A4621463046BD
:10150000FFF7F6F884F81280B6F810310133A6F828
:10151000103104F59674A54203D9A37C002BF8D1B1
:10152000EAE7BDE8F883FFFF70B50446A0F148067E
:1015300010F8453C013300F8453C1A4B1A6810F886
:10154000463C034413F8415CC5EBC505536903EB06
:10155000C50500232B752B7A33B16B7CCBB12B7C6B
:10156000012B10D801332B7400236B742B7A9BB1A1
:1015700014F8461C0131C9B23046FFF76DFB304606
:10158000FFF71AFF70BD00232B722B7404F03AF89A
:10159000EAE701236B74F2E7002229466868FFF747
:1015A00099FFE5E7E80C002038B5A0F1480510F8F0
:1015B000453C013300F8453C846B237B63B1013B20
:1015C00023732368A3421ED100F130032360436BD1
:1015D00063601C60446316E0228A0D4B1B68A3F80D
:1015E0000C210C4B1B68627D03EB82035B6F204672
:1015F000984762682368136062685A602460646078
:101600002046FFF79DF92846FFF7D6FE38BD00BFFC
:101610004C0D0020E00C002083695B7B3BB1022B6A
:10162000007A07BF0430C000023000017047282054
:1016300070472DE9F04F83B083468A4616464568C9
:10164000D5F80841406AFFF7E7FF8046284609F0D1
:101650006BFEDBF824509BF820904FF4967303FB4D
:1016600009594D452AD200235746221D019212E006
:101670001C46698801EBC101019B03EB81013246E5
:101680000431284600F0F2FD4644631CDBB205F548
:101690009675A94512D9AC794AFA04F212F0010FF5
:1016A000F5D09C42E4D947FA03F212F0010F18BFBB
:1016B00046440133DAB29442F5D8DAE7BBF8303069
:1016C00013B903B0BDE8F08F5846FFF7BBFDF8E74C
:1016D00053781A2B35D870B51A4C266800EB0010D9
:1016E000F56905EBC005EC781078A04200D070BD1C
:1016F00028799842FBD15388032BF8D9766929447D
:1017000091F827000134EC705388043BC0EBC00013
:101710000D4909685478023451F824409BB20432D0
:1017200006EBC0012846A0476A6D2B6D13606A6DF9
:101730005A6005F150032B656B652846FFF73CFEA8
:10174000D5E77047E80C0020E00C0020F8B54FF416
:10175000C06002F014FB494B1860002800F08C8038
:10176000E82002F00CFB0446454B1860054600607B
:10177000406041F2D04002F002FB00F5A652103268
:101780000560636843601860606000F23450904206
:10179000F6D1231D04F170013A4A43F8042F8B421D
:1017A000FBD1394BE360394B2361394B6361394BD2
:1017B0006366394BA366394BE366394B2367394B74
:1017C000E362394B2363394A6263A363E363384BB3
:1017D0002364384B636404F1700304F1DC01294A8B
:1017E00043F8042F8B42FBD1334BC4F8D030334B3A
:1017F000C4F8D430324BC4F8D830324AC4F8DC20B4
:10180000314AC4F89820C4F89C30304AC4F8A0206B
:10181000C4F8A430C4F8A8302D4BC4F8AC302D4B1C
:10182000C4F8B0302C4BC4F8E0302C4BC4F8E43092
:101830002B4B1B685A78FAB100244FF49677012697
:10184000274D0FE0A2B207FB02F2334602F57A728F
:1018500000215C3009F032FB2B6801345978A2B2C8
:10186000914209D9A0B200EB0010DB6903EBC00084
:101870004378002BF0D0E5E7F8BD00BFDC0C00207A
:10188000E00C002001060100AD0C0100590E010022
:101890000B06010055090100A5090100050A010018
:1018A000110601003D0A0100850A0100BD0A010080
:1018B0001306010015060100190601004506010086
:1018C000DD06010003060100C906010071060100E2
:1018D0000506010007060100090601003316010094
:1018E000E80C00207047704770477047704700232E
:1018F00080F86A3080F86E3080F86F3080F8693098
:1019000080F86830A0F86630A0F864300360704753
:10191000807B052804D00A2814BF002001207047CE
:1019200001207047036CC91A8163704770B5054682
:1019300000238362036203648363C363837B13B9FD
:10194000C372FF23437209F0ABFAC5F8DC00002331
:1019500085F8183185F829316C6C94B12E7AC6EB74
:10196000061604EB0616B4420BD21D4609F098FA8F
:10197000C4F8A00084F8DC5084F8ED50F034A6429E
:10198000F4D870BD10B504468B78012B09D1437C87
:1019900001334374122383730023C372FF23437202
:1019A00010BD0023837383690146586809F004FE63
:1019B0002046FFF7BBFFF3E710B504468B78012BF9
:1019C00009D1437C01334374112383730023C37211
:1019D000FF23437210BD0223837383690146586855
:1019E00009F0EAFD2046FFF7A1FFF3E710B5044632
:1019F0008B78013BDBB2012B11D80023C372FF238C
:101A0000437283695B681B780C4AD35C022B0CBF62
:101A1000112310238373437C0133437410BD836906
:101A20005A68127805498A5C82730146586809F041
:101A3000C3FD2046FFF77AFFF0E700BF380D002016
:101A400010B504468B78013BDBB2012B0FD8437CE9
:101A50000133DBB24374082B13D901238373FFF7DF
:101A600065FF40F63901204607F003F909E001233C
:101A7000837383690146586809F09EFD2046FFF78D
:101A800055FF10BD10B504468B78013BDBB2012B2E
:101A90000FD8437C0133DBB24374082B13D90223E4
:101AA0008373FFF743FF40F63901204607F0E1F862
:101AB00009E00223837383690146586809F07CFDBD
:101AC0002046FFF733FF10BD10B504468B78012B7D
:101AD0000FD1437C0133DBB24374082B13D90023AD
:101AE0008373FFF723FF40F63901204607F0C1F862
:101AF00009E00023837383690146586809F05CFD9F
:101B00002046FFF713FF10BD002380F8193180F83D
:101B10001A3180F81F3180F8203180F8223180F8A6
:101B2000233180F8243180F8253180F8273180F87E
:101B3000293180F82A3180F82B3180F81831436C34
:101B400023B3017AC1EB011103EB01118B421DD2CA
:101B5000002283F8DD2083F8DE2083F8E32083F879
:101B6000E42083F8E62083F8E72083F8E82083F870
:101B7000E92083F8EB2083F8ED2083F8EE2083F84A
:101B8000EF2083F8DC20F0339942E2D8704708B5A3
:101B900083695B68187801F0DDFF68B1437803F072
:101BA000FB02022A0AD0042B0AD0032A0AD0052BF2
:101BB00014BF0220012008BD0220FCE70020FAE744
:101BC0000020F8E70120F6E738B504468B78012BB2
:101BD00006D0637C0133DBB26374082B42D838BD76
:101BE0000D46417A2B788B42F3D16A78C37AB3EBF6
:101BF000D20FEED105238373002383636B680364E4
:101C0000036A426A13448362FFF7C1FF237B022BFE
:101C100007D002282CD0834204D020730023E36233
:101C200000E02073EB78002BD9D060B9A26AE36A98
:101C30001344E362236B13442363EB78052B0CD826
:101C40000A23A373CBE70128F7D1A26AE36A1344FE
:101C5000E362636B13446363EFE7072BBFD90B2386
:101C6000A373BCE740F63801204607F002F8B6E758
:101C7000EB78002BB3D0E0E738B504468B78012B26
:101C800004D10D46427A0B789A4205D040F63A01CB
:101C9000204606F0EEFF38BD4968FFF743FE236A91
:101CA000626A1344A362EB78002BF4D0617A204679
:101CB000FFF76DFF68B9E36AEA681344E362236BD8
:101CC000EA6813442363EB78052B0DD80A23A3732A
:101CD000E1E70128F7D1E36AEA681344E362636B42
:101CE000EA6813446363EEE7072B84BF0B23A373F7
:101CF000D1E738B504468B78012B0DD0437C0133F6
:101D0000DBB24374827B062A50D00C2A53D00723BF
:101D1000C3730823837338BD0D46036CB3B9836363
:101D20004B680364036A426A13448362417AFFF793
:101D30002EFF237B022B07D002280ED083420CD02B
:101D400020730023E36208E0207306E04968FFF790
:101D5000E9FD236A626A1344A362EB785BB9637C92
:101D60000133DBB26374082BD5D940F63901204624
:101D700006F07FFFCFE7617A2046FFF708FF50B9F2
:101D8000E36AEA681344E362236BEA68134423635B
:101D90000823A373BFE70128FAD1E36AEA68134472
:101DA000E362636BEA6813446363F1E740F63A0168
:101DB00006F05FFFAFE7082BADD940F6390106F01A
:101DC00058FFA8E738B504468B78012B0DD0437C2B
:101DD0000133DBB24374827B072A55D00D2A58D0D9
:101DE0000623C3730923837338BD0D46036CB3B94F
:101DF00083634B680364036A426A13448362417AD3
:101E0000FFF7C5FE237B022B07D002280ED08342AA
:101E10000CD020730023E36208E0207306E04968D9
:101E2000FFF780FD236A626A1344A362EB785BB913
:101E3000637C0133DBB26374082BD5D940F63901DA
:101E4000204606F016FFCFE7617A2046FFF79FFE97
:101E500078B9E36AEA681344E362236BEA681344DF
:101E60002363EB78072B04BF0623E3730923A373D3
:101E7000BAE70128F5D1E36AEA681344E362636BC9
:101E8000EA6813446363ECE740F63A0106F0F1FEBA
:101E9000AAE7082BA8D940F6390106F0EAFEA3E725
:101EA00070B50446FFF730FE0023A3622362A363EC
:101EB000E3632364667A751CEDB2A3695B681878E6
:101EC0001E4A125CAA422ED9294601F043FE6572D1
:101ED00043782374E3722A463146204609F0E8FA33
:101EE00038B10423A3730122E179A069FFF7ABF8AD
:101EF00022E0A3692146586809F05EFBA369627A73
:101F00002146586809F0F4FA38B90423A373012272
:101F1000E179A069FFF797F80EE00323A373204649
:101F2000FFF704FD08E02146184609F045FB0023B1
:101F3000A3732046FFF7FAFC70BD00BF3C0D0020E4
:101F4000012380F8B930436C002B36D070B48A6816
:101F5000C0F8CC200022C0F8D020C0F8D4200A69F4
:101F6000C0F8D8204A69C261CA6842624A7802F061
:101F700007024273CA78C27301F12004057AC5EBE7
:101F8000051503EB0515AB4215D2012683F87D60DC
:101F90008A68C3F89020DA7904EBC20054F8322042
:101FA000C3F894204268C3F898200A69C3F89C20BB
:101FB000F0339D42EAD870BC70478B68C0F8CC30D3
:101FC0000B69C0F8D0304B69C0F8D4308B69C0F8C9
:101FD000D830CB69C361CB6843624B7803F0070309
:101FE0004373CB78C3737047F0B401228274836962
:101FF0005C68B4F810311344A4F8103100230B705E
:10200000344B1B68847B234493F848304B70437AED
:102010008B70C37ACB70437B0B714A71C37BCB80CF
:10202000836BC26B13448B60D0F8D030CB60D0F898
:10203000D4300B61D0F8D8304B61C3698B61D0F8D4
:10204000CC30CB61836A0B62426C002A3FD0057AA8
:10205000C5EB051502EB0515AA4238D2483101241B
:102060001C4E01F8244C3368877B3B4493F848307E
:1020700001F8233C437A01F8223CC37A01F8213C61
:10208000437B01F8203C01F81F4CC37B21F81E3C28
:10209000836BC76B3B4441F81C3CD2F8943041F849
:1020A000183CD2F8983041F8143CD2F89C3041F8F2
:1020B000103CC36941F80C3CD2F8903041F8083C20
:1020C000836A41F8043CF03224319542C9D8F0BC0F
:1020D000704700BFE80C00202DE9F04104460F4690
:1020E00083695B68D3F80861438803EBC3034FEA55
:1020F000830806EB830303F10805837B052B24D0BB
:10210000A37C002B37D0A37B1A1FD2B2012A37D968
:10211000A3F10A02D2B2012A66D9033BDBB20A2B31
:102120003ED840F2196222FA03F313F0010F37D0C0
:10213000A3695B681B784C4AD35C022B03D0002F49
:1021400014BF02230123A3732AE0417AFFF71FFD86
:1021500038B9A26AE36A1344E362236B134423632E
:10216000CEE70128CCD1A26AE36A1344E362636B31
:1021700013446363C4E729462046FFF735FFC2E7EF
:10218000A06943681B78384AD35C022B2AD0002F01
:1021900014BF11231023A3730022E179FEF753FF2C
:1021A00006EB0803DA892AB1B4F8B61001F47F41CE
:1021B0008A4202D2B4F8B620DA815A7A043AD2B20C
:1021C000012A9CBF06225A72636C002B3FD005F196
:1021D0002401257AC5EB051503EB0515AB4236D274
:1021E00006261DE01123D6E7A3695B681B781E4A0B
:1021F000D35C022B05D0002F14BF11231023A3732F
:10220000CEE71123FBE7B3F87A20CA804A78043A74
:10221000D2B2012A98BF4E70F03324319D4216D9B4
:10222000B3F87A202AB1B4F8B60000F47F408242B5
:1022300003D2B4F8B620A3F87A20CA88002AE2D0E4
:10224000B3F87A0000F47F408242DFD2DBE7A36973
:102250002146586809F0B0F90023A3622362A36302
:10226000E363BDE8F08100BF380D002070B504467F
:102270000E4615461146FFF763FE0E4B1B68A27B08
:1022800053F8223029462046984731462046FFF72A
:10229000ABFEA3695B68DB791BB9A37B0A2B04D077
:1022A00070BD204608F0A3FDF7E72046FFF7F8FDD4
:1022B000F6E700BFE40C002008B54C2001F05FFDFC
:1022C000154B1860031F00F15401144A43F8042F02
:1022D0008B42FBD1124B0360124B4360124B836065
:1022E000124BC360124B0361124B4361124A82616D
:1022F000124BC36112490162124941620263436396
:102300008263C363104BC362104B0364104B43647E
:10231000104B836408BD00BFE40C0020E5180100E9
:10232000E7180100E9180100EB180100ED180100A1
:10233000C91B0100791C0100F31C0100C51D01002F
:1023400085190100B9190100ED190100411A0100B8
:10235000851A0100C91A010038B50CF07DF8002873
:1023600079D03D4B196891F842203C4B1A7091F896
:1023700043303B4A137091F844003A4A107091F888
:102380004540394A147091F84740384A147091F822
:102390004640374A147000FB03F091F8484038B1CA
:1023A0000022344DA318AB54531CDAB28242F9D345
:1023B00091F84900304B187058B12E4B2F4A5C1CD5
:1023C000013854FA80F413F8010B02F8010BA34210
:1023D000F9D10A6D2A4B1A604A6D2A4B1A6091F89E
:1023E0004A20294B1A8091F84B20284B1A7091F8FB
:1023F0006020274B1A7091F85940264B1C7091F8B9
:102400005A304CB1244A1C44E4B218460133DBB2C2
:1024100002F8010BA342F8D191F85B201F4B1A8000
:102420001F4B00221A7091F85F201E4B1A7091F812
:102430005E201D4B1A7091F85C201C4B1A7091F8AD
:102440005D201B4B1A7091F858201A4B1A7091F8A6
:102450004C20194B1A7038BD2C0B0020A40800200A
:10246000900800209108002087080020880800209C
:102470007408002030080020510800205408002073
:10248000B00800207C0800208A08002050080020A6
:10249000DE0B0020DF0B0020940800208C080020B9
:1024A000E00B00208E0800208F08002092080020FA
:1024B00093080020E10B0020DD0B00202DE9F04700
:1024C00090F8B4E0BEF1000F40F0C180036942789B
:1024D000C2EBC20203EBC202934280F0CC81AF4C4C
:1024E000247883F8204038339A42FAD80B88C3B155
:1024F000AA4B1D780024A3B201EB43039B8893FBF6
:10250000F5F3DBB2C3EBC303026902EBC30393F839
:102510002020013A83F8202001340A88A3B29A428D
:10252000E9D8426903694578C5EBC50503EBC505E4
:10253000AB4209D24FF496765A6293F8204006FBDC
:10254000042238339D42F7D8D0F810C04389FBB13C
:10255000754600244FF49678F146A2B208FB02F6C5
:102560004769BB19BA535A809A80C3F818C06A1CCD
:10257000D2B2DD719D719CF82030934206BF0CF100
:10258000380C4D46154601344289A3B29A42E4D82C
:1025900004690B88002B4AD0804B93F800C0754625
:1025A00000274FF4967604E001370A88BBB29A42BE
:1025B0003DD91FFA87F901EB49039B8893FBFCFA8D
:1025C0000CFB1A32A0465FFA8AF4C4EBC40A046911
:1025D00004EBCA04444518BF7546D4F82480521B46
:1025E00006FB028294F820A006FB0A8A524509D213
:1025F00092F8068008F1010882F8068002F59672CA
:102600009245F5D80135EDB24269A3EB090306FB0B
:102610000323B0F80A8006FB08284345C4D29A88F1
:1026200001329A8003F596739845F8D8BCE70369A0
:102630004178C1EBC10103EBC1018B4205D293F894
:1026400020209A7238339942F9D8BDE8F087426960
:1026500003694478C4EBC40403EBC404A3420CD262
:102660004E4D2E784FF4967505FB06F583F82060E5
:102670005A622A4438339C42F8D8D0F810C04389B3
:10268000002B00F0FD80002425464FF49679DFF8FA
:102690001081A646A2B209FB02F64769BB19BA53DC
:1026A0005A8098F800201A72A3F804E0C3F818C002
:1026B0006A1CD2B2DD719D719CF82030934206BF36
:1026C0000CF1380C7546154601344289A3B29A4282
:1026D000E0D80B88ABB1324B1E7800224FF49675D0
:1026E00093B201EB43039B8893FBF6F3446905FB2C
:1026F00003431C7A013C1C7201320C8893B29C4249
:10270000EED88469426946894FF4967303FB062626
:10271000B24211D2234F54648369E31A1B115588C6
:1027200007FB03535380137AC3EB031304EB031427
:1027300002F596729642EED84669838913B3002556
:102740002C46AC46AAB2C2EB02134FEA031E8769BD
:1027500007EB031327F80E209A809E6072882244AC
:1027600001325A80621CD2B29C71DC71337A93427E
:1027700006BF06F596766446144601358289ABB2EB
:102780009A42DFD844690B88002B52D0044B1F7843
:10279000002635464FF4967C22E000BF87080020D3
:1027A00088080020EFEEEEEE0135EDB28269A3EB72
:1027B0000903C3EB031302EB0313B0F80CE0CEEBF9
:1027C0000E1E02EB0E1E734505D29A8801329A80C6
:1027D000F0339E45F9D801360A88B3B29A4228D917
:1027E0001FFA86F901EB49039B8893FBF7FE07FB71
:1027F0001E32A04644690CFB0E44444518BF002518
:10280000D4F84480521BC2EB021208EB021294F877
:1028100008E0CEEB0E1E08EB0E184245C4D292F82B
:1028200007E00EF1010E82F807E0F0329045F6D88D
:10283000BAE701694578C5EBC50501EBC505A942B5
:10284000BFF403AF00274FF4967603E038318D4292
:102850007FF6FBAE8F724B6A91F8204006FB043482
:10286000A342F3D28A7A187A02448A7203F59673E5
:102870009C42F7D8EAE70B88002B7FF439AE63E679
:102880000B88002B7FF427AF56E700BF2DE9F04FF0
:102890008DB0C44B1A780192C34B1B7813FB02F323
:1028A000DCB222460994C14B1B7803FB02F208926A
:1028B000BF4B1B78002B00F02B81BE4B1B7813FB0A
:1028C00002F39BB20B930693BB4B1F78A7422CBF1E
:1028D0000123022307934FF4BE7001F050FA8346A0
:1028E000B64B18600023A0F85C300423A0F88030B9
:1028F0000322A0F884200822A0F886200F21A0F847
:1029000088101421A0F88A10A0F8A4200122A0F8B1
:10291000A820A0F8AA300723A0F8AC300A23A0F81A
:10292000AE300D23A0F8B0301023A0F8B23013233E
:10293000A0F8B4301623A0F8B630A14B1B78022BB8
:1029400002D99F4B00221A709D4B1E78059606EB0C
:10295000C6030BEB83035C330A9301228BF84820F8
:1029600002208BF8490003258BF84A5004238BF88A
:102970004B3005218BF84C108BF854108BF8551008
:102980008BF856308BF8573006238BF84D308BF888
:102990004E308BF84F308BF850308BF851308BF82D
:1029A00053308BF852308BF858008BF859508BF815
:1029B0005A207C490B788BF80030079B8BF801304C
:1029C0008BF802007F4B1B78003B18BF01238BF86C
:1029D00006308BF807207C4B1B78069A13FB02F31A
:1029E000ABF808300B78794A127813FB02F38BF8B6
:1029F0000A30774B1B788BF80330764B1B788BF8BB
:102A000004308BF8053040F6CC20019B00FB03F02E
:102A100001F0B5F9CBF81800C4EBC40404FA05F0D2
:102A200001F0ADF9CBF81400614B1B78002B74D189
:102A300006EBC6030BEB8303B3F85C30594A1278FC
:102A4000089902FB13134FF4967000FB03F001F09A
:102A500096F9CBF81000079B03EB0310C00001F0C0
:102A60008EF9CBF81C00D82001F089F9CBF82000B2
:102A7000BBF80800013020F001000004000C400009
:102A800001F07DF9CBF82800BBF8083063B10023D2
:102A9000184699B2DBF8282022F811000133BBF860
:102AA00008109AB29142F4D89BF80A00013000F461
:102AB000FF70400001F063F9CBF82C009BF80A305E
:102AC00063B10023184699B2DBF82C2022F81100DC
:102AD00001339BF80A109AB29142F4D80023CBF844
:102AE0000C30334B1B7813BB0023CBF824303A4B0C
:102AF000187880BBBDF804300493002B00F0DD8211
:102B00004FF0000A4FF0010956465F46D046BBE041
:102B1000089B069300230B93D6E64FF49670089B10
:102B200000FB03F001F02BF9CBF8100093E7059BB5
:102B300003EBC3030BEB8303B3F85C00194B1B7867
:102B40000B9A03FB1020C0EB0010000101F017F9F5
:102B5000CBF80C00C8E700EB8000800001F00FF913
:102B6000CBF82400C6E76278104B1B7802FB03F316
:102B700033E1104A127812FB03F2059800EBC00013
:102B800007EB8000B0F85C00121A92B2A2811344E5
:102B9000E38101FB02F2C2EB0212FB6803EB0212BB
:102BA000A2612BE1900800209108002087080020F6
:102BB000A40800208808002051080020E80C00200C
:102BC000DD0B0020800800209208002093080020E0
:102BD000DE0B0020E10B0020DF0B0020A18902FBAF
:102BE00001F201324FF6FE710A4001330B401344EB
:102BF000E28902EBC20203EB420310335B00A4F84C
:102C0000E030044B1B68C4F8FC30034B1B68C4F86D
:102C10000C317DE1A8080020AC080020B3FBF1F0E6
:102C200022790244D2B201FB10339BB2002B00F098
:102C300008820132227184F88C6094F8B430002B41
:102C400040F0018284F88D9084F89090022384F8FB
:102C5000913084F8949084F8956084F89860062305
:102C600084F8993084F89C60042384F89D3084F8BB
:102C7000A0600B2384F8A13008F101031FFA83F848
:102C8000049B984580F0E68140F6CC2303FB08FACC
:102C9000B969039101EB0A04D54B1B68C4F8AC3049
:102CA000D44B1B68C4F8B030D34B1B7884F8B430D5
:102CB000D24B1B7884F8B530D14B1B7884F8B630F2
:102CC000D04B1B7884F8B730CF4A137884F8B830EB
:102CD00084F8B990CD4B1B7884F8BA3001F80A809B
:102CE000CB4B1B7863706672E67104F68421C4F8DE
:102CF000841AC4F8881A04F69821C4F8981AC4F8FB
:102D00009C1A04F6AC21C4F8AC1AC4F8B01A04F545
:102D10002C61C4F8C01AC4F8C41A04F52761C4F8B9
:102D2000701AC4F8741A2672157805FB03F5E800CA
:102D300001F025F8C4F8A40095B10023D4F8A4202C
:102D400022F83330D4F8A42002EBC3029670D4F8F2
:102D5000A42002EBC302D67001339AB29542EDD89B
:102D6000AB4B1D78A74B1B7805FB03F5E80001F082
:102D700006F8C4F8A80095B10023D4F8A82022F8DA
:102D80003330D4F8A82002EBC3029670D4F8A82000
:102D900002EBC302D67001339AB29542EDD8414698
:102DA0009B4B1B7808FB03F3C3EBC3037A6902EB6D
:102DB000C3032361904B1B78002B7FF4D4AE637860
:102DC0008E4A127813FB02F3059A02EBC20207EB5C
:102DD0008202B2F85C209B1A9BB2638101FB03F272
:102DE00038694FF4967505FB0202626194F8B420CD
:102DF000002A7FF4BEAEA381E381A661854B1A78D9
:102E000084F87820844B1B7884F8793006980290F7
:102E100000FB01F5019895FBF0F502FB05F5B86A9A
:102E200000EB4500C4F8800003FB01F1F86A00EBF9
:102E30004101C4F884104FF0030184F85C100421B0
:102E400084F85D104FF0050084F85E004FF0060E28
:102E500084F85FE04FF0070C84F860C04FF009057C
:102E600084F861500A2584F862500B2084F86300CE
:102E70000C2184F864104FF00D0B84F865B04FF00E
:102E80000E0B84F866B04FF0100B84F867B04FF06B
:102E90000F0B84F868B084F86C6084F86D904FF084
:102EA000030B84F86EB04FF0050B84F86FB084F814
:102EB00070E084F871C04FF0080C84F872C04FF0D5
:102EC000090C84F873C084F8745084F8750084F891
:102ED000761084F87A6084F8DC6084F8DF6084F827
:102EE000DE6084F8DD6084F813614C4909688979F3
:102EF00001293FF473AE013303F4FF731A335B000F
:102F0000A4F8E030464B1B68C4F8FC30C4F80C3120
:102F1000C4F8E460C4F8E860D4F8FC30013BC4F8BD
:102F2000EC30B4F8E030A4F8E230C4F8F060C4F853
:102F3000F860C4F8F460D4F80C0100FB03F000F072
:102F40001EFFC4F80001C4F80801D4F80C31013B9D
:102F5000B4F8E02002FB0303C4F8043184F8BC6039
:102F600084F8BD60A4F8BE60A4F8C060A4F8C26094
:102F7000A4F8C46004F58A7005F07EFB84F8626AE8
:102F800084F85E6A84F8636A84F8566A84F8586A3A
:102F9000C4F8FC69C4F8186AC4F81C6AC4F8206A4A
:102FA000C4F80C6AC4F8106AC4F8146A2671667111
:102FB0001C4B1B78002B3FF43EAE029B019A93FB07
:102FC000F2F3144A127812FB03F39BB2039A12F83D
:102FD0000A2012FB03F290B2134A1188B0FBF1F2FF
:102FE000627101FB120292B2002A3FF417AE1DE09B
:102FF000B00800207C080020A408002087080020DA
:1030000074080020DC0B00205008002088080020F5
:10301000910800209208002093080020E80C00206E
:1030200078080020DF0B00208A08002084F8049034
:10303000881A80B283427FF6FEAD5B1A13449BB2BE
:10304000ECE52271F7E5012B0CBF0223032384F882
:103050008D30F9E58E4B1B689A69D2F8FC30B2F8D6
:10306000E0208C49097801980FF0B0FC4FF000097E
:10307000C8464FF0010A0197DDF810B035E2013D76
:10308000B4F8E030F61AD4F80031B34200F02482EC
:1030900094F8DC3023B9D4F8E430AB42C0F01C82A1
:1030A00033465246294638460FF046F9002DE6D100
:1030B000D4F8EC50E4E7DDF804B0BDF81C7000254E
:1030C0002E462C46FF21DBF81C3058195E55C47083
:1030D00044718471447000F1260300F1460203F844
:1030E000011F9A42FBD100F150030365436500F1D3
:1030F000700303674367847000F178038367C367D5
:10310000C0F8804000F16403436683660136883569
:10311000B3B2BB42D7D3099B002B7BD0DFF884C16D
:103120000026354640F6CC2E3446994601971AE0E3
:10313000574558D9D470DBF81C30E9B21CF8010CA3
:10314000034483F82710DBF81C305878471C5F7065
:103150000344D97102F128039362D36201353836F2
:10316000ABB2994555D9DBF8140082194A4B1F7848
:1031700095FBF7F1DBF818300EFB0133536007FBCA
:10318000115181551CF8011B517093F8B410517303
:103190001472547414749474D474147593F8B51030
:1031A0005172D3F8B010D161D3F8AC10916193F89B
:1031B000B710917393F8B810D173147393F8B630B5
:1031C000D3729470354B1F786FB1354900231FFAC5
:1031D00085F81FFA83FA11F8010B4045A8D0013396
:1031E00098B28742F5D84FF00103D370DBF81C305A
:1031F000E9B21CF8010C034483F8AF10DBF81C3073
:1032000093F88900471C83F88970034483F88F1072
:10321000A0E7019F791E89B2013101EB0111C900BC
:103220000022DBF81C3013445878987088329142A1
:10323000F7D1049BC3B3013B9BB240F6CC2503FB03
:10324000055500240126022705E08CF8027004F6DB
:10325000CC24AC4228D0DBF8183003EB040C8CF8FB
:1032600002609CF801100129F1D9DCF81020D07817
:103270001346023989B2C1EBC101383202EBC101F8
:1032800093F83B208242E0D138339942F8D1DEE70F
:10329000E80C00208608002091080020510800203A
:1032A000540800203008002008988146059901EB59
:1032B000C1030BEB8303B3F85C309A4A127802FB2C
:1032C0001303002B29DD00254FF4967801EBC1068E
:1032D0000BEB8606934FDBF8104008FB054404F126
:1032E0005000FEF704FB0023A3736374237263642E
:1032F000E3742375A36263622362E362E361A36301
:10330000E3632364A374E3720135ADB2B6F85C30B5
:103310003A7802FB13939D42DDDB834B1B783BB372
:103320000B980546059901EBC1030BEB8303B3F83A
:103330005C307C4A127802FB1303002B18DD00245A
:1033400001EBC1060BEB8606764FC4EB0412DBF8EB
:103350000C3003EB021303F11400FEF7C8FA01343A
:10336000A4B2B6F85C303A7802FB13539C42ECDB13
:10337000049B8BB1013B9BB240F6CC2503FB05556A
:1033800000240A9EDBF8180031462044FFF796F827
:1033900004F6CC24AC42F5D1DBF8203000221A70C0
:1033A0005A709A6603F160011966596603F140018B
:1033B0001964596403F154015965996503219970A1
:1033C000DBF82030012083F86C0083F86D20C3F80F
:1033D000D42003F1CC02C3F8CC20C3F8D02003F1F1
:1033E000AC02C3F8AC20C3F8B02003F1C002C3F8AC
:1033F000C020C3F8C42083F86E104C4B1A789BF899
:103400000430DBF820106C2000FB03131A71002A33
:1034100045D000221646DFF82891DFF82881DFF832
:1034200028E1DFF828C191B201EB8105DBF82440E7
:1034300004EB85033E48405C58709870D0B204F8A5
:103440002500DE701E71B9F800409C7198F800509C
:10345000DD719EF800501D72364F97F800A083F87A
:1034600009A015FB00F59D7212FB04F49C81BCF8C9
:103470000040DC811E82304C24789C749BF8043020
:10348000DBF820406C2505FB0343294C615C0B44B1
:1034900018720132254B197893B29942C3D80BF1B7
:1034A0003C03CBF83C30CBF8403000200DB0BDE8F9
:1034B000F08F4FF0000384F81231D4F8E4507DBB54
:1034C000D4F8EC50D4F80461D4F800319E427FF473
:1034D000DFAD01E084F812A108F1010809F6CC295A
:1034E0001FFA88F39B457FF6E6AD144B1B689C6979
:1034F0004C445FFA88F704F1E80204F1E40138462D
:103500000EF006FF84F8DC000028D2D1D4F8E430B5
:10351000002BDFD04FF0000384F81231D4F8E450D0
:10352000013DCFE790080020A4080020DF0B002019
:10353000940800208F080020E10B0020E80C0020F8
:103540008A080020E00B00208E0800208C08002054
:1035500010B584B0104B6C460FCB84E80F00FEF71B
:10356000FBFE0421204600F0D7FE07F025FDFFF703
:103570008DF904F045F803F07FFE084B187800F051
:1035800031FBFEF7E3F808F0F1FD04F02BFFFEF746
:1035900093FE04B010BD00BFB83B020090080020AD
:1035A000034B1B6803EB8003D3F8DC00704700BFBC
:1035B000FC0C002070B506460C460C2000F046FCC2
:1035C000054608B3002383603CB9144B186800EB30
:1035D0008600C0F8DC50284670BD600000F036FC64
:1035E0000446A8600028F0D1284600F053FC0C4B9C
:1035F0001B78052B01D92546EDE70A4A0A490B48F5
:1036000003F0C2FF2546E6E7054B1B78052BE2D801
:10361000044A0749054803F0B7FFDCE7FC0C00202B
:10362000B40800204C3C0200C83B0200D83B02001A
:10363000E03B020038B50B4B1B6803EB8003D3F86B
:10364000DC5075B10446A86808B100F023FC284698
:1036500000F020FC034B1868363400EB8404002390
:10366000636038BDFC0C002038B504460078574B29
:103670001B6803EB8003D3F8DC20002A37D0938843
:10368000A178994240F08580E1780B449BB2938009
:1036900052889A4200F08280A3787BB3E278217846
:1036A0004B4B585C131803EBC3039B00B3F5406FFF
:1036B00080F0888000EBC000464B53F8213002EBCD
:1036C000C202A188013121F001010904090C043171
:1036D000920004EB410103EB80000FF047FD2278DC
:1036E0003B498B5CE07803448B54002038BDA378C1
:1036F000002B61D1E27863789A4229D323780025A0
:10370000334AD5542378344AD554344B1B68207837
:103710009B6940F6CC2202FB003020222946BC30B7
:103720000FF031FD22782E4B23F812506378002BD6
:10373000B4D02B462B4D18462278D9B255F822200A
:1037400002F8310001336178DAB29142F4D8A5E78A
:10375000A188FFF72FFF0546002830D0224B1B78A9
:10376000032B10D901232B8063786B80E378AB8027
:10377000A288EA80002A8FD0520004F10801A868CC
:103780000FF0F4FC88E7194A19491A4803F0FCFEC7
:10379000E8E7FFF74FFF40F21710A7E72078FFF7A1
:1037A00049FF114B1B78032B3FF676AF0F4A1249A6
:1037B000104803F0E9FE6FE740F2151096E74FF46A
:1037C000847093E74FF4837090E700BFFC0C0020F7
:1037D0003C0D00202C0D0020EC0C0020E80C0020FB
:1037E000240D0020000D0020B40800205C3C0200E5
:1037F000F43B0200083C0200103C0200F8B505460C
:1038000000784D4B1B6803EB8003D3F8DC20002AC3
:1038100043D09388A98899426BD1E9880B449BB225
:10382000938052889A4269D0AB88002B3CD0EA88BA
:1038300095F800C0414B13F80C00131803EBC303B9
:103840009B00B3F5406F73D205F108016E785EB14D
:1038500000244FF6FC770B8803333B4004331944B4
:103860000134A3B2B342F6D300EBC000344B53F89B
:103870002C3002EBC202920003EB80000FF076FCCA
:1038800029782E4B5A5CA87902445A542878195C3E
:103890006B888B423FD00020F8BDAB88002B41D114
:1038A000EA886B889A4210D32B780021234AD1549E
:1038B000244B1B6828789B6940F6CC2202FB003021
:1038C0002022BC300FF05FFCB1E70021FFF772FE51
:1038D00058B3022202806A884280EA8882801A4BAA
:1038E0001B78032BA0D8194A19491A4803F04CFE3B
:1038F0009AE7FFF79FFE40F21710CDE72878FFF711
:1039000099FE114B1B78032B8ED8104A124911488F
:1039100003F03AFE88E70A4B53F8202004F0F4FF46
:103920000020B9E74FF48B70B6E74FF48470B3E72B
:103930004FF48370B0E700BFFC0C0020EC0C0020BB
:10394000F00C0020E80C0020B4080020683C0200C5
:10395000243C0200083C0200103C0200F8B504467A
:103960000078704B1B6803EB8003D3F8DC20002A3F
:1039700043D09388A188994268D1E1880B449BB2D7
:10398000938052889A4266D0A38823B92278664BE6
:10399000002123F81210E2882178634B33F81100DC
:1039A000131803EBC3039B00B3F5005F80F0B480F2
:1039B00000EBC0005D4B53F8213002EBC2022189BD
:1039C000013121F001010904090C0631920004EBD8
:1039D000410103EB80000FF0C9FB2178524B33F813
:1039E0001120E088024423F811202278618833F8FE
:1039F00012308B423CD00020F8BDA388002B40F051
:103A00008580E28863889A42C0D22189FFF7D2FD7F
:103A1000054600287DD0464B1B78032B10D9032385
:103A20002B8063886B80E388AB802289EA80002A40
:103A3000AAD0520004F10C01A8680FF097FBA3E78D
:103A40003C4A3D493D4803F09FFDE8E7FFF7F2FDA2
:103A500040F21710D0E72078FFF7ECFD344B1B78CD
:103A6000032B91D8334A3649344803F08DFD8BE758
:103A70002E4B53F8223001EBC10103EB81018B4245
:103A80004DD2DFF8CCC04FF0030E23E0DA7812F00D
:103A9000010213D05968002908BF02222178294861
:103AA0004254DA7812F0040F227819BFD968264BF5
:103AB000254B264943F8221000209DE72278214912
:103AC00002208854EDE7D86890801869D0802433AC
:103AD000994219D91A88B2F5A06FD7D0B2F5806F84
:103AE000F5D122789D785CF8220000EBC5021E79A2
:103AF00000F83560B3F908705780042EE3D1002F29
:103B0000E1D100F835E0DEE7002075E74FF48B7077
:103B100072E74FF484706FE74FF483706CE7002016
:103B20006AE700BFFC0C0020240D0020180D0020C7
:103B3000B4080020783C0200383C0200083C020037
:103B4000103C0200380D00200C0D002000EE85FF17
:103B5000000D0020064B1B5C8B4207D901EBC10115
:103B6000044B53F8200000EB8100704700207047A1
:103B70003C0D00202C0D002008B5FFF7EBFF90B1A5
:103B80004378012B12D0023BDBB2012B05D983789D
:103B900013F0100F10D0406908BD837813F0080FA0
:103BA00007D00069F8E74FF0FF30F5E74FF0FF303E
:103BB000F2E74FF0FF30EFE74FF0FF30ECE708B5EA
:103BC000FFF7C8FF60B102464378012B06D0023BE5
:103BD000DBB2012B94BF8068D06808BD4068FCE769
:103BE0000020FAE72DE9F04F85B00446E82000F008
:103BF000C6F8324B186000285BD0002C5BD000F177
:103C0000DC02631EDBB29B0003F1E00108440021EB
:103C100042F8041B8242FBD1294E2A4CDFF8B8B08F
:103C2000DFF8B8A0DFF8B890DFF8B880264F274A51
:103C30000192274A0292321DD31803934FF4406039
:103C400000F09DF846F8040B4FF4C06000F097F8C0
:103C500044F8040B0023A72154F8042C1A44517093
:103C60000833B3F5F07FF7D100250BF8015B4FF473
:103C7000406000F084F84AF8040B09F8015B4FF447
:103C8000005000F07CF848F8040B27F8025B022390
:103C9000019A02F8013B0192029B1A460D4B42F831
:103CA000043B0292039B9E42C8D1284605B0BDE862
:103CB000F08F0120FAE72046F8E700BFFC0C002057
:103CC0002C0D0020000D0020240D0020380D0020B8
:103CD0000C0D002000EE85FF3C0D0020F00C0020B4
:103CE000EC0C0020180D00208388C2889A4201D86D
:103CF0000120704710B402685C1C8480D1540020FD
:103D00005DF8044B704783880BB900207047026848
:103D1000013B9BB28380D35C0B7001207047E1B103
:103D200030B404464B1E9BB20133C1184FF6FF70EE
:103D300008254AF2010201E08C4211D014F8013B3F
:103D400058402B4610F0010F14BF82EA5000400883
:103D5000013B13F0FF03F5D1EEE74FF6FF7070471C
:103D600030BC7047520801EB4202914206D2023841
:103D700031F8023B20F8023F8A42F9D8704738B543
:103D800060B10546014603200AF0B2FF044618B1AF
:103D90002A4600210FF0F7F9204638BD0024FBE742
:103DA0002DE9F04102EB82039C0001EB82084145C2
:103DB0001BD207460E460B1DCD43454425F0030597
:103DC00001F108021544204633F8042C0C3233F874
:103DD000021C01FB02000433AB42F5D1FFF7CFFF19
:103DE000024600282FD013190AE02046FFF7C7FF2C
:103DF000B0FA80F0400924E004361432B0451FD9EF
:103E0000318811827188518202F108059560D56070
:103E100052601760796851600A607A60108A0C30CD
:103E2000518A00FB01319942E6D99D605B601D60BB
:103E3000D4685C602360D36003449942F5D8DBE723
:103E40000020BDE8F0810120FBE7FFFF104B1A685E
:103E50009A421AD070B41E4602E01268B24211D0E3
:103E6000138A8342F9D3114651F8083F5D681C68F4
:103E70002C605D6865601B605B608B42EDD003F178
:103E80000C0000E0002070BC70470020704700BFAD
:103E9000400D002050F8043C40F80C3C5A6840F8B3
:103EA000082CA0F10C03136050F8042C53607047E9
:103EB00070B504460820FFF7C9FF054640B120460B
:103EC000FFF7C4FF0646286020B10023AB80EC80DA
:103ED000284670BD2846FFF7DDFF3546F8E7A8B154
:103EE00070B50646006804683546B0420AD042689C
:103EF0000368136042685A60FFF7CCFF20462468CD
:103F00008542F4D13046FFF7C5FF70BD70472DE9FB
:103F1000F04F83B005460F460C20FFF797FF804611
:103F2000002847D08346C8F80000C8F8040095F977
:103F30000030002B42D00026B246019612E076B146
:103F400084F800A0019E0AE04046FFF7C8FFB04693
:103F500030E0A1451ED995F9003004F8013B15F970
:103F6000013FEBB19F42EAD0002EF2D14FF48470B2
:103F7000FFF76CFF06460028E6D000F1080400F2C7
:103F80000719C0F800B0D8F8043043601860C8F8CA
:103F90000400DEE74046FFF7A2FF4FF0000809E00B
:103FA000D8F800309B4509D000232370D8F80030A2
:103FB000C8F80830404603B0BDE8F08F4046FFF730
:103FC00069FF4FF00008F5E7034630B1806898427A
:103FD00004D050F8082B9A60704770470020704753
:103FE00070B490F90020302A1AD0A2F13003DBB26D
:103FF000092B13D8002303EB830302EB4303303B6D
:1040000010F9012FA2F13004E4B2092CF3D990F990
:1040100000205ABB0B60002070BC70470023F6E7FD
:1040200090F9013023F02003582BE3D1861C0023A4
:1040300007E0A5F16104E4B2052C0FD802EB0313ED
:10404000613B304616F9012BD5B2A5F13004E4B23C
:10405000092CEED802EB0313303BF2E7413DEDB201
:10406000052DD4D802EB0313413BEAE70120D3E747
:104070002DE9F04F85B00546884691461C460193D0
:104080000E9F4FF48070FFF713FF002800F0CD80E3
:104090000646454580F09C804FF0280A4FF0000B03
:1040A00009E00135A74240F2B28004F8013B013536
:1040B000A84540F294802A78A2F13003DBB2092BA4
:1040C00013D86A78303AD2B2092AEBD803EB8303CB
:1040D00002EB4303DBB2AA78303AD2B2092A40F2AB
:1040E00094804B45DDD3012568E0282A07D0292A92
:1040F0000DD07C2A31D0262A50D001255EE05146D1
:104100003046FFF7F1FD0028D1D0012556E08DF8AB
:104110000FB00DF10F013046FFF7F5FD48B19DF8E6
:104120000F30282BC3D0BC4273D2803B04F8013B34
:10413000EFE79DF80F30282BB9D001253EE051461E
:104140003046FFF7D1FD002865D129783046FFF7CA
:10415000CBFD0028ABD0012530E00DF10F0130463A
:10416000FFF7D1FD0028F0D09DF80F30282BE6D0C6
:10417000BC4252D2803B04F8013BEEE73046FFF7E9
:10418000B3FD00284BD129783046FFF7ADFD00285C
:104190008DD0012512E0803904F8011B0DF10F01CB
:1041A0003046FFF7B0FD0028EDD09DF80F1028290C
:1041B000E4D07C29E2D0BC42EDD301253068FFF782
:1041C00069FE3046FFF766FE284605B0BDE8F08F71
:1041D000019C04E0BC4224D2803B04F8013B0DF179
:1041E0000F013046FFF78FFD054638B19DF80F30BF
:1041F000262BEFD07C2BEDD00125DFE7019B9C42E5
:1042000011D0E41A0F9B1C70D8E70125D6E70125D1
:10421000D4E70125D2E70125D0E70125CEE7012526
:10422000CCE70125CAE70125C8E70125CCE72DE940
:10423000F04782B004460E46174698464FF4807009
:10424000FFF736FE002865D005462644B44242D228
:10425000013C013E4FF0000917E09DF807303BB1EB
:104260009DF80630003B18BF01238DF8073029E088
:104270004B46FAE727FA01F101F001012846FFF762
:1042800033FD002844D1B44225D00134217880295F
:10429000F0D90DF106012846FFF735FDA0B30DF169
:1042A00007012846FFF72FFD80B32378A62BD4D033
:1042B0009DF807209DF80630134314BF0123002307
:1042C0008DF807309DF807102846FFF70DFD0028F0
:1042D000D9D0012405E041462846FFF714FD50B926
:1042E00001242868FFF7D6FD2846FFF7D3FD2046B6
:1042F00002B0BDE8F0870DF107012846FFF703FD86
:10430000041E18BF0124ECE70124EAE70124E8E7D2
:104310000124E6E70124EAE708B5074B1B605B6070
:1043200040B10A4601461846FFF73AFD003818BF6B
:10433000012008BD0020FCE7400D0020012070474F
:104340008B78012B01D0012070474868B0F57A7F47
:10435000ACBF0020012070478B780F2B01D00120CB
:1043600070474B68002B15DD10B40C4A14680278B6
:10437000A06940F6CC2404FB0202D2F8B02093429C
:104380000AD28868B0F57A7FACBF002001205DF8C2
:10439000044B7047012070470120F8E7E80C00202B
:1043A0008B780F2B01D0012070474B68002B15DD57
:1043B00010B40C4A14680278A06940F6CC2404FBBF
:1043C0000202D2F8B02093420AD28868B0F57A7F10
:1043D000ACBF002001205DF8044B704701207047FE
:1043E0000120F8E7E80C00208B781F2B01D001207A
:1043F00070474B68002B1ADD10B4124A146802781B
:10440000A06940F6CC2404FB0202D2F8B00083423B
:104410000FD28B68002B10DDD2F8AC2093420ED265
:10442000C868B0F57A7FACBF0020012002E001200F
:10443000704701205DF8044B70470120FAE7012026
:10444000F8E700BFE80C00208B781F2B01D001207B
:1044500070474B68002B1ADD10B4124A14680278BA
:10446000A06940F6CC2404FB0202D2F8B0008342DB
:104470000FD28B68002B10DDD2F8AC2093420ED205
:10448000C868B0F57A7FACBF0020012002E00120AF
:10449000704701205DF8044B70470120FAE70120C6
:1044A000F8E700BFE80C00208B7803F01E021E2AFC
:1044B00001D0012070478A68002A1DDD30B4114CFC
:1044C00025680478A86940F6CC2505FB0404D4F8D7
:1044D000AC00824212D213F0010006D04B68002BD0
:1044E0000DDDD4F8B020934209D2C868B0F57A7FC8
:1044F000ACBF0020012002E001207047012030BC49
:10450000704700BFE80C00208B7803F01E021E2AC3
:1045100001D0012070478A68002A1DDD30B4114C9B
:1045200025680478A86940F6CC2505FB0404D4F876
:10453000AC00824212D213F0010006D04B68002B6F
:104540000DDDD4F8B020934209D2C868B0F57A7F67
:10455000ACBF0020012002E001207047012030BCE8
:10456000704700BFE80C0020002070470020704713
:104570007047FFFF08B503460F2807D808460449CF
:1045800009680E3351F823301146984708BD00BF23
:104590004C0D00207047FFFF08B50346052807D8DB
:1045A0000846044909681E3351F8233011469847DC
:1045B00008BD00BF4C0D002008B50346032808D8ED
:1045C00008460449096801EB8303D3F8AC3011466F
:1045D000984708BD4C0D002008B50346012800D9B6
:1045E00008BD08460449096801EB8303D3F8BC30D1
:1045F00011469847F4E700BF4C0D002048B910B5AC
:104600000B4604490968D1F8C44011461846A04732
:1046100010BD70474C0D002048B910B50B46044939
:104620000968D1F8C84011461846A04710BD704728
:104630004C0D002048B910B50B4604490968D1F863
:10464000CC4011461846A04710BD70474C0D0020C5
:1046500048B910B50B4604490968D1F8D040114655
:104660001846A04710BD70474C0D002008B5034602
:10467000012800D908BD08460449096801EB8303F5
:10468000D3F8D43011469847F4E700BF4C0D002012
:1046900008B50346012800D908BD08460449096841
:1046A00001EB8303D3F8DC3011469847F4E700BFF1
:1046B0004C0D00207F280AD810B50309044C24684B
:1046C000063354F8233000F00F00984710BD7047B0
:1046D0004C0D002008B50346032807D808460449B6
:1046E0000968243351F823301146984708BD00BFAC
:1046F0004C0D002008B50346022807D80846044997
:104700000968283351F823301146984708BD00BF87
:104710004C0D00207047FFFF084B1B6803B170472A
:1047200010B582B00446684606F0C0FB6368009A84
:104730009B1A024A136002B010BD00BF480D002052
:104740002DE9F84F83468F183D1AAAB20B2A4DD98E
:104750000446DFF8B48040F2F479DFF8B0A010E04E
:10476000254B1B78052B43D8244A2549254802F0C0
:104770000BFF3DE0A3880C331C443D1BAAB20B2A5F
:104780002CD92368434533D1A188494530D8ABB2F1
:1047900001F10C00834221D301F1080525446E8804
:1047A000063189B2201DFFF7BAFA8642D8D1DAF86D
:1047B0000030B3F80E210132A3F80E21E288110A6D
:1047C000B2F5C06FD6D22A88A3F80C2153F8213055
:1047D000A28804F10801A0799847CBE732B1A3453C
:1047E00004D0AAB2214658460EF0C0FC1BFA85FB45
:1047F0005846BDE8F88F00BFB4080020803D020095
:10480000883C0200D83B020068796E6E4C0D002097
:1048100008B54A78531EDBB2082B01D9012008BD28
:10482000034B1B6803EB8202D2F8E4309847F6E7AB
:104830004C0D0020F8B504460E46504B1F6800781A
:10484000FEF7AEFEA5886B1C23F0010304335B006A
:104850009BB2E27802EBC20103EB81039BB2B3424D
:1048600032D1531EDBB22C2B2ED8A17866780A44A5
:10487000B24229DC23783A789A4225D9BA6940F6BF
:10488000CC2707FB03235A8995421DD860B30388C0
:10489000012B0FD14388B3420CD183888B4209D1BD
:1048A000C388AB4206D16A0004F1080180680EF0AB
:1048B0004FFC40B3324B1B78062B09D8314A3249A2
:1048C000324802F061FE03E02D4B1B78062B05D920
:1048D0002078FEF7AFFE40F20510F8BD294A2C49BA
:1048E0002A4802F051FEF3E749BB65B1A31D681EDB
:1048F00081B204F1080000EB410033F8021F91423D
:1049000027D28342F9D1013525F001052D042D0C64
:10491000043504EB450500262A78A37813FA86F3BC
:104920009A4220D129462046FFF772FFD8B9243594
:104930000136E278B3B29A42EED80020CDE7104BB0
:104940001B78062BC4D80F4A1249104802F01CFEEF
:10495000BEE70B4B1B78062BBAD80A4A0E490B4808
:1049600002F012FEB4E7064B1B78062BB0D8054ABE
:104970000A49064802F008FEAAE700BFE80C00203A
:10498000B4080020443D0200E43C0200B83C0200B0
:10499000A83C0200C03C0200D43C0200F83C0200EB
:1049A000F8B504460D462E4B1E680078FEF7F8FD5C
:1049B0000746607860B300210822A35A033323F02E
:1049C000030304331A4492B201318BB28342F4D30D
:1049D000E38803EBC30102EB810292B2AA4219D130
:1049E0002D2B17D8A0886288C118914212DC257837
:1049F00031788D420ED2EFB13988022926D17988DB
:104A0000914223D113B3BB8883421FD100200AE017
:104A10000822DDE7134B1B78062B05D92078FEF71B
:104A200009FE40F20510F8BD0F4A1049104802F087
:104A3000ABFDF3E70028F6D00A4B1B78062BEDD828
:104A4000094A0C490A4802F09FFDE7E7054B1B782D
:104A5000062BE3D8044A0849054802F095FDDDE736
:104A6000E80C0020B4080020503D0200A83C0200E1
:104A7000B83C02000C3D0200E43C0200F8B50446DC
:104A80000D46404B1E680078FEF78AFD07462289D6
:104A9000531C23F0010306335B009BB2E18801EB5A
:104AA000C10003EB80039BB2AB4229D12D2927D84B
:104AB000A08865880144A94222DC23783178994294
:104AC0001ED9B16940F6CC2606FB031359898A42E8
:104AD00016D82FB33B88032B49D17B88AB4246D1F4
:104AE000BB88834243D1FB88934240D1520004F1FA
:104AF0000C01B8680EF02CFB002838D1002008E02B
:104B0000214B1B78062B05D92078FEF793FD40F248
:104B10000510F8BD1D4A1E491E4802F035FDF3E799
:104B200088B972B104F10A03013A92B204F10C059A
:104B300005EB420533F8022F8A420ED2AB42F9D17F
:104B4000E7E71046E5E7104B1B78062BDCD80F4A49
:104B50001149104802F018FDD6E70B4B1B78062BC5
:104B6000D2D80A4A0D490B4802F00EFDCCE7064B9D
:104B70001B78062BC8D8054A0949064802F004FDEF
:104B8000C2E700BFE80C0020B4080020603D02002E
:104B9000A83C0200B83C0200383C0200D43C0200B1
:104BA000E43C020070B504460D460C4B0360818066
:104BB000C28001F10803C618094A1268B2F80C2134
:104BC000C252063189B20430FFF7A9F8708005F1AE
:104BD0000C0189B220460AF07FFE70BD68796E6EC6
:104BE0004C0D0020082900D0704730B583B0124B1F
:104BF0001C68002525810378A3720123E3724368B2
:104C00000133E360436801332361684606F04EF9DF
:104C10000A4B1A68009B13446361BDF80430238378
:104C2000A576E576A583256206221C212046FFF79E
:104C3000B9FF03B030BD00BF540D0020480D002067
:104C400070B5244B1C68244B1E680378A3720023A4
:104C5000E3724FF48073238105783378AB421ED919
:104C60004288531C23F0010302335B009BB28B424A
:104C700015D18AB1B36940F6CC2101FB05356989AC
:104C8000831C013A92B2043000EB420033F8022F49
:104C90008A4214D28342F9D10023238103E00F4BCF
:104CA0001B78052B05D90B2204212046FFF77AFF3C
:104CB00070BD0B4A0B490C4802F066FCF3E7074B4A
:104CC0001B78052BEFD8064A0849074802F05CFC20
:104CD000E9E700BF540D0020E80C0020B4080020D4
:104CE000703D02001C3D0200D83B0200303D020036
:104CF00008B5064B1B6899720021D9721A810246C9
:104D000004211846FFF74EFF08BD00BF540D0020D8
:104D100010B50446FFF78EFD024620B12178012030
:104D2000FFF7E6FF10BD2046FEF79EFC0246F5E7C2
:104D300010B50446FFF734FE024620B12178022068
:104D4000FFF7D6FF10BD204603F0A8FD024600285D
:104D5000F4D12046FEF752FD0246EFE710B50446B7
:104D6000FFF78CFE024620B121780320FFF7C0FF39
:104D700010BD2046FEF7F2FD0246F5E7F0B583B020
:104D8000082905D14B4B1B6801781A78914207D34B
:104D900040F2051201780520FFF7AAFF03B0F0BD2D
:104DA000454A156800262E810278AA720122EA720D
:104DB0004268EA602A6104789B6940F6CC2202FBD3
:104DC0000434684606F072F83C4B1A68009B1344A2
:104DD0006B61BDF804302B83E38BAB76238CEB76D1
:104DE000B4F91C30AB83A38DEB832E626E6204F1A9
:104DF0005B03204604F168076FF05A06361B4FF03C
:104E0000010C01E0BB420ED0F11813F8012F04EBA6
:104E10004202B2F91C20002AF4D00CFA01F12A6AED
:104E200011432962EEE704F16B0304F17606C0F149
:104E3000FF2000F57F009530012701E0B3420ED03E
:104E4000C11813F8012F04EB4202B2F94020002AE6
:104E5000F4D007FA01F16A6A11436962EEE7B4F827
:104E6000483085F82830B4F8443085F8293094F873
:104E7000793085F82A30002385F82B3094F8793082
:104E80006BB10023D4F8842032F8131005EB4302F1
:104E900091850133DBB294F879209A42F2D8591CFB
:104EA00001F4FF711231052249002846FFF77AFE0E
:104EB00074E700BFE80C0020540D0020480D0020CE
:104EC00038B50546414B1A680378926940F6CC2103
:104ED00001FB032300221A72C3F8FC29C3F8002A3D
:104EE000C3F8042AC3F8082AC3F8182AC3F81C2AEE
:104EF000C3F8202AC3F80C2AC3F8102AC3F8142ACE
:104F000083F8632A83F8592A83F85A2A83F85B2A9C
:104F1000A3F84A2A83F85C2AD3F8742AD3F8701AC3
:104F20001160D3F8702AD3F8741A516003F5276220
:104F3000C3F8702AC3F8742A596958894FF49673D4
:104F400003FB0010814235D2002203E001F5967187
:104F500088422FD9A1F8B4200A6581F8BF2081F8D2
:104F6000192181F81A2181F81B2181F81C2181F86F
:104F70001D2181F81E214B6C002BE7D00C7AC4EB6D
:104F8000041403EB0414A342E0D2A3F878205A617E
:104F900083F8832083F8DD2083F8DE2083F8DF2088
:104FA00083F8E02083F8E12083F8E220F0339C428C
:104FB000EBD8CBE701220221287802F0FFFC002287
:104FC00029780E20FFF794FE38BD00BFE80C0020C2
:104FD00008B540F2051201780F20FFF789FE08BDE1
:104FE00010B4044690F8B43043B9138043694FF4C9
:104FF000967000FB01305DF8044B7047406964898E
:105000004FF4967303FB0404A042F4D2037A8B425C
:1050100007D2DB430B4499B200F596708442F5D871
:10502000E9E71180E7E7FFFF70B582B00446FBF7C0
:1050300075FC00282ED005462A4B1B6820789B69FA
:105040000DF10602618840F6CC2606FB0030FFF722
:10505000C7FF8369AB6000232B73234B1B68B3F836
:105060000C312B8240F202236B820B236B750823D9
:10507000EB828369D97A8379627801FB03232B76EB
:10508000BDF80630E3B900236B832379B3FA83F3C9
:105090005B091FE0154B1868237803730023C37363
:1050A0004FF4847303816378437363884381237966
:1050B000837340F202220821FFF774FD02B070BD35
:1050C000426CC3EB031302EB031313F8E93C013307
:1050D0006B8300236B7683692946D878FBF79CFDA8
:1050E000ECE700BFE80C00204C0D0020540D002020
:1050F00070B582B00546FBF711FC002843D004468A
:105100002A4B1B6828789B690DF10602698840F6D6
:10511000CC2606FB0030FFF763FF06468369A360D9
:1051200000232373224B1B68B3F80C31238240F217
:10513000032363820C236375E3828369D97A8379BD
:105140006A7801FB03236376BDF8063023BB6383D3
:105150002B7923776B796377AA79A27702EB8202A6
:10516000920005F1080104F12000FEF7FBFDAB7988
:1051700003EB83039B000C33E382B3692146D878A9
:10518000FBF74AFD06E04FF48472297840F20320D1
:10519000FFF7AEFD02B070BD426CC3EB031302EB30
:1051A000031313F8E93C0133D1E700BFE80C0020FA
:1051B0004C0D00200F4B1B6893F81031C3B90E4BF8
:1051C00019688B690A7840F6CC2000FB02329342C2
:1051D0000ED230B40125044683F8DF5003F6CC2309
:1051E0000A78886904FB02029342F5D330BC704709
:1051F000704700BF4C0D0020E80C002010B5134B89
:105200001C68B4F80E31B3B994F810315BB90F4B88
:105210001B68002283F810210D4B1B680122DA71F4
:105220000AF052FB10BD01230A4A142104F5A870AC
:1052300005F044FEEBE70023A4F80E31012344F609
:1052400020620F2105F03AFEECE700BF4C0D002074
:10525000E80C002040771B002DE9F04F83B00123BC
:105260004FF4FA62194605F029FE984B1F68FB7946
:10527000002B00F0B381964B19680191084601F1AB
:105280000803944A12880A81934A12884A810122AB
:105290008A81CA810A82914A126892F811218A741D
:1052A000BA69D2F8EC204A613A78002A00F0A48169
:1052B0000024102140F6CC2E26464FF0040C8046E8
:1052C00009E0304650711571083189B23A780134DD
:1052D000E0B2824213D9E5B2B8690EFB05005A1854
:1052E0005E52A2F802C0B0F80C90A2F8069098F8AE
:1052F0001290B9F1000FE4D190F81201E2E7002A10
:1053000000F05D814FF0000B4FF0010A4FF01409DF
:10531000D8465FFA8BF6BA6940F6CC2000FB062629
:10532000727862B30025ECB2C4EBC404D6F810C0A6
:105330000CEBC4005A1823F801A0A2F8029096F8CA
:1053400000E082F804E01CF834405471447B94710E
:10535000447AD471C47A147282F80980847A5481B0
:105360008469D460C4691461047B9482007A907566
:10537000183189B201357078EAB29042D3D83A78C0
:105380000BF1010B5FFA8BF08242C2D8002A00F0C9
:1053900016814FF0000B4FF002094FF00808BA4693
:1053A00036E007F108020025581823F80190A0F80C
:1053B000028080F804C0174632F8084C447112F895
:1053C000064CC48012F8054C047212F8034C063CDB
:1053D00018BF012444720C3189B20135083296F8A5
:1053E000B840A8B28442DFD80EF1010E70785FFA9F
:1053F0008EF2904204D996F8B820002AD1D1F3E772
:105400009AF800200BF1010B5FFA8BF082420FD962
:105410005FFA8BFCDAF8186040F6CC2202FB0C66CF
:10542000D6F8A47072784FF0000E002AE3D1E7E7B7
:105430005746002A00F0C3804FF0000A4FF00208E0
:105440004FF0080E32E006F108020024581823F845
:105450000180A0F802E080F804C0164632F808BCCB
:1054600080F805B012F806BCA0F806B012F805BC2A
:1054700080F808B00C3189B20134083295F8B7B021
:10548000A0B28345E2D809F1010968785FFA89F290
:10549000904204D995F8B720002AD4D1F3E73A789E
:1054A0000AF1010A5FFA8AF0824219D95FFA8AFC8E
:1054B000BD6940F6CC2202FB0C55D5F8A8606A788D
:1054C0004FF00009002AE5D1E9E700BFE80C002011
:1054D000540D002084080020820800204C0D00207C
:1054E000002A6CD04FF0000940F6CC2A4FF0030898
:1054F0004FF0080E5FFA89F6BD690AFB06552A7956
:10550000FAB10024581823F80180A0F802E06A7963
:1055100052FA84F202EB8202D7F824B00BEB820C31
:1055200006711BF8222042719CF80520C2809CF86D
:10553000032002720C3189B201342879E2B2904220
:10554000E0D83A7809F101095FFA89F08242D1D8AE
:105550002A480068007890B38AB3002040F6CC292E
:105560004FF004084FF00C0EDFF890C06826C4B26C
:10557000BA6909FB04245A1823F80180A2F802E052
:10558000DCF80050A47906FB04F4D5F82CA30AEB50
:105590000405107395F825B082F804B095F827B08B
:1055A000A2F806B095F8265055715AF80440946058
:1055B000103189B201303C78C2B29442D7D800226F
:1055C0000198FFF7EFFA48B90023FB710C4B1868FC
:1055D000012380F8113190F8103113B103B0BDE808
:1055E000F08F012380F8103144F620620F2100F57E
:1055F0008A7005F063FCF1E71021E0E7740D0020EC
:105600004C0D0020024B1B680122DA71704700BF6D
:10561000E80C0020082913D103780C4A126811788D
:10562000994210D9926940F6CC2101FB03234268CC
:10563000D3F8EC3040F205109A4298BF0020704732
:1056400040F20510704740F205107047E80C00204A
:105650002DE9F84F8246314BD3F800B0FFF7DAFF5F
:10566000ABF8080000284DD19AF800302C4A126897
:10567000926940F6CC2404FB03248BF80A30DAF854
:105680000430CBF80C30C4F8E830D4F8E430CBF870
:1056900010309AF801309946142B28BF4FF01409A6
:1056A000DAF804600BF114089BB300250C27D4F83A
:1056B000E430B34218D0B4F8E020D4F8001106FB6F
:1056C000021140460DF052FDB4F8E0201744BFB27D
:1056D000D4F8FC30013BB34214BF0136002601353B
:1056E000EDB29044A945E2D88BF80B501DB1DAF821
:1056F0000430C4F8E830042239465846FFF752FA1D
:10570000BDE8F88F02469AF800100420FFF7F0FA7F
:10571000F6E700238BF80B300C27ECE7540D002044
:10572000E80C00208B6883423CBF0A6A9B181B1A56
:10573000086B98420ED910B4CA6A4C6A121B898849
:1057400092FBF1F2934286BF8018C01AD01A5DF81E
:10575000044B70477047FFFF2DE9F8430646394B6D
:105760001D68FFF757FF288100284BD13378364A50
:10577000126840F6CC2707FB03F7D2F8188008EB35
:105780000704AB727368EB60D4F8E4302B61726885
:1057900093423DD094F8DC1009B9934238D3C4F851
:1057A000E8200123EB72D6F8049004F1DC014846AE
:1057B000FFF7B8FFD4F80C31834237D9B4F8E020B2
:1057C000D4F8001100FB021105F114000DF0CEFC1D
:1057D000B4F8E0100C31072289B22846FFF7E2F94D
:1057E00094F8DE3003BB73684BBBD4F8EC30D4F8CC
:1057F000E4209A4218D0012384F8DE30002384F894
:10580000DF3011E0024631780720FFF771FA0BE034
:105810000023EB72012284F8DE2084F8DF300722B7
:105820000C212846FFF7BEF9BDE8F88305F1140303
:105830000122494618F807000CF07EFDC8E7013B3D
:10584000D5E700BF540D0020E80C0020037A33B1E7
:105850008378002B0CBF00204FF48270704740F219
:1058600009107047037A43B9B0F94A300D2033B9B3
:10587000013810F0FF00FAD1704701207047012075
:105880007047FFFF2DE9F04383B080460E46458800
:10589000FDB903783A4AD35C002B62D00C694F788B
:1058A000C7EBC70704EBC707BC4208D22046FFF787
:1058B000CDFF0346002850D13834A742F6D873698B
:1058C00071894FF4967202FB01318B4250D32B4603
:1058D00043E0031D03EB8505AB4234D200F108041D
:1058E0002D1A6F1F27F0030700F10C031F44DFF888
:1058F00090900AE0A869FFF7A9FF034668BBAB7B5D
:10590000022B28D80434A7421DD034F8041CF38994
:105910008B421AD998F8003014F8022C19F8033089
:105920009A4215D20DF106023046FFF759FB0546A3
:1059300096F8B430012BDDD0BDF80630002BD9D05D
:105940004FF48A7309E0002307E04FF48A7304E000
:1059500040F20B1301E040F21113184603B0BDE80A
:10596000F08340F20B13F8E703F59673994205D9DB
:105970009A7B022AF8D940F21113EEE72B46ECE7A6
:105980003C0D0020F8B543880133B1EB830F55D1AE
:105990000446154600781378834252D9FDF700FE7D
:1059A000002836D12078314B1B5C002B4CD0304B7B
:1059B00033F81030002B4AD02E4B1A5C72B12E4BAC
:1059C00053F82030013AD2B203F1080101EBC201D1
:1059D0005A78A72A23D108338B42F9D140F6CC2636
:1059E00006FB00F6AF69BD192846FFF73BFF88BBF1
:1059F000B85D06F0FFF880B3A87902F0DFFC78B359
:105A0000B5F92A30012B2ED029462046FFF73AFF60
:105A100016E02078FDF70EFE4FF48C7010E00023A6
:105A20001548A721227850F822201A4451700833D3
:105A3000B3F5F07FF6D140F2131001E040F205100B
:105A4000F8BD40F20510FBE74FF48670F8E74FF41D
:105A50008670F5E740F20710F2E740F20F10EFE72B
:105A60004FF48870ECE74FF48970E9E7EC0C002004
:105A7000240D00203C0D0020000D00202DE9F04FEA
:105A800085B080465B4B1C682246FFF77BFF019088
:105A900040B1019A98F800100820FFF729F905B0E5
:105AA000BDE8F08F98F80000A36940F6CC2707FB0B
:105AB00000370021FEF74EF88246B8F80230002B7E
:105AC0003AD17C697E894FF4967303FB0646B44253
:105AD0007CD24FF0010900254FF0020B0AE00423AD
:105AE000A3734A46E179A069FBF7ADFA04F5967411
:105AF000A6426BD984F81490204602F0C9FF002812
:105B0000F4D165729AF801302374E372E56265623C
:105B1000A5622562E5632563656384F80CB02046C1
:105B2000FBF7F2FF2A462146384605F0E1FC002843
:105B3000D5D00323A373D9E7013308EB830308F11E
:105B40000402934242D908F10805A3EB0809A9F120
:105B5000050929F0030908F10C0399444FF0010BE2
:105B6000002609E00423A3735A46E179A069FBF7F4
:105B70006AFA04354D4529D00DF10E0235F8041CA2
:105B80003846FFF72DFA044680F814B002F080FF83
:105B90000028EED166729AF801302374E372E6624F
:105BA0006662A6622662E663266366630223237347
:105BB00026642046FBF7A8FF32462146384605F00A
:105BC00097FC0028CED00323A373D2E73C697D78ED
:105BD000C5EBC50504EBC505AC4207D359E7204624
:105BE000FBF730FB3834A5427FF653AF238E002BF2
:105BF000F8D0F4E7E80C002070B582B00646408883
:105C0000431C23F001031B041B0C5B00043399426B
:105C100029D135781378AB4229D9936940F6CC2243
:105C200002FB053508B3002404E001347288A3B2F6
:105C30009A4216D9A3B206EB43039988EB898B42AB
:105C400018D90DF106022846FFF7CAF995F8B430C5
:105C5000012BEAD0BDF80630002BE6D04FF48A7055
:105C600003E0002001E040F2051002B070BD40F2F8
:105C70000510FAE74FF48A70F7E7FFFF2DE9F04FC0
:105C800083B00746454B1C682246FFF7B5FF8046A8
:105C9000002871D13D78A36940F6CC2202FB05357E
:105CA0007B887BBB6C696E894FF4967303FB064659
:105CB000B44259D24FF00F0A4FF00D0B4FF00009CC
:105CC0000EE00723A3734A46E179A069FBF7BBF90D
:105CD0002146284605F070FC04F59674A64243D987
:105CE000A37B052BEDD0042B04D0032B08BF84F835
:105CF0000EA0EDE784F80EB04A46E179A069FBF703
:105D0000A2F9E5E700264FF00F094FF00D0A0FE06A
:105D1000072383730022C1798069FBF794F9214638
:105D2000284605F049FC01367A88B3B29A421BD95D
:105D3000B3B207EB43030DF1060299882846FFF73B
:105D40004FF90446837B052BE2D0042B04D0032BB0
:105D500008BF80F80E90E2E780F80EA00022C1791B
:105D60008069FBF770F9DAE72C696D78C5EBC5053A
:105D700004EBC505AC420DD3424639780920FEF745
:105D8000B7FF03B0BDE8F08F2046FBF75BFA38346D
:105D9000A542F1D9238E002BF9D0F5E7E80C0020BD
:105DA0002DE9F04F83B00746514B1C682246FFF7A0
:105DB00023FF8046002840F088803D78A36940F6A4
:105DC000CC2202FB05357B88002B3AD16C696E89A9
:105DD0004FF4967303FB0646B4426ED24FF00009AF
:105DE0004FF0FF0B4FF00E0A19E00623A3734A464B
:105DF000E179A069FBF727F909E00C23A3734A4670
:105E0000E179A069FBF71FF901E084F80EA02146B3
:105E1000284605F0D1FB04F59674A6424DD9A37B24
:105E2000052BE2D0042BE8D0032BEED0013BDBB2F4
:105E3000012BECD884F80E9084F809B084F80B900C
:105E4000E5E70026B1464FF0FF0A1AE00623837308
:105E50004A46C1798069FBF7F6F809E00C238373A1
:105E60004A46C1798069FBF7EEF801E00E2383739F
:105E70002146284605F0A0FB01367A88B3B29A4243
:105E80001BD9B3B207EB43030DF1060299882846EC
:105E9000FFF7A6F80446837B052BD7D0042BDDD073
:105EA000032BE3D0013BDBB2012BE1D880F80E904D
:105EB00080F809A080F80B90DAE72C696D78C5EBC3
:105EC000C50504EBC505AC420DD3424639780A201E
:105ED000FEF70EFF03B0BDE8F08F2046FBF7B2F9E6
