:1000000058A00020E51900000D180000E1190000BB
:10001000E1190000E1190000E1190000E1190000F8
:10002000000000000000000000000000E1190000D6
:10003000E119000000000000E1190000E1190000D2
:10004000D10C000025050000B90500008506000060
:10005000F9060000491400002115000039160000BF
:100060004914000021150000391600003508000071
:10007000B1070000C1080000FD08000035080000BD
:10008000B1070000C1080000FD08000025050000C0
:10009000B905000085060000F90600000000000018
:1000A0000000000000000000000000000000000050
:1000B0000000000000000000000000000000000040
:1000C0000000000000000000000000000000000030
:1000D0000000000000000000000000000000000020
:1000E0000000000000000000000000000000000010
:1000F0000000000000000000000000000000000000
:1001000000000000000000000000000000000000EF
:1001100000000000000000000000000000000000DF
:1001200000000000000000000000000000000000CF
:1001300000000000000000000000000000000000BF
:1001400000000000000000000000000000000000AF
:10015000000000000000000000000000000000009F
:10016000000000000000000000000000000000008F
:10017000000000000000000000000000000000007F
:10018000000000000000000000000000000000006F
:10019000000000000000000000000000000000005F
:1001A000000000000000000000000000000000004F
:1001B000000000000000000000000000000000003F
:1001C00010B5054C237833B9044B13B1044800E053
:1001D00000BF0123237010BDC809002000000000EB
:1001E000F057000008B5034B1BB10349034800E07A
:1001F00000BF08BD00000000CC090020F05700003F
:1002000008B502F08DFA04F09DFABDE8084002F04E
:100210009DBD00BF022800D070470249024800F08F
:100220006FBC00BF1C520000640A002008B5FFF735
:10023000E7FF002008BD00BF70B5836A04460E4684
:1002400084B0ABB193E8070001AD85E807006268B0
:10025000184611781E71E26A19609A60636A9847BD
:10026000A36A1BB195E8070083E8070004B070BDDE
:1002700001AD2B46EBE700BF2DE9F04F0346D1E976
:1002800006020026C3E90A62596058620A7883B000
:1002900002F5800202F58D5212029A60487A002817
:1002A00000F0FF80B025B4464A7B0C6A91F80BE061
:1002B00012038F7A42EA4E0122783943002A40F035
:1002C000ED8041F0800194F801E0E2784FEA4E16AB
:1002D00025EACE1546EA4E06A77894F804E021F008
:1002E00070012E4397404FEA0218BEF1000F06D06E
:1002F000BEF1020F14BF4FF0200E4FF0300E6579A3
:100300002DB1012D14BF4CF0010C4CF0030C257ADB
:10031000A27905F00305009248EA850211430028FE
:1003200040F0C480A27A94F8099094F80B8041F4CC
:1003300060410192EFF3108A012585F310885A6815
:100340005D481278D0F800B0C2F1130205FA02F24B
:100350002BEA0202026002688AF3108800204FF044
:10036000100A9A68F6B2FFB292F803B0D070167015
:10037000577082F802E0E6795C689672019E5FFA37
:100380008CFC89B282F80C90567382F80E8082F849
:100390000FC011820099494E82F8201082F821A0E6
:1003A00094F806C094F9022045494FEA0C1C454FC9
:1003B00001EB020E5FFA8CFC8EF800C346F8223087
:1003C00002F1C00E4FEA521C57F82E804FEA8C0CF7
:1003D0000CF1604C02F01F0205FA02F260F31048C3
:1003E0000CF5614C47F82E80CCF88021CCF8002029
:1003F00094F805C094F901204FEA0C1C01EB020EA1
:100400005FFA8CFC8EF800C346F8223002F1C00E71
:100410004FEA521C57F82E804FEA8C0C0CF1604CBE
:1004200002F01F0205FA02F260F310480CF5614C6D
:1004300047F82E80CCF88021CCF80020227A94F95D
:1004400004C0120101EB0C0ED2B28EF8002346F864
:100450002C300CF1C00E4FEA5C1257F82E8092003F
:100460000CF01F0C02F1604205FA0CF502F5614236
:1004700060F3104847F82E80C2F880511560E27989
:1004800094F90340104D1201D2B2214481F80023A7
:1004900046F824301D6003B0BDE8F08F46F0B1058A
:1004A00011E7B82508264FF0100CFDE64FF00008C4
:1004B000C146CDF804803DE704400840240C0020EC
:1004C00000E100E00060004049505352816890F81C
:1004D0002000CA7A0B8A0128D2B29BB217D0022818
:1004E0000BD023F4706322F0400243F4407342F0D7
:1004F00020029BB2CA720B82704723F4706343F4EC
:10050000706302F09F029BB2CA720B82704723F4A1
:10051000706343F4E06342F040029BB2CA720B8204
:10052000704700BF10B4EFF30383103B1F4A5BB268
:1005300003F1C00152F821001D4C6FF3104042F846
:10054000210054F82330D3E906218A4213D01869D8
:10055000F8B193F82040012C1ED0022C21D09968CC
:10056000496840F82210D96901328A429A6102D062
:100570005DF8044B704701225B680E4993F9033024
:100580005DF8044B03F01F0082405B0941F8232013
:10059000704798684068E7E7996809798154D96994
:1005A000E2E79C68A48820F81240DDE70060004084
:1005B000240C002000E100E0F0B4EFF30383103BD3
:1005C0002D495BB203F1C00251F822002B4C6FF3AE
:1005D000104041F8220054F823305868026A12B1E2
:1005E0005578012D13D05A69DC6994420DD0D96831
:1005F000F9B193F8200001281ED0022837D051F815
:1006000022009968486001325A61F0BC7047DC6989
:100610005A69661EB24213D001690029E5D090F9EB
:100620000310174801F01F06B540490940F8215052
:10063000DBE798684160E6E7885C99680871E2E763
:1006400090F9036006F1C007700951F827C08000D7
:1006500000F1604006F01F0600F56140B5406FF301
:10066000104C41F827C0C0F880510560BDE731F853
:10067000120099688880C6E700600040240C0020C2
:1006800000E100E010B4EFF30383103B174A5BB2C4
:1006900003F1C00152F82100154C6FF3104042F8ED
:1006A000210054F823008268D278920706D5426868
:1006B000527A012A02D05DF8044B704701210D4C9B
:1006C00003F01F025B0901FA02F2203344F82320F1
:1006D000BFF34F8FBFF36F8F82685DF8044B1378C1
:1006E0006FF386131370FFF7A7BD00BF00600040D3
:1006F000240C002000E100E070B5EFF3038400213A
:10070000184B103C64B253F82460B3681A786FF346
:1007100086121A70DA78D970D5B212070ED4EB07A8
:1007200012D405F01405142D16D00F4BC03453F815
:1007300024206FF3104243F8242070BD0521304679
:10074000FFF77AFDEB07ECD50421304605F01405E0
:10075000FFF772FD142DE8D130460821FFF76CFD3C
:10076000E3E700BF240C002000600040F0B5846A7D
:1007700005460F46944685B0BCB194E80F006E461E
:1007800086E80F00EB6920461A7884F804C0EB6A0B
:100790002260C4E902736B6A9847AC6A1CB196E8A0
:1007A0000F0084E80F0005B0F0BD6E463446E9E75F
:1007B00030B4EFF30383103B5BB21C4A03F1C0017A
:1007C00052F821001A4C6FF3104042F8210054F8FF
:1007D0002300C3691B691BB103691BB130BC70479F
:1007E000036963B930BC0021026A937803F07F0388
:1007F00043F0040393708022C160FFF7B7BF827893
:1008000002F003010229C16809D0046A0D78E5707D
:1008100002F003029B1A0A44C0E90323DDE70C88B7
:10082000056A44F47E44EC81F2E700BF00600040BA
:10083000240C002010B582B0EFF30383103B1E4A56
:100840005BB203F1C00152F821001C4C6FF3104061
:1008500042F8210054F82340A27802F00303022B4F
:10086000236A0CBF198A5979A3690CBFC1F3080127
:10087000C9B2019133B92046042202B0BDE810404C
:10088000FFF774BF02F0030201A9606903F084FF5F
:10089000D4E90521A37803F003031A44C91AC4E973
:1008A000052109B102B010BD2046012202B0BDE809
:1008B0001040FFF75BBF00BF00600040240C002029
:1008C00038B5EFF303840B4B103C64B253F82400AB
:1008D0000222056A0021AB78C03403F07B03AB70C1
:1008E000FFF744FF044B53F824206FF3104243F802
:1008F000242038BD240C00200060004038B5EFF300
:100900000384154B103C64B253F82400837803F041
:100910000303022B036A0CBF198A59791D790CBF96
:10092000C1F30801C9B205F03802ED0604D51D7FF8
:10093000ED0758BF42F040021D79C03405F0C705ED
:100940001D71FFF713FF054B53F824206FF310427E
:1009500043F8242038BD00BF240C00200060004074
:100960000123C8B283404AB91A040B0A5B0103F1A0
:10097000804303F5002300209A6070479AB2F4E7A1
:10098000F8B500284CD000240B6840F2024604332E
:10099000254640F2034740F2044C03EBC0010FE050
:1009A000BA422FD153F8042C02F0B852B2F1807F32
:1009B00014BF44F0020445F0020508338B4210D006
:1009C0001A88B242ECD153F8042C083302F0B85222
:1009D000B2F1807F14BF44F0010445F001058B4261
:1009E000EED1E443E4B2012000F0B0FF0E4A012052
:1009F00092F8BB341D432C4082F8BB44BDE8F8405C
:100A000000F074BF6245D8D153F8042C02F0B852FC
:100A1000B2F1807F0CBF45F0040544F00404CCE73C
:100A20000546FF24DFE700BF00E001400146F8B5BE
:100A3000044631F8040BFFF7A3FFEFF31082012304
:100A400083F31088DFF8B4C0DCF800301BB9402015
:100A50002849CB70C870DCF800300133CCF8003086
:100A600082F3108827886FB36368013FBFB203F138
:100A70000801214C01EBC70708E0D2B21B01134467
:100A80008F4244F823000B461CD0083118689A881E
:100A900010F4803F4FEA1223EFD0130AD2B202EBD8
:100AA000031554F825E01B01134420F480366FF33E
:100AB000104E8F4244F825E044F8256044F82300A6
:100AC0000B46E2D1EFF31082012383F31088DCF8A8
:100AD000003023B1DCF80030013BCCF80030DCF80A
:100AE00000301BB980200349CB70C87082F3108896
:100AF000F8BD00BF000D084000080840200C002091
:100B000008B50346034A08461A60FFF78FFF002026
:100B100008BD00BF54524F50D0E9023200209A6005
:100B2000704700BFD0E9023200205A60704700BF12
:100B3000D0E902320020DA60704700BF002824DBD1
:100B400030B4012400F160430901104DC9B203F52E
:100B5000614383F800130E4945F8202000F1C002DC
:100B600051F8225043099B006FF3104503F1604395
:100B700000F01F0004FA00F041F8225003F5614331
:100B8000C3F8800130BC186070477047240C002007
:100B9000006000402DE9F8430D4601212A7C002623
:100BA00001FA02F3C3601B071CBF00230374364B1A
:100BB00008BF017469691344AA691B0204464560B1
:100BC0008360C0E90516C261EF69EFF3108E012062
:100BD00080F310884FF000412C4B95F810C0DA6874
:100BE00021FA0CFC22EA0C02DA60DB688EF3108832
:100BF0004FF425484FF4AA0E4FF0030CA3686A681F
:100C0000C3F80080DE62DE639E6495F80880013AD6
:100C10004FEAC858C3F82C80D7E906981961596182
:100C200099615E629E62C3F81C90C3F820809A6648
:100C30005A669E63C3F8886097F8212097F8208051
:100C4000E168520742EA4832C3F840E0D9605A638B
:100C5000C3F830C018632246697C95F91200FFF78B
:100C60006DFF224697F8221097F92400FFF766FFE0
:100C700097F92500224697F82310FFF75FFF044BF2
:100C800030462360BDE8F8839016400004400840D9
:100C900054504700F0B5836904460F46164685B0A8
:100CA0009BB193E8070001AD85E807001F71E26979
:100CB00018469E601A6063699847A3691BB195E85E
:100CC000070083E8070005B0F0BD01AD2B46EDE756
:100CD000F0B4EFF30383103B184A5BB203F1C00199
:100CE00052F82100164C6FF3104042F8210054F8DE
:100CF000230044682478012C17D1D0E9026700252D
:100D0000B760B564F564356552F821705E09DFF8A7
:100D100034C003F01F0365F3104704FA03F306F130
:100D2000600542F821704CF82530436923B1F0BCCE
:100D300000221146FFF7AEBFF0BC704700600040D4
:100D4000240C002000E100E02DE9F04701210025FE
:100D5000394B80F83450394A83F816140446186A1F
:100D60001268C0F302611B6A02FA01F1344EC0F34B
:100D70000270C3F30263C1409A40B14222FA03F207
:100D800055D943F6B85E40F6D86C542744F2506605
:100D90002C4802F5742303F23F23A0FB032301F543
:100DA000742202F23F22A0FB021227499B0C01FB96
:100DB00003F926490EFB03FE01FB03F824490CFB53
:100DC00003FC07FB03F706FB03F601FB03F1DFF867
:100DD00088A0920C02F5F052AAF8E4201D4A5B00AC
:100DE0002846A2FB0959A2FB0E5EA2FB0C5CA2FBEB
:100DF0000757A2FB0656A2FB0858A2FB0151A2FB13
:100E000003324FEA9E0E4FEA9C0CBF084FEA99034B
:100E1000B6084FEA980589089208C4E902ECC4E9CB
:100E20000573C4E90856E1612261BDE8F0874FF41B
:100E3000FB70BDE8F08700BF00E00140340A0020ED
:100E4000FF083D0083DE1B4338AF040080DE0F0047
:100E5000A0F70300ABAAAAAA00E07F400B782DE917
:100E6000F04704464160002B59D0002701204FF085
:100E7000980A4A68CB68DFF8BCE0C4E90E2723640F
:100E80008EF818000A7C91F91130274EDFF8A8C0BF
:100E90001201264D06EB0308D2B288F800234CF865
:100EA000234003F1C0085A0955F82890920002F136
:100EB000604203F01F0302F5614200FA03F367F397
:100EC000104945F82890C2F8803113608EF814A0BC
:100ED0008B7C91F913201B011644DBB286F800339A
:100EE00002F1C0014CF82240530955F821609B00E3
:100EF00002F01F0203F1604300FA02F203F56143BE
:100F000067F3104645F82160C3F880211A60204637
:100F1000FFF71AFF08B9064B2360BDE8F087054AC2
:100F200013761375F3E700BF00E100E000600040B6
:100F30004E45504F00E07F40240C00204FF4964275
:100F400070B4037883B001927BB3012190F9112032
:100F5000254C02F1C005530954F825609B0003F1AC
:100F6000604302F01F0203F5614301FA02F26FF3DE
:100F7000104644F82560C3F880211A6090F91320C8
:100F800002F1C000530954F820509B0002F01F02E8
:100F900003F1604301FA02F203F561436FF3104578
:100FA00044F82050C3F880211A604AF680230F4A83
:100FB000A2F88430B2F884309BB2802B08D10FE0C5
:100FC000019B013B0193B2F884309BB2802B07D088
:100FD000019B002BF4D14FF4FA7003B070BC704742
:100FE000002003B070BC70470060004000E07F400C
:100FF00070B500255B08B2F1006FC0E90A12036307
:1010000080F8345003D2BDE8704004F059B804466B
:101010004068FFF793FF0546B8B963681B78B3B91A
:10102000E66808E018224FF4805104F051F8236B71
:1010300005468BB1B8B932460421204604F058F871
:10104000636805461B78002BECD0284670BD012351
:10105000064684F83430EEE704F042F8002D08BF6D
:101060000546284670BD04F03BF8284670BD00BF19
:101070002DE9F8430023B1F1006F044680F83430C5
:1010800010D221F40013B3F5803F35BF21F4FF5196
:1010900021F4FF4121F01F0121F07F01BDE8F84359
:1010A00004F006B821F03F01816202634068FFF757
:1010B00045FF002847D16368197891BBE668234A49
:1010C000012017464FF02008DFF88490236BA2F828
:1010D000E000D025A26A013B02F140003A6389F8A2
:1010E000008089F800502363A0625EB1D7F8803099
:1010F000180407D4334600E0C3B1D7F88020013B81
:101100001204F9D50025C1B9284619224FF400511F
:1011100003F0DEFF236B054653B188B9626811788E
:10112000D7E70223064684F83430C8E71425EAE7F7
:1011300003F0D6FF002D08BF05462846BDE8F8831A
:1011400003F0CEFFF9E74FF4FA75F6E700E07F40D1
:1011500000007E4003F0D4BF70B490F90450224EDA
:1011600083B0019105F1C001009256F821201F4C77
:101170006FF3186246F8212056F82110C1F30801D8
:1011800041F40041E28992B28A42FBD008222274E3
:10119000019A32B3164A019C52F825104C6000990E
:1011A00019B152F82510009C8C6052F82510CA78AD
:1011B00002F0C002802A12D002B9CB8118220B4B58
:1011C00009491A7490F904300020C03351F82320E3
:1011D00042F0807241F8232003B070BC70478B81CD
:1011E000ECE7034ADBE700BF00600040005400402A
:1011F00000000020062070470620704790F9043058
:101200000449C03351F82320002042F0807241F895
:10121000232070470060004090F90430044AC03336
:1012200052F8231000206FF3186142F82310704722
:101230000060004010B4002490F90420144B53F8CF
:1012400022200C60D3784C6013F0C0030BD04FF415
:101250008074D089802BC0B28C60C8600DD0002013
:101260005DF8044B70474FF48030D3895DF8044B30
:101270009BB28860CB60002070474FF48030938928
:101280005DF8044B9BB208604B600020704700BFC4
:10129000000000200346002070B493F904200749A1
:1012A00002F1C00451F82450054E6FF3186541F85F
:1012B000245046F82200186070BC7047006000405F
:1012C000000000200B4630B4DA781C4612F0C00F44
:1012D00004D0DA89D2B242EA0222DA81A27810334B
:1012E00012F0C00FF0D108251822054B054C1D74D3
:1012F00090F9000044F820101A7030BC704700BF0D
:10130000005400400000002038B590F90430114A24
:10131000C033054652F823000F4C6FF3186042F8B3
:10132000230052F82320C2F3080242F40042E3896A
:101330009BB29342FBD0281DFFF7C4FF95F9043000
:101340000449C03351F82320002042F0807241F854
:10135000232038BD00600040005400401C4AF8B50E
:10136000137806460C46A3B1636893F90030002B4E
:101370002CDB184A52F823500DB10820F8BD304636
:1013800000F8043F2168FFF79DFF134B28463360A8
:10139000F8BD01251570EFF3108085F310880F4A12
:1013A000D16921F48001D161D26980F31088094F9D
:1013B000194638464FF4C07203F0FBF9084B5F61E1
:1013C0001D73636893F90030002BD2DA0B20F8BD4F
:1013D000E4090020000000200043544400E00140E4
:1013E000005400402DE9F043D1F800C08846814602
:1013F0008DB0BCF1000F24D0654614460FCD674672
:1014000001AE0FC60FCD0FC695E8070086E80700AE
:101410000FCC0FC70FCC0FC794E8070085E8070073
:101420006046C847D8F8004044B101AD0FCD0FC4A5
:101430000FCD0FC495E8070084E807000DB0BDE8A4
:10144000F0839446ECE700BF30B58DB0EFF3038333
:10145000103B304A5BB2C03352F823106FF3104197
:1014600042F82310EFF3038300252B4C103B5BB2B3
:1014700054F823402C22002101A803F09AF9636854
:1014800093F84D2883F84D58D2B2ADF80820B3F840
:101490004218C1F30010C90616D5022142F02002FD
:1014A000ADF8082093F8532883F8531893F852089E
:1014B000D2B200F01F0083F85328034493F8202889
:1014C00065F3820283F8202800252268636A116888
:1014D00004900191E06901AA04F12001CDE90553CE
:1014E000FFF780FF6368B3F84238DB0610D5236846
:1014F0001A69127D62B193F91530AB4208DB012203
:1015000003F01F0005495B098240403341F8232066
:101510000DB030BD00600040240C002000E100E070
:10152000F0B58DB0EFF30383103B404A5BB2C0339C
:1015300052F823106FF3104142F82310EFF30383A6
:1015400000223B49103B5BB251F82340656895F897
:10155000533885F8532895F85278DBB207F01F0707
:1015600007F1200285F853381301E958C1F3807060
:101570008DF82200D4F800C0E858DCF810301B7B4E
:1015800043EAD07303F001038DF82030002B4AD1D9
:10159000C1F38A41079105EB02129188C1F303035D
:1015A00001F00F0108298DF8213039D908218DF873
:1015B000211000230AAA05EB0716F01890F806027E
:1015C00001338B4202F8010BF7D344234FF48060C0
:1015D000DCF800203D4485F82038656A07AB0192AD
:1015E000ADF8080001AAE06904F12001CDE9053554
:1015F0000497FFF7F7FE6368B3F84238DB070DD5B1
:10160000236893F91630002B08DB012203F01F003A
:1016100008495B098240403341F823200DB0F0BDFA
:101620000029C6D1D1E721F06041B3E70060004056
:10163000240C002000E100E0F0B58DB0EFF303834F
:10164000103B244A5BB2C03352F823106FF31041B1
:1016500042F82310EFF30383012500264FF40060C6
:101660001D4A103B5BB252F82340636893F853184D
:1016700083F8535893F85228C9B283F8531802F0EC
:101680001F02216813440F6883F8206883F82068DC
:10169000636A0492ADF8080004F12001E06901AA30
:1016A000069301970596FFF79DFE6368B3F84238ED
:1016B0009B070CD5236893F91730B34207DB5A090F
:1016C000064903F01F0340329D4041F822500DB0FF
:1016D000F0BD00BF00600040240C002000E100E0ED
:1016E000064B074993F826001A6A51F82030C2F3D6
:1016F00002620449D3400B60704700BF00E0014024
:10170000AC090020340A0020354BF0B401214AF224
:1017100003541A463348A0F8FE43A3F80411B2F864
:1017200004319BB2002BFAD101214FF40044092669
:101730002D4DA2F800112D48A9602A4A29602C4D90
:1017400092F8261045602B4D2B4FC0E902452B4DDA
:101750000760C0E90445146A50F82110C4F302641C
:10176000E140274C216082F8133482F8A26092F89D
:10177000801419B182F8813482F88034194B002525
:1017800043F20212194683F832501A8591F83C3020
:101790001A07FBD50023134A81F82A3092F83C300F
:1017A0009B06FBD50327052301254FF425460C494D
:1017B00081F81C7182F82630124B136292F82630A1
:1017C000116A50F82330C1F30261CB40236082F8E4
:1017D000305082F85250A2F8FE63F0BC704700BF50
:1017E00000C0014000E0014000700040AC09002052
:1017F00000127A0000366E01002D310100C2EB0BA1
:10180000340A002021120120704700BF70B5002467
:101810000A4B0B4EB3F84051ADB225FA04F3DB0787
:10182000E0B203D556F8243003B198470134102CA8
:10183000F3D1024BA3F8305170BD00BF00600040EF
:10184000E8090020F0B5032085B000F07FF86FF0C4
:10185000FF054FF0FF311F4C0023224601271E4891
:1018600004F1C0068564CDE90111039132F8020F3D
:10187000590960B104A800EB810151F80C0C03F088
:101880001F0507FA05F520EA050041F80C0CB242E5
:1018900003F10103EAD1019A104B114911480A6082
:1018A000C3F88022029A0260C3F88422039A0320BC
:1018B0008A60C3F8882200F019F800230A4803F16F
:1018C000C00234F8021F0133602B40F82210F6D119
:1018D00005B0F0BD2A5400000080004000E100E0A7
:1018E000708000407480004000600040EFF3108181
:1018F000012383F31088124B33F8102092B22AB1DF
:1019000033F81020013A92B223F8102033F8103047
:101910009BB293B90B4A10B4B2F8FE330A4C9BB297
:1019200034F8100043F4254323EA0003A2F8FE3301
:1019300081F310885DF8044B704781F3108870477D
:10194000280A002000E001401055000030B4EFF3F9
:101950001081012383F310880D4A32F810309BB2B6
:1019600063B90C4C0C4DB4F8FE3335F810509BB2F3
:101970002B4343F425439BB2A4F8FE3332F81030D6
:1019800001339BB222F8103081F3108830BC7047CD
:10199000280A002000E00140105500000D4908B55C
:1019A0000A6803464AB103330B4823F00303134488
:1019B000834206D810460B6008BD084802460860FE
:1019C000F1E702F0E3FE0C234FF0FF320360104614
:1019D00008BD00BF300A0020589C0020589C002001
:1019E00000BE704708B500F003F8FEF71FFCFEE7E5
:1019F0004FF47001234B244A70B50020C3F88810BF
:101A00009A60FEF707FCFFF77FFE0120FEF702FC5D
:101A10001E4B83F30A881E481E4A0021121A02F048
:101A2000C8FE1D481D4A1E49121A02F0B5FE1D4D82
:101A30001D4B5B1B002B07DD00249E1055F8043B5B
:101A400001349847A642F9DCFFF74AFE0320FFF76E
:101A50007DFF00234FF6FF70144903F108020133A4
:101A6000092B21F81200F8D10320FFF73FFF0220D5
:101A7000FEF7D0FBFFF7E6FEBDE870400020FFF761
:101A8000C3BE00BF00ED00E000000000589C002035
:101A9000C8090020549C002080010020AC090020CF
:101AA000F4570000A4090020A8090020000D0840F8
:101AB000D9B130B404464AF201024FF6FF704B1E12
:101AC0009BB20133E518082314F8011B4840C107F5
:101AD00003F1FF334CBF82EA5000400813F0FF03CC
:101AE000F5D1AC42EFD130BC70474FF6FF70704774
:101AF000F8B54D4E4D4F33693A68986AD98C121A31
:101B000092B2914238BFDA849A84DA693968013234
:101B1000DA61996200F0B8FD35696C89F42C47D020
:101B200030D8002C68D0EF2C35D1EA683B68D2E978
:101B300000125B1A9A421AD8002240F203413C4834
:101B4000FEF70EFF012240F204413948FEF708FF7C
:101B5000002240F205413648FEF702FF3569EB6886
:101B60006BB3F4223868B168C3E900016A8100F000
:101B70009BFD336928841A8C598C914200D25A8477
:101B80000120F8BDF92C06D1EA683B68D2E90012C1
:101B90005B1A9A42EBD800F087FD336928841A8CCF
:101BA000598C0420914238BF5A8400225A81F8BDD2
:101BB000EA683B68D2E900125B1A9A42D7D8002241
:101BC00040F203411A48FEF7CBFE002240F20441E6
:101BD0001748FEF7C5FE012240F205411448FEF702
:101BE000BFFE3569EB68002BD5D0F9223868B168A3
:101BF000C3E900016A81BAE7012240F203410C48BF
:101C0000FEF7AEFE224640F204410948FEF7A8FE68
:101C1000224640F205410648FEF7A2FE3569EB6810
:101C2000002B89D0EF22E1E7A40D0020380A002024
:101C3000640A002070B500250D4C82B00646A060F5
:101C4000E5802560257100F027FE0A4BE0601B68E7
:101C5000C0E9003600F020FE0749034600912A46FD
:101C60000649642001F024F8206102B070BD00BF75
:101C7000A40D0020380A002018550000F11A0000B9
:101C800000F5001070B584010D462046012116466E
:101C900002F00EFA00B970BD324629462046BDE872
:101CA000704002F01DBA00BF2DE9F0436FF07F478E
:101CB000364B374A97B092E803001D68354E364AD6
:101CC000049036486B1EADF814106D24CDE9020265
:101CD000334907350197009601E011F8014B13F8DD
:101CE000012FA24204D1AB42F7D117B0BDE8F08377
:101CF000FF210DF117030DF1570203F8011F934265
:101D0000FBD1C022104604251446FF21254B264E48
:101D10000DF12409CDE9066308AB03F8010B4B452F
:101D20000DF109080DF10D0E0DF1010C0DF1050776
:101D30000DF11106DC70DA72D971DD7411D018F86A
:101D4000010B1EF8014B03F8010B1CF8012B17F8CF
:101D5000011B16F8015B4B45DC70DA72D971DD743A
:101D6000EDD141F21112114B80214FF00060ADF81E
:101D700038200C9302F09CF90028B6D0402206A926
:101D80000020FFF77DFF17B0BDE8F0833809002081
:101D90001C550000C0A80001C0A8001EC0A8000378
:101DA000255500006E6669676D63636F8813701751
:101DB0002DE9F043877983B08FBBC37A90F80A90FE
:101DC000427A047A19EB032990F8048004EB022488
:101DD00000F10C0527D0A14402E001344C4522D08B
:101DE000E6B2294630464022FFF74AFF4035002838
:101DF000F3D101270021240A08236A4606208DF822
:101E000007408DF800808DF804708DF806608DF81D
:101E10000110ADF802108DF8051001F0F9F801205D
:101E200003B0BDE8F083E6B2E4E700BF2DE9F04F70
:101E3000877983B01FB1012003B0BDE8F08F03465E
:101E4000C27A867A017906EB0226B6B24FEA861983
:101E50001FFA89F505F112081FFA88F8404693F831
:101E600009A093F808B0019101F0AEF804460028EB
:101E7000E1D0EE2307200BEB0A2189B2A673360AC4
:101E8000A8F1060C019AE6730E0A2173667301F538
:101E900000114FEA2C26227223704A466370A37009
:101EA000E370E071A7716772A772E772890184F825
:101EB00004C0667104F1100002F06EFC05F111031C
:101EC00005F11002A0449BB292B25D1E08F8027C9C
:101ED00008F8017C0632635D22442544601D10F839
:101EE000011F0B44DBB290422B70F8D1012003B0EC
:101EF000BDE8F08F08B50720044901F081F8BDE87E
:101F000008400620024901F07BB800BF2D1E0000EA
:101F1000B11D000070B5164C1649A3680A689D6A89
:101F2000D88C521B92B290429A8438BFDA84DA6914
:101F3000096801329962DA6100F0A6FBA5686E8932
:101F400046B9618831B1E36823B160689847A568F4
:101F500000B1668000F0A8FBA36828841A8C598C15
:101F60000420914238BF5A8400225A8170BD00BFBC
:101F7000B80D0020380A002003784BB310B5427B1F
:101F800000F10D016F2A05D0427B6F2A22D0002379
:101F9000184610BD827B6E2AF6D1C27B002AF3D18F
:101FA000012B3AD9437F00F11D04612B3ED0652BF4
:101FB00055D02046424902F004FC00287DD020463E
:101FC000404902F0FEFB0028E1D10422104639E02E
:101FD000184670474A780131662AD8D111F8012F86
:101FE000662AD4D14A78002AD1D1012B30D9437F37
:101FF00000F11D04612B3ED0652B48D020463049AE
:1020000002F0DFFB00284FD10822D24301232E49E2
:10201000086802400A60184610BD2B4901230A686F
:102020006FEA12426FEA02420A60B1E7837F6C2BCB
:10203000BFD1C37F6C2BBCD190F82030002BB8D11E
:102040004FF6FF70204901230A6802430A609FE7A8
:102050001D4901230A68120C12040A6098E763788C
:10206000722BA6D1C37F722BA3D190F82030002B06
:102070009FD10120E6E7837F6C2BBFD1C37F6C2B00
:10208000BCD190F82030002BB8D1104ABEE763785D
:10209000722BB3D1C37F722BB0D190F82030002BBC
:1020A000ACD16FF00102B1E72046064902F089FB8E
:1020B00000287FF46CAF0422A7E708221046C1E78E
:1020C0003C550000405500003C0900200000FFFF87
:1020D0000EB4104B10B51B6883B0184006D10E4BE0
:1020E000588003B0BDE8104003B070470A4C06AA00
:1020F0006388606805991844019202F08BFB80B2F6
:102100000028EED063881844608003B0BDE810401A
:1021100003B070473C090020B80D0020F0B5002541
:102120000E4C83B04FF480610120256000F0C8FBA5
:1021300007460B4E2B462A460A490096092067603F
:1021400000F0B6FD03463046074A0849C4E90235A7
:1021500003B0BDE8F04000F0F1B800BFB80D0020BA
:1021600048550000151F00004C550000791F000065
:1021700030B40E4D622329466F2201F8C03F10464D
:1021800001230B4C05E0B3F5806F08D0104614F91D
:10219000012F01339BB201F8010F002AF3D16B80AC
:1021A000022301202B7030BC704700BFC80D0020F7
:1021B0008A55000038B5084BD3F8B8305C684CB18C
:1021C000054601E024682CB12946606802F0F9FA5E
:1021D0000028F7D1204638BDC80D002038B5037857
:1021E000DBB9D0F8B020374CD168638091F900207A
:1021F0007AB1012340F2014504F1BF0001E0AB4296
:1022000007D000F8012F638011F9012F0133002A54
:10221000F5D102230120237038BD0D30FFF7CAFF2E
:10222000E8B1C168002935D00023264C638091F9BC
:102230000020002AEDD0012340F2014504F1BF0047
:1022400001E0AB42E5D000F8012F638011F9012FC6
:102250000133002AF5D102230120237038BD194C27
:10226000682321466C2201F8C03F65200123164DEA
:1022700005E0B3F5806F08D0104615F9012F013342
:102280009BB201F8010F002AF3D1638002230120E1
:10229000237038BD0B4C682321466C2201F8C03FE7
:1022A00065200123094D05E0B3F5806FEDD01046A0
:1022B00015F9012F01339BB201F8010F002AF3D168
:1022C000E3E700BFC80D0020CE550000A255000076
:1022D0000FB4002310B582B004AA094C52F8041BB5
:1022E00004F1C0000192638002F094FA80B210B150
:1022F00002236080237002B0BDE8104004B0704734
:10230000C80D0020F0B583B000F0D6FA44687CB167
:102310000025094FD4E9011301355E1AE2683846F9
:10232000CDE900162946FFF7D3FF2468002CF1D130
:10233000012003B0F0BD00BFE855000070B50C46A9
:102340001546064602F047FA431E9BB20A2B13D8E5
:1023500084B11021012000F0B3FA0022074B01469E
:10236000C0E90164C5600260D3F8B80000F02AFA41
:10237000012070BD204670BD002070BDC80D00203A
:102380002DE9F041DFF8E8C09CF8C010202925D0E5
:102390000A2923D0BCF80280B8F1000F5AD00CF102
:1023A000C00E08F1FF34774605460022A4B203E0D0
:1023B00017F8011F202917D093B25E1CA1B1A242C9
:1023C00005F8011FB3B245D00A2A02F10102EFD18C
:1023D0002448FFF77DFF0020BDE8F0812248FFF789
:1023E00077FF0020BDE8F081002102444345517091
:1023F00030D29E44E41ABF330D460E460F461EFAF5
:1024000084F463440DE0A2B9FEB100EB051211445F
:102410004F731A780135ADB2BAB100210E469C4215
:1024200013D013F8012F202AEDD1002EEDD1002179
:10243000F5E700EB051601F1010C0E441FFA8CF1D3
:102440000F29727308D80126E9E7EDB20570012063
:10245000BDE8F0810025F9E70448FFF739FF0020C7
:10246000BAE700BF40560000205600005C5600004E
:10247000C80D0020F8B5414C4149D4F8BC300A6879
:102480009D6AD88C521B92B290429A8438BFDA84EB
:10249000DA69096801329962DA6100F0F5F8D4F876
:1024A000BC506E8936B92578012D11D0022D16D079
:1024B000D4F8BC5000F0F8F8D4F8BC3028841A8C5A
:1024C000598C0420914238BF5A8400225A81F8BDA9
:1024D0002C482670FFF754FF88B92578E6E7668810
:1024E000294F3146D4F8C034274898470028DFD018
:1024F0000023D4F8BC50638007F8C03CDAE72348D7
:10250000FFF758FE0746F0B18368C4F8B4001D48D1
:1025100098470028E1D1FA68608092F9003073B1E1
:1025200040F201401A4901E0854208D0AEB201F8FC
:10253000013F668012F9013F0135002BF4D10223DF
:10254000114F2370CDE7652272230F4F84F8C0200E
:102550002E4618463A460F4905E0B6F5806F08D07A
:10256000184611F9013F0136B6B202F8010F002BEF
:10257000F3D1022366802370B3E700BFC80D0020AB
:10258000380A0020CC0D0020880E0020CD0D002040
:10259000870E00207A560000012270B50025134CEA
:1025A00082B011461046257000F068F906461049C1
:1025B0002B462A46009109200E49C4F8B86000F065
:1025C00077FB03460C4A0D490D48C4F8BC30FFF7B1
:1025D000B5FE0C4A0C490D48FFF7B0FE0C4A0D49F8
:1025E0000D4802B0BDE87040FFF7A8BEC80D00203E
:1025F000905600007524000098560000DD21000070
:10260000BC560000C456000071210000EC560000CA
:10261000F4560000052300000457000010B5074CD5
:1026200007492046FEF7B6FA2046FEF77BFABDE8DA
:10263000104004490448FEF7ADBA00BF780B0020F3
:102640002451000070510000980B0020037903B161
:1026500070470B4910B48A880A4C0132206892B244
:102660000130B2F57A7F206003D25DF8044B8A8096
:1026700070470A685DF8044B01328B800A6070472E
:102680003C0A0020380A002010B5064C2046FEF710
:102690004FFA0022A3682046BDE810409A64FEF776
:1026A00041BA00BF980B0020064810B583689C6CA7
:1026B000FEF732FA4FF6FF70A04228BF204680B2E4
:1026C00010BD00BF980B002038B54FF40041012326
:1026D0000F48104A0374C0E9021200F021F94FF0CC
:1026E00000430D4A1B7001339342FBD14FF001446C
:1026F000372503234FF000414FF40022074825708F
:102700000374BDE83840C0E9022100F009B900BFF8
:102710008C120020A012002000000880A09200204F
:1027200000220A2108B50B4BC3E90022C3E90222AB
:10273000C3E90422197100F011F800F005F900F066
:1027400047FB00F08DFAFFF727FFBDE80840FFF7D1
:10275000E5BC00BFB4920020704700BFFFF75EBF2A
:10276000F1B10346E0B10278022A19D94268FAB100
:102770008A4210B4826815D08A42D1E9002008BF8D
:10278000986008B102600A6802B1506000225C885B
:102790001046013C5C80C1E900225DF8044B7047A3
:1027A000012070478A4207D0D1E900205A60E8E74B
:1027B000428082600220704700200A68C3E901005D
:1027C0004868DEE74388F0B5D0F804E00133438081
:1027D000BEF1000F36D044780578012C2CD0022DA4
:1027E00027D0042D25D000263746022D734694BFEE
:1027F000D1F804C0D1F808C008E0032C01D162452B
:102800000CD91A681E46974216D01346022D94BF63
:102810005A689A68022CF0D16245F2D39E450FD0D7
:1028200006B13160022D0B6002D94E6003B15960D0
:10283000F0BD77468668D8E7866833688160F0E740
:102840004160EDE70378022B08D80CBF0960C1F89E
:1028500000E00123C0E901114380F0BD042B0CBF4F
:10286000C1E90011C1E900EEF3E700BF00234170A8
:10287000C0E9013302704380704700BF38B50D4690
:102880000C21144600F01CF828B10023C0E90133E4
:1028900045700470438038BD10B50821012000F058
:1028A0000FF80024034904608A894460531C8B811B
:1028B00010BD00BFB492002000487047440A0020B9
:1028C00011F003031CBF0431C91A134B70B45B68C9
:1028D0000446184613B90CE0006850B1027CA242CD
:1028E000FAD1D0E901265518B542F5D2C168456044
:1028F000881800B9FEE70022084EC6E904224BB151
:102900001146D3E901451B6829442244002BF8D124
:10291000C6E9041270BC7047440A0020B49200203B
:1029200018B1C3680BB183680BB90120704710B5AB
:1029300000240146C0E900440248FFF743FF204657
:1029400010BD00BF440A0020012208B5114603480B
:10295000FFF78CFFBDE80840FFF7B6BE440A002031
:10296000F8B50D460821FFF7ABFF164B0646DA799E
:102970000132DA7145B90122057011461046FFF7A0
:102980007DFF70603046F8BD0120757030701A8987
:10299000A9002A441A81FFF793FF013DEDB20135EA
:1029A00007460024AD00706000E077680122114600
:1029B0001046FFF763FF38510434AC42F5D130467E
:1029C000F8BD00BFB4920020436870B55C6806464D
:1029D0000D4614B906E0246824B12379AB42FAD13C
:1029E000204670BD0C210120FFF76AFF0122002361
:1029F0000446114603601046FFF740FF0346257169
:102A000070682146A360FFF7DDFE034A2046138964
:102A10000133138170BD00BFB492002038B5436804
:102A200005460C4613B905E01B681BB15A68944271
:102A3000FAD138BD08210120FFF742FF00230146EB
:102A40002846C1E90034FFF7BDFE024A538901332D
:102A5000538138BDB4920020C8B138B51446AAB12C
:102A600005785DB10A46417891420FD94368214605
:102A700053F82200BDE83840FFF7D0BFFFF7A4FFAE
:102A80002146BDE838408068FFF7C8BF38BD7047B1
:102A90000378012B0AD04368586810B90AE000682F
:102AA00048B103798B42FAD18068704743788B42F2
:102AB00002D8002070477047436853F821007047E0
:102AC00080B138B5FFF7E4FF50B1446815463CB11A
:102AD000636813B12846984730B92468002CF7D1B1
:102AE000002038BD00207047012038BD2DE9F0419D
:102AF000DFF83880D8F800305D687DB100260A4FD5
:102B000038682C462D682146C4E90066FFF75AFE56
:102B10003868E061002DF4D1D8F800300022C3E914
:102B200001225A80BDE8F081D0920020D49200208A
:102B300038B504460C4B0146C0691D68FFF710FE0E
:102B4000002201212369A2735B1928BF0A46217361
:102B5000A3603AB1054D21462868FFF733FE2B6884
:102B6000E36138BD024DF6E7380A0020D492002018
:102B7000D09200202DE9F84F344F354C3B68226845
:102B8000986AD98C121A92B291429A8438BFDA8428
:102B9000DA6921680132DA619962FFF775FD3D68F3
:102BA0006B89002B33D12B4B25681A682A4EAA4219
:102BB00088BF01221D60336888BFDFF8A0A05C6871
:102BC00094BFDFF898A08AF80020E4B14FF0010923
:102BD0004FF00008A368AB4202D99AF80030ABB1BD
:102BE00063690BB1A0699847637B012B1DD02368F3
:102BF000214684F80E9084F80C801C463068FFF75C
:102C0000AFFD002CE6D19AF80030BBB93D68FFF764
:102C10004BFD3B6828841A8C598C0420914238BFA4
:102C20005A8400225A81BDE8F88FD4F800B02046BB
:102C30005C46FFF77DFF002CCCD1E4E7FFF756FFA1
:102C400000233D688AF80030E1E700BFCC92002005
:102C5000380A0020500A0020D0920020540A002098
:102C600030B5032283B002210120FFF707FE0121C6
:102C700004460A4B084603221C60FFF7FFFD0023B1
:102C800005460749074C00911A4618460649256033
:102C900000F00EF8054B186003B030BDD092002054
:102CA00008570000D4920020752B0000CC92002021
:102CB0002DE9F0420546894601202C211F46164683
:102CC000FFF7FEFD0023092D0446C0E904960572B6
:102CD000C76043811CD82B46124F03EB430307EB1D
:102CE00083072146B868FFF76DFD7B68ABB1002212
:102CF0000D4906984B7825720133DBB24B70637235
:102D0000A061C4E907222046C4E90922BDE8F08297
:102D10000922134615460272DEE7BB685B687B60DA
:102D2000E5E700BFDC920020B492002038B508210E
:102D300004460120FFF7C4FD0025034944604A888A
:102D40000580531C4B8038BDB492002070B51E4CDA
:102D50000022214604F178008B685B682BB1C3E93F
:102D600007225A621B68002BF9D10C318842F3D13B
:102D7000164D62682C60144C2346264692B1D2E967
:102D8000043098472B6818B15A6812685A6092B19B
:102D9000A3420ED0A3682C605A680B4B6260344685
:102DA000002AECD19A6852685A601B685A682B60F6
:102DB000E4E75A68E2E7A342ECD19A6852685A60A5
:102DC0001B685A682B60D9E7DC920020D89200205B
:102DD0002DE9F041104D0124A84600270F4E012196
:102DE0000322C8F804700846FFF748FDA6FB042339
:102DF000DB0803EB8303A4EB430303EB430301343E
:102E000005EB83030B2CC8F8080048F80C3BE6D10F
:102E1000034B1D60BDE8F081DC920020CDCCCCCC12
:102E2000D89200202DE9F047274D6A68538A546AEA
:102E30000B2B1A4604EB030834D940F2F477234EE7
:102E4000DFF8909023E0A388991DBB4204EB030AAE
:102E500089B203F10C0E20D8F44525D3BAF80AA0A4
:102E6000FEF726FE824529D1E28849460420FFF775
:102E70002FF9E1882246A868090AFFF721FEA388F6
:102E80000C331C44A8EB040293B20B2B0AD9236821
:102E9000201DB3421FFA82FCD5D000226B685A82F3
:102EA000BDE8F087002BFBD06B68586AA042F7D0D2
:102EB0002146BDE8F04792B201F06EBC0120044902
:102EC000FFF706F9E9E700BF6093002068796E6EAE
:102ED0002C5700001057000038B5174C1749E3680D
:102EE0000A689D6AD88C521B92B290429A8438BF6D
:102EF000DA84DA69096801329962DA61FFF7C4FBA2
:102F0000E5686B8953B96068C36BDB699847FFF765
:102F100089FF6068C36BDB699847E568FFF7C4FB0E
:102F2000E36828841A8C598C0420914238BF5A8453
:102F300000225A8138BD00BF60930020380A00206B
:102F4000F0B583B00E4617460446FFF7A5FC1A4DB0
:102F50001A492A460346009102201949FFF7A8FEA4
:102F6000034606210120EB60FFF7FAFCA86000F0A1
:102F7000DBFA4FF4006301211A4601F05DF84FF6C9
:102F8000FF729642034668600CD08686C78630334F
:102F9000621EE01C12F8011F904203F8011BF9D1D8
:102FA00003B0F0BD0749A2F1F822A2F11A12C0E95C
:102FB0000C1203B0F0BD00BF609300204857000022
:102FC000D92E0000C0A8001E0C4B5A68D37A032BE0
:102FD0000CD110B4138C148A1B1B834209DB916A39
:102FE0002318138208195DF8044B704700201082E3
:102FF000704700205DF8044B704700BF70930020BD
:10300000024B0A4601469868FFF726BD70930020E0
:10301000002A60D0002B5ED02DE9F0432F4C65686C
:10302000EC7A032C52D12F8A2E8C03F10A04F61B62
:10303000A4B2A64247DBD5F828C03C442C821CEB46
:10304000070440D04FF0EE0E154603F104085E1E53
:103050001FFA88F8B6B24FEA182901360CF807E0D3
:103060001644E07184F8059084F8048084F801E047
:1030700084F802E084F803E0A171C2F108002A1884
:1030800015F8011B92B2B542A154F8D14FF6FD706C
:10309000002103F1080203F10905ADB292B28342A7
:1030A000A154615525440BD0A21D9E1C12FA86F630
:1030B000621D12F8010F0144C9B296422970F8D17D
:1030C0001846BDE8F0830020BDE8F08300231846D1
:1030D0002B82BDE8F0830020704700BF7093002072
:1030E000F0B4254D6A68568A082E3ED99379506A05
:1030F0007BB1431E02F13001C71C13F8014FBB42E4
:1031000001F8014BF9D101794379083003EB012330
:103110006B800378FF2B23D14378FF2B20D183785A
:10312000FF2B1DD1C378FF2B1AD18488A31C9BB21F
:103130000533B34219DA012C00F106071AD03946DB
:103140000023023CA6B2F51D054411F8014B2344AF
:10315000A942DBB2F9D1013637443978994207D018
:10316000002318465382F0BC70470020F0BC704723
:103170000430F8E70023F0E77093002070B51B4C93
:103180001B49E3680A689D6AD88C521B92B2904230
:103190009A8438BFDA84DA69096801329962DA619F
:1031A000FFF772FAE5686E898EB96068C36BDB69F8
:1031B0009847FFF795FF0246B0B1C178A068FFF7C6
:1031C0007FFC60684682C36BDB699847E568FFF760
:1031D0006BFAE36828841A8C598C0420914238BF1A
:1031E0005A8400225A8170BD6068ECE77093002019
:1031F000380A002010B582B0FFF74EFB104C114981
:1032000022460346009109200F49FFF751FD03466E
:1032100000210120E360FFF7A3FBA06000F084F928
:103220004FF4006302211A4600F006FF012307490C
:10323000074A6060C0E90C12837102B010BD00BF84
:1032400070930020505700007D310000C0A800643A
:10325000F04EF14E00220F210148FDF781BB00BF67
:10326000640A002001220F210148FDF779BB00BF4D
:10327000640A00200279034B012A0CBF01220222BA
:103280001A6070478093002010B5002240F203714D
:1032900004461E48FDF764FB0120FFF75DFA1C4B56
:1032A0009B68DA789206FCD5C4F307421A71DA7883
:1032B000D209FCD01A79DA789006FCD5C4F307223B
:1032C0001A71DA78D209FCD01A79DA789106FCD52D
:1032D000E4B21C71DA78D209FCD01A79DA78920655
:1032E000FCD500221A71DA78D209FCD01C790120B1
:1032F000FFF732FA012240F203710448FDF730FB78
:10330000E4B20120FFF728FA204610BD640A00202D
:10331000400B002038B5054600220C461F4840F2FD
:103320000371FDF71DFB0120FFF716FA1C4B45F05A
:1033300004009B68DA789206FCD5C0F307421A7144
:10334000DA78D209FCD01A79DA789506FCD5C0F380
:1033500007221A71DA78D209FCD01A79DA78910644
:10336000FCD5C0B21871DA78D209FCD01A79DA78B3
:103370009206FCD51C71DA78D209FCD01C790120A8
:10338000FFF7EAF9012240F203710448FDF7E8FA79
:10339000E4B20120FFF7E0F9204638BD640A0020BE
:1033A000400B0020002963D02DE9F04116460AB9F0
:1033B000BDE8F0811F4680460D46002240F20371B1
:1033C0002C48FDF7CDFA0120FFF7C6F90FB948F0F8
:1033D000040829488468E3789A06FCD5C8F30743B3
:1033E0002371E378DB09FCD02379E3789B06FCD5D5
:1033F000C8F307232371E378DB09FCD02379E37852
:103400009906FCD55FFA88F884F80480E278D3093D
:10341000FCD029465525731E227911FA83F3E278F0
:103420009206FCD567B12571E278D209FCD02279E9
:103430008B420A7001F101020CD011468468EEE75C
:103440000A782271E278D209FCD08B42227901F10C
:103450000102F2D10120FFF77FF9012240F203714E
:103460000448FDF77DFABDE8F0410120FFF774B98B
:10347000704700BF640A0020400B002010B5244CA8
:1034800024492046FCF7F8FEA36818B91A7842F0E0
:1034900040021A70012284F82020DA7A1C4842F097
:1034A0004002DA72FDF712F8A36807211A786FF369
:1034B00045121A701A786FF3C7121A701A8A42F0FE
:1034C00001021A821A8A42F002021A821A8A6FF3E1
:1034D00083021A821A8A6FF306121A821A8A6FF30B
:1034E000C7121A821A8A61F30B221A821A8A6FF3A0
:1034F0000C321A821A8A42F400521A821A8A42F450
:1035000080421A821A8A42F400421A8210BD00BF19
:10351000400B0020EC510000024B9878421C9A703E
:1035200040B2704784930020004870478493002085
:10353000F8B5042601270546007916FB0070C00087
:1035400000F50070FFF7A0FE0446287904F01F0183
:1035500016FB0070C00000F50070FFF7DBFEE60709
:1035600048BFAF73A00744BF0323AB73610744BFD9
:1035700002236B73220703D501220023EA712B7308
:10358000E30644BF00232B73F8BD00BF2DE9F041D3
:103590004701083707F51858002607F51C5701E0C2
:1035A000A64219D04046FFF76FFE05463846FFF7A2
:1035B0006BFE2D02ADB2284484B2002CF0D0404600
:1035C000FFF762FE05463846FFF75EFE2D02ADB2FC
:1035D000284486B2A642E5D13046BDE8F08100BF5E
:1035E0002DE9F0414701083707F50058002607F597
:1035F000045701E0A64219D04046FFF745FE0546B4
:103600003846FFF741FE2D02ADB2284484B2002CAB
:10361000F0D04046FFF738FE05463846FFF734FE47
:103620002D02ADB2284486B2A642E5D13046BDE8AF
:10363000F08100BF2DE9F04104460079FFF7A6FFB5
:103640000646002869D004254FF00108207915FBB3
:103650000080C00000F52050FFF716FE23790746D2
:1036600015FB0383DB0003F52450FFF70DFE032257
:10367000237900EB072015FB0323618A626A87B276
:10368000380200EBC300114443463246FFF78AFE7E
:103690002079374415FB0080C000C7F3072100F5EF
:1036A0002050FFF737FE2079BFB215FB0080C00025
:1036B000F9B200F52450FFF72DFE4FF4FA70FFF732
:1036C0004BF8207915FB0080C00000F52050FFF773
:1036D000DBFD2379074615FB0383DB0003F524504C
:1036E000FFF7D2FD237900EB072015FB0383DB00F6
:1036F0004021A06303F58070FFF70CFE4FF4FA70D1
:10370000FFF72AF8207915FB0085ED0005F580709C
:10371000FFF7BAFD638A334463823046BDE8F08127
:103720002DE9F04204460079FFF75AFF238A8342CD
:1037300001D8237B13B10020BDE8F08204250126C7
:10374000207915FB0060C00000F50070FFF79CFDBC
:10375000C20651D4030745D46379022B56D0042501
:103760000126207915FB0060C00000F51050FFF71E
:103770008BFD2379814615FB0363DB0003F51450B1
:10378000FFF782FD0222237900EB092915FB0323B1
:103790004FEA0920228AA16A00EBC3000023FFF749
:1037A00001FE2379278A15FB03634F44D800C7F332
:1037B000072100F51050FFF7ADFD2079F9B215FB98
:1037C0000060C00000F51450FFF7A4FD207920210F
:1037D00015FB0060C00000F58070FFF79BFD207CAA
:1037E000BDE8F0822079082115FB0060C00000F5DB
:1037F0000070FFF78FFDAFE72079102115FB006007
:10380000C00000F50070FFF785FDA5E7042501263F
:1038100020792A4615FB0060C000002304F1300126
:1038200000F54060FFF7BEFD2079A18E15FB00601A
:10383000C000090A00F58050FFF76CFD207994F86C
:10384000341015FB0060C00000F58850FFF762FDE2
:1038500085E700BFC36A2DE9F0411A88044612B318
:10386000B2F5D67F19D15A685F4B11681B68526850
:103870005B1A9A4272D82079400100F54270FFF736
:1038800003FD63790546012B82B200F08E80022B86
:1038900068D00422E36AE27200E000250022284694
:1038A0001A80BDE8F08140792379012800F08380F7
:1038B000014658010830FFF72DFD01260425207927
:1038C00015FB0060C000FFF7DFFC2079E18E15FBDF
:1038D0000060C000090A00F58060FFF71BFD207939
:1038E00094F8361015FB0060C00000F5A060FFF7EB
:1038F00011FD207915FB0060C00000F58060FFF726
:10390000C3FC207915FB0060C00000F5A060FFF744
:10391000BBFC6679012E55D0012504262079294665
:1039200016FB0050C00000F58070FFF7F3FC207913
:1039300016FB0050C00000F58070FFF7A5FCE26A9E
:103940005368002B97D00A244FF4D671264800689C
:10395000C3E9000428461180BDE8F081012528460E
:10396000BDE8F081222A94D10023032204264FF0DF
:1039700001082079E37116FB0080C00023612372E7
:10398000A381A373E27200F52050FFF77DFC237939
:10399000074616FB0386F60006F52450FFF774FC75
:1039A00000EB0720E36AA06378E7132A7FF471AF86
:1039B00000230222DAE700EB83002121C000FFF799
:1039C000A9FC7AE72079052115FB0060C00000F50D
:1039D0003C50FFF79FFC207915FB0060C00000F50C
:1039E0003C50FFF751FC97E7380A002070B50446B9
:1039F0000125FFF79DFD207905EB8000C00000F553
:103A00004070FFF741FCE26A172808BFA5731388CE
:103A10009BB1B3F50F7F45D1A37B012B3DD05168FE
:103A2000294B08681B6849681B1A994249D8042128
:103A30000023E1720320138070BD04260125207944
:103A4000324616FB0050C00000F5406004F1300122
:103A5000FFF7A8FC2079A18E16FB0050C000090AD0
:103A600000F58050FFF756FC207994F8341016FBCF
:103A70000050C00000F58850FFF74CFC207931461B
:103A800016FB0050C00000F58070FFF743FCE26AAF
:103A900053685BB9A37B012BC9D100200323A16923
:103AA0004860E37200230320138070BD4FF47A76E0
:103AB0004FF40F71044C28462468C3E90046118076
:103AC00070BD012070BD00BF380A002040F2812186
:103AD000C26A70B5138804468B4209D040F28D212A
:103AE0008B4238D0002B43D000230320138070BDBD
:103AF0005268354B11681B6852685B1A9A4235D878
:103B00002079400100F54270FFF7BEFB10B10022A2
:103B1000E36B1A700426012520791F2116FB005043
:103B2000C00000F50070FFF7F5FB207916FB005090
:103B3000C00000F50070FFF7A7FBE26A536893B17D
:103B40004FF4FA6640F28D211F4C28462468C3E9E1
:103B50000046118070BD51681B4B08681B6849689E
:103B60001B1A994202D80123E372BDE7012070BD00
:103B700004250126007915FB0060C00000F54070A7
:103B8000FFF782FB70B9E26A5368002BB8D04FF49C
:103B9000FA7440F281210C485C60046801201C60CA
:103BA000118070BD2079102115FB0060C00000F568
:103BB0008070FFF7AFFB207915FB0060C00000F5B7
:103BC0008070FFF761FBDEE7380A002038B5038A12
:103BD0000446002B33D1E36A1A88FAB140F2C521BA
:103BE0008A4228D15A681C4D11682B6852685B1AAA
:103BF0009A4201D9012038BD2046FFF799FC2046A2
:103C0000FFF718FD10B1002363732372A37B042B0D
:103C10001CD0E379012B19D0E36A00E00E4D5A68FD
:103C2000002AE9D0052440F2C5212868C2E9000431
:103C30000120198038BD002203201A8038BDFFF70B
:103C40006FFD0028C7D000232382C4E7002204238D
:103C50002282E372E0E700BF380A002040F2093117
:103C6000826910B5138804468B422FD04FF00000B4
:103C700017D8002B47D040F205318B4223D1526830
:103C8000264B11681B6852685B1A9A4239D8FFF7B5
:103C9000E9FAA26953680BB34FF47A7440F2093120
:103CA00028E040F20E318B420DD152681B4B116857
:103CB0001B6852685B1A9A4223D80020FFF7E4FA87
:103CC0000123A26923700023138010BD5268134B97
:103CD00011681B6852685B1A9A4212D88021002032
:103CE000FFF718FBA2695368002BE6D04FF4FA7473
:103CF00040F20E3109485C60046801201C601180AC
:103D000010BD012010BDFFF7A5FAA2695368002B72
:103D1000BDD0642440F20531ECE700BF380A002032
:103D2000826913881BB10023042013807047F0B50B
:103D3000062283B03C4905464FF41060FFF732FB82
:103D40000123062269464FF41060FFF72BFB6C46F7
:103D50006B46FF27354A0DF1060613F8011B12F8D2
:103D6000010F884218BF03F8017CB342F5D100234C
:103D700004224FF480702E49FFF714FB0123042224
:103D800069464FF48070FFF70DFBFF276B46284A0A
:103D900001AE13F8011B12F8010B884218BF03F89B
:103DA000017CB342F5D1002304224FF4A0602149E5
:103DB000FFF7F8FA0123042269464FF4A060FFF7E9
:103DC000F1FAFF276B461B4A13F8011B12F8010B8F
:103DD000884218BF03F8017CB342F5D100230422C6
:103DE0004FF470601449FFF7DDFA01234FF470605F
:103DF00069460422FFF7D6FAFF200F4B14F8012B77
:103E000013F8011B914218BF04F8010CB442F5D11C
:103E10004FF43850FFF738FA032304202B700023A7
:103E2000AA69138003B0F0BD939300209293002001
:103E30008F9300208B93002087930020836910B517
:103E40001A8804469AB140F299318A4220D15A68C0
:103E5000124B11681B6852685B1A9A421CD84FF4C7
:103E60003850FFF711FAC30760700ED5A3695A687E
:103E7000002AF4D04FF47A7440F299310748546024
:103E8000046801201460198010BD0322A369227008
:103E9000002203201A8010BD012010BD380A002026
:103EA000836910B51A8804469AB140F2C1318A423A
:103EB00020D15A68124B11681B6852685B1A9A42EB
:103EC0001CD84FF43850FFF7DFF9C30760700ED4E9
:103ED000A3695A68002AF4D04FF47A7440F2C131D1
:103EE00007485460046801201460198010BD022244
:103EF000A3692270002203201A8010BD012010BD8A
:103F0000380A00200378032B0BD8DFE803F00406FF
:103F10000802FFF7C5BFFFF7A1BEFFF701BFFFF71C
:103F20008DBF704710B50446C06BFFF7EBFF104B19
:103F30001B78022B07D1E37A013B032B03D8DFE880
:103F400003F0080D120310BD2046BDE81040FFF736
:103F5000BDBD2046BDE81040FFF77CBC2046BDE853
:103F60001040FFF743BD2046BDE81040FFF72EBECE
:103F7000849300202DE9F8430027184E8946144603
:103F800005469846FFF77AFA154B3770F361FEF74E
:103F900083FCFEF7CBFE134AB0613262691E09F161
:103FA000FF33013CB770033508F1FF30F21C11F804
:103FB000017F02F8017B13F8017FA942D77014F842
:103FC000017FD77110F8017FD772F0D198F80430D3
:103FD000F37498F805303375BDE8F88384930020B6
:103FE000253F000019350000F0B504466FF07F460C
:103FF0000E4887B00D4603C8ADF8141021680C4F69
:1040000004900C48013102960197039005D029468F
:104010002046FFF7AFFF07B0F0BD04AB01AA02A92D
:1040200003A8FFF7A7FF07B0F0BD00BF1C550000B5
:10403000C0A80001C0A800032DE9F84F8146006A1E
:104040008A4690461F4680470546002DFDDB4021ED
:104050000120FEF735FC00264FF0010B04464146D7
:10406000057180F805A0C0F83C90A0F82080478436
:10407000C67186818673066180F80BB05846FEF7DC
:104080001FFC3946A0625846FEF71AFC6062FEF734
:1040900003FCE061FEF700FCE369A0615E60FEF7EF
:1040A000FBFBFEF743FE03462046E362BDE8F88FC4
:1040B000084B10B50A461B6872B64FF0FF34064B2A
:1040C000014606481C60FCF7D3FF62B6B0FA80F0E8
:1040D000400910BD380A0020580A0020D40A0020E8
:1040E000F8B5134F064615460C463B6872B64FF0BE
:1040F000FF3C104F134602460F48C7F800C0FCF7BC
:1041000077FF62B678B9AD080FD004EB85050436A9
:104110002B1F211F351B01E0994206D0685851F82A
:10412000042F9042F8D00020F8BD0120F8BD00BF58
:10413000380A0020580A0020D40A00200B46014605
:10414000184600F029BB00BF0378032B06D8DFE830
:1041500003F00A020E060122074B1A607047032281
:10416000054B1A6070470022034B1A607047022209
:10417000014B1A60704700BF580A002008B5084973
:104180000848FCF76BFE08B1002008BD024602217A
:104190000448FCF7DFFFB0FA80F0400908BD00BF1B
:1041A00010510000D40A0020F8B58479FCB9034608
:1041B000C07A997A5A7A01EB0021187A02EB01222F
:1041C00000EB02204FF480611F7900F02DFA0126E8
:1041D0000425084A214650710823032017705470A3
:1041E0009470D47094711671D571FEF711FF01208F
:1041F000F8BD00BFA8930020F8B58479F4B9034650
:10420000407A1D7A9A7AD97A05EB002502EB0121D2
:10421000284603F10C021F7900F030FA0646084ADE
:10422000280AD07121460823042017709571547014
:104230009470D47016715471FEF7EAFE0120F8BD37
:10424000A893002070B5857945BB0A210426447ADD
:10425000037A134A03EB04231268124C0079A1700D
:10426000110A9BB26171110C2271A171120E190A0F
:104270002070E271184604F1300261724FF48061DF
:1042800023726570E570A572E67200F02BFA224683
:10429000294640F20C430520FEF7BAFE012070BD0E
:1042A000C49B0020A893002010B500214FF4807417
:1042B00082B006236A4601200091ADF80440FEF763
:1042C000A7FE02B010BD00BF08B503794BB98379D2
:1042D0000BB1012008BD00F097F9FFF7E5FF0120C1
:1042E00008BD002008BD00BF10B584B068B900F05B
:1042F0008BF9002101240C2301AA0220CDE90241FF
:104300000191FEF785FE04B010BD00F083F9F0E7DF
:1043100008B5437913B9C079FFF7E6FF012008BD5E
:1043200008B501200A49FEF76BFE02200949FEF795
:1043300067FE03200849FEF763FE04200749FEF7E5
:104340005FFEBDE8084005200549FEF759BE00BFE5
:10435000C942000011430000A9410000F9410000DA
:1043600045420000704700BF4FF4803318680130A9
:1043700018BF0120704700BF72B601225A4BC3F824
:104380008020BFF34F8FBFF36F8F0221C3F88010DF
:10439000BFF34F8FBFF36F8F0421C3F88010BFF3BB
:1043A0004F8FBFF36F8F0821C3F88010BFF34F8F7B
:1043B000BFF36F8F1021C3F88010BFF34F8FBFF38F
:1043C0006F8F2021C3F88010BFF34F8FBFF36F8F23
:1043D0004021C3F88010BFF34F8FBFF36F8F802150
:1043E000C3F88010BFF34F8FBFF36F8F4FF480710E
:1043F000C3F88010BFF34F8FBFF36F8F4FF400717E
:10440000C3F88010BFF34F8FBFF36F8FC3F88010D6
:10441000BFF34F8FBFF36F8F4FF40021C3F88010AD
:10442000BFF34F8FBFF36F8F4FF48011C3F880102D
:10443000BFF34F8FBFF36F8F4FF40011C3F880109D
:10444000BFF34F8FBFF36F8F4FF48001C3F880101D
:10445000BFF34F8FBFF36F8F4FF40061C3F880102D
:10446000BFF34F8FBFF36F8F4FF48051C3F88010AD
:10447000BFF34F8FBFF36F8F4FF40051C3F880101D
:10448000BFF34F8FBFF36F8F4FF48041C3F880109D
:10449000BFF34F8FBFF36F8F4FF40041C3F880100D
:1044A000BFF34F8FBFF36F8F4FF48031C3F880108D
:1044B000BFF34F8FBFF36F8F4FF40031C3F88010FD
:1044C000BFF34F8FBFF36F8F4FF48021C3F880107D
:1044D000BFF34F8FBFF36F8FC3F88020BFF34F8FB1
:1044E000BFF36F8F72B6704700E100E058B94FF428
:1044F0008233094A9360BFF34F8FBFF36F8F1B68FE
:1045000083F3088870470023034A9360BFF34F8FFB
:10451000BFF36F8F1B68FFDE00ED00E010B5FFF703
:104520002BFF0020FFF7E2FFBDE81040014B1B68A6
:10453000184700BF0404010070B5314C314EA36927
:104540003268986AD98C121A92B291429A8438BF12
:10455000DA84DA6931680132DA619962FEF794F837
:10456000A5696B89E3B1F92B35D12378C3B9EA6822
:104570003368D2E900125B1A9A421AD8FFF7F4FEA8
:10458000002839D10023A5696B81FEF78DF8A36956
:1045900028841A8C598C91422CD203205A8470BDE5
:1045A000EB688BB142F21070F9223168C3E9001058
:1045B0006A81FEF779F8A36928841A8C598C914294
:1045C00016D201205A8470BD2378002BD6D02378D0
:1045D000002BF9D1D2E7FEF767F8A36928841A8C7B
:1045E000598C0420914238BF5A8400225A8170BDF0
:1045F000012070BD032070BDFFF790FFC2E700BF30
:10460000A89B0020380A00200122014B1A70704735
:10461000A89B002008B5FFF7A7FE08B9002008BD39
:10462000FFF77CFF002008BD114B984201D9012003
:10463000704770B504460D464FF480300A21FFF7ED
:1046400037FD90B1B4FBF5F2002105FB1240094B98
:10465000094EC3E90115D960346000B101324FF44D
:1046600082310020C3E9042170BD022070BD00BF6B
:1046700000FC0400A89B0020C49B002038B5164C09
:10468000E368834201D0042038BD0D4660691146BD
:10469000A268FFF725FDD8B1D4E901106269E3688B
:1046A00002442069013329448342E360626161600E
:1046B0000CD30A4A116813685B1A632BFBD980225A
:1046C0004FF480300649FFF70BFD18B1002038BDCC
:1046D000032038BD052038BDA89B0020380A0020E3
:1046E000C49B00200B4603FB00F0114600F5803010
:1046F0001A46FFF723BD00BF30B500250D4C83B02F
:1047000080224FF480310C48257000F045F8FEF708
:10471000C3F80A4903462A46009104200849FEF7D7
:10472000C7FAA061FFF7FCFD03B0BDE83040FFF71A
:1047300019BE00BFA89B0020C49B00205857000052
:104740003945000010B572B60F4CFFF717FDFDF7A5
:10475000ABFA206800F11C0300F1140200F1100113
:104760000830FFF741FC2068028B418B0C30FEF7CC
:10477000E7FBFEF73FFDFFF7BFFF6420FDF75AFAA6
:10478000FDF7B8FB62B610BD38090020014B186870
:10479000704700BF400900200A44431E914200D1E7
:1047A000704710B511F8014B914203F8014FF9D150
:1047B00010BD02440346934200D1704703F8011B29
:1047C000F9E710F8012B11F8013B012A28BF9A42A2
:1047D000F7D0D01A7047034613F8012B002AFBD1FB
:1047E000181A01387047FFFF00B59BB00091049183
:1047F0006FF000410591029105490391694600F06F
:104800006FF8009B00221A701BB05DF804FB00BF1C
:104810000802FFFF13460A46014602480068FFF7F8
:10482000E3BF00BF400900202DE9F0478E688246B3
:104830000C4690469E421F4638D88A8912F4906FE3
:1048400032D0256801330969A5EB0109656905EBDB
:1048500045054B4405EBD5756D109D4238BF1D468F
:10486000530531D5294600F049FB064650B90C23C3
:104870004FF0FF30CAF80030A38943F04003A38112
:10488000BDE8F0874A462169FFF786FFA38923F434
:10489000906343F08003A38126614E446561A5EBDC
:1048A000090526603E46A560BE4200D93E46324616
:1048B0004146206800F0B8FAA368226800209B1BDC
:1048C0003244A3602260DBE72A4600F071FB064613
:1048D0000028E1D12169504600F0C0FAC7E7FFFF88
:1048E0002DE9F04F98468B899DB007461B060D4673
:1048F00014460ED50B6963B9402100F0FFFA286019
:10490000286120B90C233B604FF0FF30D1E04023F9
:104910006B610023CDF80C804FF00109DFF8AC810A
:10492000099320238DF8293030238DF82A3023462F
:104930009A4613F8012B0AB1252AF9D1BAEB040BD8
:104940000BD05B46224629463846FFF76DFF013003
:1049500000F0AA80099A5A4409929AF80030002B74
:1049600000F0A28000234FF0FF320AF1010A049305
:1049700007938DF853301A93CDE905235446052249
:10498000524814F8011B00F041FA049AD8B9D00635
:1049900044BF20238DF85330110744BF2B238DF8DB
:1049A00053309AF800302A2B15D0079A544600202D
:1049B0004FF00A0C214611F8013B303B092B4ED930
:1049C000B0B1079214E0A0EB0803A24609FA03F382
:1049D00013430493D2E7039B191D1B68002B03911B
:1049E000BBBF5B4242F0020207930793B8BF049239
:1049F00023782E2B0CD163782A2B35D1039B0234DC
:104A00001A1D1B68002B0392B8BF4FF0FF330593AC
:104A1000DFF8C8A003222178504600F0F7F940B132
:104A20004023A0EB0A00013403FA00F0049B034387
:104A3000049314F8011B062225488DF8281000F075
:104A4000E5F9002838D0234B1BBB039B073323F029
:104A5000070308330393099B3344099367E70CFB6F
:104A600002320C460120A5E7002301344FF00A0C66
:104A700019460593204610F8012B303A092A03D92C
:104A8000002BC5D00591C3E70CFB0121044601238F
:104A9000F0E703AB2A4604A9384600930E4B00E02A
:104AA00000BF421C0646D6D1AB895B063FF52CAF52
:104AB00009981DB0BDE8F08F03AB2A4604A938461B
:104AC0000093054B00F07CF8EBE700BF5C5700005B
:104AD00066570000000000002948000062570000EF
:104AE0002DE9F047164699468A6807460B690C4639
:104AF000DDF820809342B8BF1346336091F843201D
:104B00000AB1013333602368990642BF3368023328
:104B10003360256815F0060506D104F1190AE3682B
:104B200032689B1AAB4229DC94F84320131E22689A
:104B300018BF012392062ED404F143024946384699
:104B4000C047013021D023681A3454F80E5C03F0BA
:104B5000060332680026042B54F8123C08BFAD1A35
:104B600054F80A2C14BF002525EAE5759342C4BF0A
:104B70009B1AED18B5421AD1002008E001235246D5
:104B800049463846C047013003D14FF0FF30BDE8F9
:104B9000F0870135C3E7E1185A1C30200233224464
:104BA00081F8430094F8451082F84310C4E70123CC
:104BB000224649463846C0470130E6D00136D9E79B
:104BC0002DE9FF470C46914680469A46277E04F120
:104BD00043020C99782F07D8622F0AD8002F00F0D3
:104BE000D880582F00F0A38004F1420684F8427068
:104BF0003AE0A7F16303152BF6D801A050F823F093
:104C0000594C00006D4C0000E94B0000E94B0000DE
:104C1000E94B0000E94B00006D4C0000E94B00003F
:104C2000E94B0000E94B0000E94B0000794D000022
:104C30009D4C00005B4D0000E94B0000E94B00007B
:104C40009B4D0000E94B00009D4C0000E94B00002B
:104C5000E94B0000634D00000B6804F142061A1D89
:104C60001B680A6084F842300123A3E025680868C5
:104C70002E0600F104030AD505680B60002D03DA47
:104C80002D236D4284F843305E480A2319E015F065
:104C9000400F05680B6018BF2DB2EFE70B68256861
:104CA000181D0860280601D51D6802E06906FBD5BD
:104CB0001D886F2F53480CBF08230A23002184F856
:104CC00043106668002EA660A2BF216821F004018F
:104CD00021600DB9002E4DD01646B5FBF3F103FB54
:104CE0001157C75D06F8017D2F460D46BB42F4D92A
:104CF000082B0BD12368DF0708D523696168994227
:104D0000DEBF302306F8013C06F1FF36921B22611C
:104D10004B4603AA21464046CDF800A0FFF7E0FE2F
:104D200001304CD14FF0FF3004B0BDE8F08735487A
:104D300084F8457023680E681F0656F8045B0E6001
:104D400014D5D90744BF43F0200323601DB923685D
:104D500023F0200323601023B0E7236843F02003EF
:104D600023607823284884F84530E3E75E0648BF8F
:104D7000ADB2E6E71646BBE70B6826681D1D606905
:104D80000D6035061B6801D5186002E07106FBD581
:104D90001880002316462361BAE70B681A1D0A60C3
:104DA00000211E686268304600F030F808B1801BB0
:104DB000606063682361002384F84330A8E72369B7
:104DC000324649464046D0470130ABD023689B0766
:104DD00013D4E068039B9842B8BF1846A4E70123A8
:104DE000324649464046D04701309BD00135E36802
:104DF00003995B1AAB42F2DCEBE7002504F11906DC
:104E0000F5E700BF6D5700007E570000C9B20244AD
:104E100010B59042034601D1002303E01C78013015
:104E20008C42F6D1184610BD884210B501EB020441
:104E300002D98442234607D8431EA14208D011F864
:104E4000012B03F8012FF8E7024401468A4200D102
:104E500010BD13F8014D02F8014DF7E737B50029F1
:104E600047D051F8043C0C1F0190002BB8BFE41848
:104E700000F0D4F8204A01981368154633B96360EE
:104E8000146003B0BDE8304000F0CEB8A3420BD9A7
:104E900021686218934202BF1A685B685218636007
:104EA00008BF22602C60ECE71A465B680BB1A34296
:104EB000FAD911685518A5420BD124682144541819
:104EC0001160A342DDD11C685B682144536011600E
:104ED000D7E702D90C230360D3E7256861198B4219
:104EE00002BF19685B684919636008BF216054609C
:104EF000C7E703B030BD00BF5C0A0020F8B5CD1C89
:104F0000064625F0030508350C2D38BF0C25002D6D
:104F100001DBA94203D90C2333600020F8BD00F067
:104F20007DF821490A6814469CB9204F3B6823B993
:104F30002146304600F062F838602946304600F0DD
:104F40005DF8431C23D10C233046336000F06CF82D
:104F5000E3E723685B1B17D40B2B03D923601C44A6
:104F6000256004E06368A2420CBF0B6053603046CA
:104F700000F05AF804F10B00231D20F00700C21ABC
:104F8000CCD01B1AA350C9E722466468CCE7C41CE6
:104F900024F00304A042E3D0211A304600F02EF89A
:104FA0000130DDD1CFE700BF5C0A0020600A00209D
:104FB000F8B5074614460E4621B91146BDE8F8403B
:104FC000FFF79CBF22B92546FFF748FF2846F8BDEA
:104FD00000F030F8A0420FD221463846FFF78EFF8E
:104FE00005460028F2D031462246FFF7D5FB314670
:104FF0003846FFF733FFE9E73546E7E738B50023E2
:10500000054D044608462B60FCF7C8FC431C02D142
:105010002B6803B1236038BD449C0020014800F098
:1050200011B800BF4C9C0020014800F00CB800BF34
:105030004C9C002051F8043C181F002BBCBF0B589F
:10504000C0187047704770474275696C7420776963
:1050500074682052656E6573617320416476616E79
:1050600063656420466C657869626C6520536F6681
:105070007477617265205061636B61676520766546
:105080007273696F6E20332E302E3000332E302E27
:105090003000000000000003F8B500BFF8BC08BCF9
:1050A0009E467047F8B500BFF8BC08BC9E467047E6
:1050B00001B40248844601BC604700BF01070020DC
:1050C00001B40248844601BC604700BF6506002069
:1050D00001B40248844601BC604700BFA10400201F
:1050E00001B40248844601BC604700BF8101002032
:1050F00001B40248844601BC604700BF150400208B
:1051000001B40248844601BC604700BF2508002066
:105110000000000049410000000000000000000005
:10512000FFDFFFDF00000000A0860100000000009C
:1051300050C30000000000004D26000000000000E9
:1051400044510000000000000000000000000000CA
:10515000000000000000000000000000000000004F
:10516000000000000000FFFFDFDF00000000000083
:105170000100000000000064080000000000003290
:1051800001FFDF000000000000000000905100005F
:10519000000000000000000000000000000000000F
:1051A00000000000000000000000000000000000FF
:1051B0000000FFFFDFDF000000000000700B002098
:1051C000C8510000EC54000008090020D051000034
:1051D00002FFFFFFB80B0020E0510000EC5400007C
:1051E00018090020E851000001FFFFFF0001020341
:1051F000040C0C0C0C00000001000000BC5100006D
:10520000D451000075320000000000001052000070
:10521000010000000000000200000000410000004A
:1052200024520000050000000F0000000000010BE8
:10523000000100000000010B010100000000010B53
:10524000020100000000010B030100000000010B3F
:10525000040100000000010B050100000000010B2B
:10526000060100000000010B070100000000010022
:105270000801000000000100090100000000010019
:105280000A0100000000010B0B0100000000010BEF
:105290000C0100000000010B0D0100000000010BDB
:1052A0000E0100000000010B0F0100000000010BC7
:1052B000030200000000010B040200000000010BCB
:1052C000050200000000010B0702000000000100C1
:1052D000000300000000010B010300000000010BAF
:1052E000020300000000010B030300000000010B9B
:1052F000040300000000010B050300000000010B87
:10530000060300000000010B070300000000010B72
:10531000080300000000010B090300000000010B5E
:105320000A03000004000000030400000400000061
:105330000404000004000000050400000000010651
:105340000A040000000001060B0400000000010632
:105350000C040000050000000D0400000000011115
:10536000000500000000011101050000000001110E
:1053700002050000000001110305000000000111FA
:1053800004050000000001110505000005000000F3
:1053900006050000000001100B05000000000110D0
:1053A0000C0500000000010B000600000000010BCE
:1053B000010600000000010B080600000000010BC0
:1053C000090600000000010B0A06000004000000AE
:1053D0000B060000000001050D060000000001059D
:1053E0000E06000000000106000700000000010694
:1053F0000107000000000106020700000500000090
:105400000307000000000110040700000000011065
:105410000507000000000105080700000000010565
:1054200009070000040000000B070000C600C401CB
:10543000C501C801C701A100A400A500A600A900DC
:10544000AA00AA01AB01AC01AD0186018701880168
:105450008901C901CA01CD01CC0100000000000092
:10546000000000000000000000000000000000003C
:10547000000000000000000000000000000000002C
:10548000000000000000000000000000000000001C
:10549000000000000000000000000000000000000C
:1054A00000000000000000000000000000000000FC
:1054B00000000000000000000000000000000000EC
:1054C00000000000000000000000000000000000DC
:1054D00000000000000000000000000000000000CC
:1054E0000000000000000000000000005D1300004C
:1054F0000913000059110000FD11000019120000ED
:10550000F5110000F911000035120000951200009D
:1055100001000200080010006C6564000408DC1142
:10552000111100FF6D63636F6E6669676F6E000037
:105530006F666600616C6C00657272006462670081
:10554000696E666F00FFFFFF6C6F67006C6F673AF4
:10555000205B6F6E2F6F66665D206F70656E2063D7
:105560006C6F7365205B616C6C2F6572722F776155
:10557000722F6462672F696E666F5D206C6F6720A3
:105580006C6576656C00FFFF626F6F742069732035
:1055900072756E6E696E67EFBC8C6E6F7700FFFF81
:1055A00068656C7020636D64202C6572726F722068
:1055B000636D642068617665206E6F2068656C702D
:1055C000446F63756D656E742021000068656C70B2
:1055D00020636D64202C6572726F7220636D64208D
:1055E000756E6B6E6F7721004D656D5F2575204080
:1055F000307825583A73697A653D2025752062799F
:1056000074653B757365643D20257520627974650A
:105610003B667265653D20257520627974653B00A7
:105620004572726F723A20636D642066697273749A
:10563000206368617220696C6C6567616C20210071
:105640004572726F723A20636D64206E616D6520E1
:10565000746F6F206C6F6E67210000004572726F6F
:10566000723A20636D64206172672020746F6F202E
:105670006C6F6E672100FFFF6572726F723A206374
:105680006D642020554E72656769737465722100E0
:105690007368656C6C00000068656C7020636D64F5
:1056A0003A2073686F7720636D642068656C7020A2
:1056B000646F63756D656E742100000068656C70C1
:1056C000000000007265626F6F743A205265626F6D
:1056D0006F742074686520626F6172642062792043
:1056E000736F667477617265210000007265626F86
:1056F0006F7400006D656D3A206F73206D656D6F7E
:10570000727921006D656D007274696D657200FFBC
:105710000D0A72656376207570706572206D73670F
:105720003A203078253034780D0A000072656376AF
:10573000207570706572206D7367206572722063CA
:1057400072630D0A00FFFFFF757070657200FFFF46
:10575000746F6F6C00FFFFFF69617000232D302BA9
:105760002000686C4C006566674546470030313262
:1057700033343536373839414243444546003031B9
:10578000323334353637383961626364656600FF19
:105790000000000000000000000000000000000009
:1057A00000000000000000000000000000000000F9
:1057B00000000000000000000000000000000000E9
:1057C00000000000000000000000000000000000D9
:1057D00000000000000000000000000000000000C9
:1057E00000000000000000000000000000000000B9
:0457F00000000000B5
:1057F4004FF42A431E4930B4B1F88440A1F88430F0
:10580400B1F88400A4B280B268B14FF4964200208B
:1058140003E0002A08BF4FF4FA70B1F88430013A6B
:105824009BB2002BF5D1012C0CD0802C01D030BCC4
:105834007047104B01211A4659605368002BFCD164
:1058440030BC70470C4B4DF601151A460849A1F8B7
:105854004450A3F80441B2F804319BB2002BFAD1AE
:1058640030BC01230349A2F800318B600B60704700
:1058740000E07F400070004000C0014030B5436844
:1058840004461A7883B0EAB1012293F911303E48F4
:10589400590903F01F03203102FA03F340F82130C1
:1058A400BFF34F8FBFF36F8F636893F9133003F027
:1058B4001F015B098A40203340F82320BFF34F8F38
:1058C400BFF36F8F314BB3F884309BB2002B4FD0B2
:1058D4004FF49640B3212E4B2C4A01901970D2F804
:1058E40080301B040CD406E0019B013B0193D2F8E9
:1058F40080301D0404D4019B002BF5D1142507E04E
:10590400224B40F2F5151B7C13F0100F08BF002545
:105914004FF4964050211E4B1C4A00901970D2F847
:105924008030180415D406E0009B013B0093D2F8A4
:10593400803019040DD4009B002BF5D1002D08BF35
:105944001425FFF755FF0023284684F8343003B0AC
:1059540030BD0E4B1B7CDB060ED4002DF1D1FFF7BE
:1059640047FF05460023284684F8343003B030BD91
:10597400606800F0F9FAABE7002DE2D1FFF738FFD9
:1059840040F2F515DFE700BF00E100E000E07F40F2
:1059940000007E40B3214FF49640104B104A82B071
:1059A40001901970D2F8803019040DD406E0019BDF
:1059B400013B0193D2F880301B0405D4019B002BDA
:1059C400F5D1142002B07047054B40F2F5101B7C52
:1059D40013F0100F08BF002002B0704700007E4093
:1059E40000E07F4050214FF49640104B104A82B0A3
:1059F40001901970D2F8803019040DD406E0019B8F
:105A0400013B0193D2F880301B0405D4019B002B89
:105A1400F5D1142002B07047054B40F2F5101B7C01
:105A240013F0100F08BF002002B0704700007E4042
:105A340000E07F40F0B42027D026846A0F4B214435
:105A44001C63046B0E4D013C2F702E708162046345
:105A540062B1D3F88010090407D4194600E042B1BA
:105A6400D1F88030013A1B04F9D50022F0BC10466D
:105A740070471422F0BC1046704700BF00E07F401E
:105A840000007E40F0B4E826C36A1F4F1F4CC1F3E8
:105A940047054908236382B03E703D701DD0866A75
:105AA400D0F810C006EB41053388CDF804C03B8024
:105AB40003E0019B591E01910BB3D4F880305B05C0
:105AC400F7D40236D0E90B13AE4201F1020103F11F
:105AD400FF33C0E90A610363E6D1D0210A4B197090
