:10000000809F0020211A0000311800001D1A0000F6
:100010001D1A00001D1A00001D1A00001D1A000004
:100020000000000000000000000000001D1A000099
:100030001D1A0000000000001D1A00001D1A00001B
:10004000150D000021050000A9050000BD060000F7
:100050002D0700005D140000411500006916000026
:100060005D140000411500006916000069080000D9
:10007000E1070000ED080000290900006908000000
:10008000E1070000ED08000029090000210500003B
:10009000A9050000BD0600002D07000000000000BB
:1000A0000000000000000000000000000000000050
:1000B0000000000000000000000000000000000040
:1000C0000000000000000000000000000000000030
:1000D0000000000000000000000000000000000020
:1000E0000000000000000000000000000000000010
:1000F0000000000000000000000000000000000000
:1001000000000000000000000000000000000000EF
:1001100000000000000000000000000000000000DF
:1001200000000000000000000000000000000000CF
:1001300000000000000000000000000000000000BF
:1001400000000000000000000000000000000000AF
:10015000000000000000000000000000000000009F
:10016000000000000000000000000000000000008F
:10017000000000000000000000000000000000007F
:10018000000000000000000000000000000000006F
:10019000000000000000000000000000000000005F
:1001A000000000000000000000000000000000004F
:1001B000000000000000000000000000000000003F
:1001C00010B5054C237833B9044B13B1044800E053
:1001D00000BF0123237010BDF008002000000000C4
:1001E000F857000008B5034B1BB10349034800E072
:1001F00000BF08BD00000000F4080020F857000010
:1002000008B502F033FA04F099FA02F06DFD08BD6A
:10021000022800D0704708B50249034800F080FC6E
:1002200008BD00BF245200008C09002008B5FFF76C
:10023000E7FF002008BDFFFF2DE9F04F83B0034624
:1002400041608A694262CA69C262002282620A7897
:1002500002F5800202F58D52120282604F7A002F61
:1002600000F0FB80B02500200646CC7A4A7B1203C2
:1002700042EA44028C7A22430C6A2178002940F039
:10028000F08042F08002607825EAC015410141EA21
:1002900040010D43E07894F8029009FA00F922F049
:1002A000700200012179002900F0DE80022914BFCC
:1002B0004FF020084FF03008617929B1012914BFAF
:1002C00046F0010646F0030694F806E0217A01F0B4
:1002D000030140EA81011143002F40F0C88041F43E
:1002E0006041627A0092A27A019294F80BC0EFF317
:1002F000108B012282F31088604FD7F800A0586855
:100300000078C0F1130002FA00F02AEA0000386019
:1003100038688BF310889F68F8780020F8709F6821
:10032000EDB23D709D685FFA89F985F801909D688E
:100330005FFA88F885F802809D68E479AC729C6861
:100340009DF8005025739C689DF8045065739C6867
:100350005FFA8CFC84F80EC09C68F6B2E6739C6869
:1003600089B22182996881F820E09968102481F887
:1003700021405C6894F90210A5792D01EDB2404C42
:10038000661886F800533F4D45F821303E4E01F186
:10039000C00756F827C060F3104C46F827C001F09C
:1003A0001F0702FA07F74909890001F1604101F5C9
:1003B0006141C1F880710F605F6897F901107F7922
:1003C0003F01FFB204EB010C8CF8007345F82130BB
:1003D00001F1C00756F827C060F3104C46F827C05B
:1003E00001F01F0702FA07F74909890001F160418E
:1003F00001F56141C1F880710F605F6897F90410E1
:100400003F7A3F01FFB204EB010C8CF8007345F812
:10041000213001F1C00756F827C060F3104C46F8B0
:1004200027C001F01F06B2404909890001F160416F
:1004300001F56141C1F880210A605A6892F9031000
:10044000D2791201D2B20C4484F8002345F821304D
:100450000E4A1A6003B0BDE8F08FB82508201026B8
:1004600003E740F0B1050EE74FF0000824E74FF036
:10047000000CCDF804C0CDF800C038E704400840B7
:1004800000E100E04C0B0020006000404950535256
:1004900030B585B004460D46836ABBB193E80700CA
:1004A0000DF1100C0CE90700626812781A601D71DA
:1004B000E26A9A60626A18469047A36A23B104AA66
:1004C00012E9070083E8070005B030BD01ABEBE798
:1004D00010B48168CA7AD2B20B8A9BB290F82040DD
:1004E000012C11D0022C16D022F0400242F0200242
:1004F00023F4706343F44073D2B2CA7282689BB231
:1005000013825DF8044B704742F0400223F470639D
:1005100043F4E063F0E722F0600243F47063EBE73A
:10052000EFF30383103B5BB21C4A03F1C00152F8A6
:1005300021006FF3104042F82100194A52F823308D
:100540009A69D9698A421BD0196991B193F8200040
:10055000012811D00228986807BF808821F812006E
:10056000406841F8220001329A61D969914207D06E
:10057000704799684968F6E7986800798854F2E707
:100580005B6893F90330590903F01F03012202FA53
:1005900003F3044A42F82130EAE700BF006000405C
:1005A0004C0B002000E100E0EFF30383103B5BB253
:1005B0003F4A03F1C00152F821006FF3104042F8A6
:1005C00021003C4A52F8233059680A6A12B1527825
:1005D000012A16D05A69D9698A4267D0D968002998
:1005E0005CD093F8200001285CD00228986807BFEF
:1005F00031F81210818051F82210416001325A61A5
:100600007047DA69013A586990420ED00A69002AA7
:10061000E0D091F90320500902F01F02012101FAF4
:1006200002F2254941F82020D4E710B491F90320C3
:100630001F4902F1C00051F820406FF3104441F807
:10064000204002F01F00012181405209920002F176
:10065000604202F56142C2F8801111605A69D9699D
:100660008A4210D0D96889B193F82000012811D0AE
:100670000228986807BF31F81210818051F82210C3
:10068000416001325A615DF8044B7047996800205F
:100690004860F6E79868895C0171F2E79968002084
:1006A0004860ABE79868895C0171A7E7704700BFB5
:1006B000006000404C0B002000E100E0EFF30383FA
:1006C000103B5BB2164A03F1C00152F821006FF3F0
:1006D000104042F82100134A52F823008268D27871
:1006E00012F0020F04D04268527A012A00D07047FB
:1006F00010B55A0903F01F03012101FA03F3203258
:10070000094C44F82230BFF34F8FBFF36F8F8268DC
:1007100013786FF386131370FFF7BAFE10BD00BF96
:10072000006000404C0B002000E100E070B5EFF3EA
:100730000384103C64B2174B53F82460B2681378FA
:100740006FF386131370B268D378DDB20021D170D5
:1007500013F0080F0FD115F0010F11D105F014059A
:10076000142D12D00C4BC03453F824206FF31042D8
:1007700043F8242070BD05213046FFF789FEEAE7E3
:1007800004213046FFF784FEE8E708213046FFF7F2
:100790007FFEE7E74C0B002000600040F0B585B01D
:1007A00005460F461646846AC4B194E80F000DF161
:1007B000100C0CE90F00EB691B782360A760267111
:1007C000EB6AE3606B6A20469847AC6A24B104ABDD
:1007D00013E90F0084E80F0005B0F0BD6C46EAE7AE
:1007E00008B5EFF30383103B5BB21D4A03F1C00170
:1007F00052F821006FF3104042F82100194A52F8D4
:100800002300C3691B6913B10369E3B108BD036920
:10081000CBB1837803F00303022B0DD0036AC268C7
:100820001278DA70837803F003030269D21A026146
:10083000C2681344C360E7E7026AC3681B8843F4D5
:100840007E43D381EEE7026A937803F07F0343F09F
:10085000040393700021C1608022FFF79FFFD5E75A
:10086000006000404C0B002010B582B0EFF3038312
:10087000103B5BB21B4A03F1C00152F821006FF339
:10088000104042F82100184A52F82340A37803F0A0
:100890000303022B236A07BF198AC1F308015979A0
:1008A000C9B20191A3692BB904222046FFF776FF54
:1008B00002B010BDA27802F0030201A9606903F042
:1008C00067FFA37803F00302636913446361A369BC
:1008D0009B1AA361002BEBD1012200212046FFF7D8
:1008E0005DFFE5E7006000404C0B002010B5EFF322
:1008F0000384103C64B20A4B53F82400026A9378D4
:1009000003F07B03937002220021FFF747FF054BA2
:10091000C03453F824206FF3104243F8242010BD54
:100920004C0B00200060004038B5EFF30384103C0E
:1009300064B2154B53F82400837803F00303022BB1
:10094000036A07BF198AC1F308015979C9B2036A5A
:100950001D7905F0380215F0100F05D01D7F15F038
:10096000010F08BF42F040021D7905F0C7051D7157
:10097000FFF714FF054BC03453F824206FF31042E7
:1009800043F8242038BD00BF4C0B0020006000401D
:10099000CBB20120984080B262B1024600200B0A1F
:1009A0005B0103F1804303F5002342EA00409860B5
:1009B000002070470022F2E710B411F4803F0ED0FF
:1009C000030A0C4A1B0153FA80F352F823406FF3D9
:1009D000104442F8234021F4803442F82340030AB3
:1009E0001B0153FA80F0034B43F820105DF8044BD1
:1009F000704700BF000808402DE9F0410788BFB3E9
:100A0000416800252C462B4640F2024C40F2044837
:100A100040F2034E19E051F8336006F0B856B6F1D3
:100A2000807F14BF45F0010544F00104424509D11F
:100A30000A5802F0B852B2F1807F0CBF44F00404AF
:100A400045F004050133BB4214D0D80001EBC302CA
:100A500092886245DFD07245E8D10A5802F0B85258
:100A6000B2F1807F14BF45F0020544F00204E9E7CB
:100A700000252C46012000F085FF064A92F8BB3481
:100A80001C4324EA050582F8BB54012000F048FF0E
:100A9000BDE8F08100E0014038B50546FFF7ACFF46
:100AA000EFF31081012383F310881B4B1B6823B9DC
:100AB0001A4B0022DA704022DA70174A13680133A9
:100AC000136081F310882B8873B10024A2B26B6885
:100AD00003EBC20053F832108088FFF76DFF01343A
:100AE0002A88A3B29A42F1D8EFF31083012282F34D
:100AF0001088094A12681AB107490A68013A0A605F
:100B0000054A126822B9054A0021D1708021D170AE
:100B100083F3108838BD00BF480B0020000D08404B
:100B200008B5034B03600846FFF7B6FF002008BD79
:100B300054524F508368C2689A600020704783689F
:100B4000C2685A60002070478368C268DA6000207B
:100B5000704782684FF00043136182685361826876
:100B60009361826800235362826893627047FFFF3B
:100B7000002820DB0901C9B200F1604303F561439D
:100B800083F800130C4B43F820200C4B00F1C002FB
:100B900053F822106FF3104143F8221000F01F02A7
:100BA000012393404009800000F1604000F561405E
:100BB000C0F88031036070474C0B0020006000409B
:100BC0002DE9F84304460D460A7C01239340C36097
:100BD000416013F00F0F0CBF0123002303740A7C44
:100BE000394B13441B0283604B6943618B69C361BA
:100BF00000278761CE69EFF310804FF0010888F37A
:100C00001088324BDA6891F810C04FF0004121FA99
:100C10000CF122EA0102DA60DB6880F31088A36835
:100C20004FF425421A60A368DF62A368DF63A368FC
:100C30009F642B7ADB056A6802F1FF39A268D362F0
:100C40002046FFF786FFA368B269DA61A368F269FC
:100C50001A62A368C3F86890A368C3F86490A36895
:100C60009F63A368C3F8887096F8202096F8213017
:100C70005B0743EA4233A2684FF4AA011164A268F9
:100C8000E168D160A2685363A36803221A63A36872
:100C9000C3F830802246697C95F91200FFF768FF9F
:100CA000224696F8221096F92400FFF761FF2246AB
:100CB00096F8231096F92500FFF75AFF044B23609E
:100CC0003846BDE8F88300BF901640000440084055
:100CD0005450470070B584B004460E4615468369EB
:100CE000ABB193E807000DF1100C0CE907001E7181
:100CF0009D60E2691A60626918469047A36923B152
:100D000004AA12E9070083E8070004B070BD01AB34
:100D1000EDE7FFFF38B5EFF30383103B5BB21A4AF0
:100D200003F1C00152F821006FF3104042F8210096
:100D3000164A52F8230042681278012A06D0436905
:100D40001BB100221146FFF7C5FF38BD8268C1689C
:100D50009160816800228A648168CA6481680A653A
:100D6000094903F1C00451F8245062F3104541F8D9
:100D700024505A0903F01F03012101FA03F36032E2
:100D8000034941F82230DAE7006000404C0B0020B4
:100D900000E100E010B4002380F83430354C01232A
:100DA00084F81634236A344A1168C3F3026201FAE4
:100DB00002F2C3F30273DA40236AC3F30263994079
:100DC000D9402E4B9A4251D901F5742303F23F23A7
:100DD0002B49A1FB03439B0C02F5742202F23F2234
:100DE000A1FB0212920C02F5F0522649A1F8E42070
:100DF00043F6B85101FB03F1234AA2FB01418908E4
:100E0000816040F6D86101FB03F1A2FB0141890832
:100E1000C1605900A2FB014189080161542101FB15
:100E200003F1A2FB014189084161184901FB03F16B
:100E3000A2FB01418908816144F2506101FB03F189
:100E4000A2FB014189084162114901FB03F1A2FBA8
:100E50000141890801620F4901FB03F3A2FB033240
:100E60009208C26100205DF8044B70474FF4FB709C
:100E7000F9E700BF00E001405C090020FF083D00E9
:100E800083DE1B4300E07F40ABAAAAAA38AF040070
:100E900080DE0F00A0F703002DE9F0410446416019
:100EA0000B78002B56D04B688363CB680364002615
:100EB000C663DFF8BCC001228CF8182091F911300C
:100EC000087C0001C0B2264DEF1887F80003254FBB
:100ED00047F82340244803F1C00E50F82E8066F3F3
:100EE000104840F82E8003F01F0E02FA0EFE5B0938
:100EF0009B0003F1604303F56143C3F880E1C3F84D
:100F000000E098238CF8143091F91330897C0901A2
:100F1000C9B21D4485F8001347F8234003F1C0010E
:100F200050F8215066F3104540F8215003F01F019E
:100F30008A405B099B0003F1604303F56143C3F8FA
:100F400080211A602046FFF725FF08B9074B236070
:100F5000BDE8F081064B00221A761A75F2E700BF51
:100F600000E100E04C0B0020006000404E45504F77
:100F700000E07F4010B483B04FF496430193436880
:100F80001A787AB393F91130264903F1C00251F867
:100F900022406FF3104441F8224003F01F04012265
:100FA00002FA04F45B099B0003F1604303F561431B
:100FB000C3F880411C60436893F9133003F1C0000B
:100FC00051F820406FF3104441F8204003F01F0116
:100FD0008A405B099B0003F1604303F56143C3F85A
:100FE00080211A60104B4AF68022A3F88420B3F8BF
:100FF00084309BB2802B0CD00B4A019B5BB1019BD0
:10100000013B0193B2F884309BB2802BF5D10020D4
:1010100003E0002001E04FF4FA7003B05DF8044BE8
:10102000704700BF0060004000E07F402DE9F843BA
:1010300004465B0803638162C262002380F8343097
:10104000B2F1006F05D204F02FF805462846BDE83E
:10105000F883FFF78FFF05460028F7D163681B78F8
:10106000F3B1012384F8343081464FF00408182787
:101070004FF480564A464146204604F03DF8054666
:1010800063681B78002BE1D13A46314604F024F81E
:101090000546236B3BB10028ECD004F015F8D5E7EA
:1010A000D4F80C90E1E704F00FF8002D08BF0546D6
:1010B000CCE7FFFF2DE9F8430546002380F83430E4
:1010C000B1F1006F12D221F40013B3F5803F39BFA4
:1010D00021F4FF5121F01F0121F4FF4121F07F0194
:1010E00004F012F804462046BDE8F88321F03F01E1
:1010F00081620263FFF73EFF064668BB6B681B78A0
:1011000013B3022385F83430154B0122A3F8E020F5
:101110004FF040094FF019084FF400573246494646
:10112000284603F0C9FF04466B681B78002BDAD110
:101130004246394603F0D0FF04462B6B33B10028FA
:10114000ECD003F0C1FFCEE7EE68DDE703F0BCFFB3
:10115000002C08BF0446C6E74FF4FA74C3E700BF8B
:1011600000E07F4008B503F0BFFF08BD06207047D0
:101170000620704790F90430044AC03352F8231017
:101180006FF3186142F823100020704700600040A0
:1011900090F90420114B53F8223000220A604A6073
:1011A000DA7812F0C00F11D04FF480728A60DA89B9
:1011B000D2B2CA60DA7802F0C002802A0CD14FF4B1
:1011C00080320A609B899BB24B6005E04FF480320D
:1011D0008A60DB899BB2CB60002070470000002052
:1011E000034690F904200849C03251F822006FF3F9
:1011F000186041F8220093F904100020034A42F8D5
:1012000021001860704700BF00600040000000200F
:1012100010B483B00191009290F904202549C032A6
:1012200051F822406FF3186441F8224090F90420ED
:10123000C03251F82210C1F3080141F400411E4CA4
:10124000E28992B28A42FBD01B4A08211174019AAA
:1012500032B190F90410194A52F8212001995160D5
:10126000009A32B190F90410144A52F821200099E2
:10127000916090F90410114A52F82110CA7802F0D6
:10128000C002802A02D012B9CB8100E08B810A4BC8
:1012900018221A7490F904300649C03351F82320FB
:1012A00042F0807241F82320002003B05DF8044B27
:1012B000704700BF00600040005400400000002064
:1012C00010B40B4609E0DA89D2B242EA0222DA818E
:1012D0001033A27812F0C00F05D01C46DA7812F055
:1012E000C00FF5D0EFE7064B08221A7490F90400FE
:1012F000044A42F8201018221A705DF8044B704717
:101300000054004000000020F8B505460C46194B7B
:101310001B7853B1636893F90030002B28DB164A21
:1013200052F82320DAB10820F8BD0126114B1E70B7
:10133000EFF3108186F31088104BDA6922F48002F3
:10134000DA61DB6981F310880B4F4FF4C072002122
:10135000384603F02AFA0A4B5F611E73DAE72B71F5
:1013600021682846FFF7ACFF064B2B600020DBE727
:101370000B20D9E70C0900200000002000E001400C
:10138000005400400043544438B5054690F90430F9
:10139000124AC03352F823006FF3186042F823005A
:1013A00095F90430C03352F82320C2F3080242F406
:1013B00000420B4CE3899BB29342FBD02846FFF7D7
:1013C0007FFF95F904300549C03351F8232042F0DE
:1013D000807241F82320002038BD00BF006000402B
:1013E0000054004090F904300449C03351F82320E0
:1013F00042F0807241F823200020704700600040D6
:10140000F0B58DB007460C46D0F820C0BCF1000FF7
:1014100022D001AD66460FCE0FC50FCE0FC596E8A0
:10142000070085E8070065460FCC0FC50FCC0FC538
:1014300094E8070085E80700FB69604698473C6A26
:1014400044B101AD0FCD0FC40FCD0FC495E8070017
:1014500084E807000DB0F0BD8C46EDE710B58CB008
:10146000EFF30383103B5BB2324AC03352F82310D0
:101470006FF3104142F82310EFF30383103B5BB28C
:101480002D4A52F823402C22002101A803F08DF9A7
:10149000636893F84D38DBB2ADF80830626800211C
:1014A00082F84D186268B2F8422812F0100F3FD04F
:1014B00043F02003ADF80830636893F85328D2B2A4
:1014C000022183F85318616891F8523803F01F0322
:1014D00081F8532862681A4492F820186FF3820149
:1014E00082F8201800220592226812680192626A2E
:1014F0000692049301A92046FFF782FF6368B3F8C0
:10150000423813F0100F11D023681A69127D6AB1A6
:1015100093F91530002B09DB5A0903F01F03012151
:1015200001FA03F34032054941F822300CB010BDF6
:101530000023D7E7006000404C0B002000E100E0F2
:1015400070B58CB0EFF30383103B5BB2434AC033FA
:1015500052F823106FF3104142F82310EFF3038386
:10156000103B5BB23E4A52F82340626892F853380F
:10157000DBB2002182F85318626892F8526806F0D4
:101580001F0682F85338626806F120031B01D25807
:10159000C2F380718DF822106168C95823681B69F5
:1015A0001B7B43EAD17303F001038DF82030002B3D
:1015B0004CD1C2F38A420792636806F1200203EB22
:1015C00002139B88C3F3030203F00F038DF821205D
:1015D000082B3ED908208DF821000AA900223501E8
:1015E00063682B44134493F8063201F8013B01323F
:1015F0008242F5D363683344442283F8202807AB42
:1016000005934FF48063ADF80830049623681B6897
:101610000193636A069301A92046FFF7F1FE636810
:10162000B3F8423813F0010F0ED0236893F9163047
:10163000002B09DB5A0903F01F03012101FA03F310
:101640004032084941F822300CB070BD22F06042AF
:10165000B1E71846002BC0D1CCE700BF00600040C6
:101660004C0B002000E100E010B58CB0EFF30383D9
:10167000103B5BB2254AC03352F823106FF3104180
:1016800042F82310EFF30383103B5BB2204A52F879
:101690002340636893F85328D2B2012183F853188A
:1016A000616891F8523803F01F0381F8532862688B
:1016B000D118002281F820286168194481F8202877
:1016C00004934FF40063ADF8083023681B6801935E
:1016D000636A0693059201A92046FFF791FE6368AD
:1016E000B3F8423813F0020F0ED0236893F9173085
:1016F000002B09DB5A0903F01F03012101FA03F350
:101700004032044941F822300CB010BD0060004066
:101710004C0B002000E100E0064B93F826101A6AFB
:10172000C2F30262044B53F82130D340034A1360E2
:10173000704700BF00E00140D40800205C09002091
:1017400010B5324B4AF20352A3F8FE23A3F500531F
:101750000122A3F804211A46B2F804319BB2002BEF
:10176000FAD101232A4AA2F80031A2F5A8329360E7
:101770001360284B284A1A60284A5A604FF40042E6
:101780009A602749D9601A61264A5A61FFF7C4FF57
:101790001E4B002283F81324092283F8A22093F819
:1017A00080342BB1194B002283F8812483F88024E4
:1017B000164B002283F8322043F202121A851A4691
:1017C00092F83C3013F0080FFAD0104B002283F847
:1017D0002A201A4692F83C3013F0200FFAD00C4B16
:1017E000032283F81C21094C052384F826300E4B74
:1017F0002362FFF791FF012384F8303084F85230E0
:101800004FF42543A4F8FE3310BD00BF00E00140B3
:1018100000C00140D4080020002D310100127A00E0
:1018200000366E0100C2EB0B211201207047FFFF52
:1018300070B50D4BB3F84051ADB200240B4E02E031
:101840000134102C0BD0E0B225FA04F313F0010F91
:10185000F6D056F82430002BF2D09847F0E7024B30
:10186000A3F8305170BD00BF006000401009002097
:10187000F0B585B0032000F085F8234B6FF0FF0230
:101880009A644FF0FF330193029303931F4C04F1CA
:10189000C00623460022012702E00132B34212D0E3
:1018A00033F8021F0029F8D0510904A800EB810188
:1018B00002F01F0007FA00F551F80C0C20EA0500B1
:1018C00041F80C0CE9E7019A114B1A60114BC3F86F
:1018D0008022029A10490A60C3F88422039A0431D4
:1018E0000A60C3F88822032000F01AF800230B488E
:1018F00034F8021F03F1C00240F822100133602BBC
:10190000F6D105B0F0BD00BF0080004032540000A9
:101910007080004000E100E0748000400060004002
:10192000EFF31082012383F31088134B33F8103048
:101930009BB233B1104931F81030013B9BB221F812
:1019400010300D4B33F810309BB293B910B40B49E3
:10195000B1F8FE339BB20A4C34F8100043F425432F
:1019600023EA0003A1F8FE3382F310885DF8044BEC
:10197000704782F3108870475009002000E0014052
:101980001855000010B4EFF31081012383F3108881
:101990000E4B33F810309BB263B90D4AB2F8FE33E8
:1019A0009BB20C4C34F81040234343F425439BB2C4
:1019B000A2F8FE33054A32F8103001339BB222F808
:1019C000103081F310885DF8044B704750090020F7
:1019D00000E001401855000008B503460C4A1268A3
:1019E0005AB10B4A1068033323F003030344094A36
:1019F000934206D8064A136008BD054A064911609D
:101A0000EFE702F0BFFE0C2303604FF0FF30F3E777
:101A100058090020809B0020809B002000BE70475A
:101A200008B500F003F8FEF701FCFEE770B5244BA3
:101A30004FF47002C3F88820224A9A600020FEF713
:101A4000E7FBFFF77DFE0120FEF7E2FB1E4B83F371
:101A50000A881E481E4A121A002102F0A6FE1D48DE
:101A60001D4A121A1D4902F093FE1D4B1D4A9B1A76
:101A7000002B08DD9E101546002455F8043B9847BE
:101A80000134A642F9DCFFF747FE0320FFF77AFF97
:101A9000002315484FF6FF7103F1080220F81210D9
:101AA0000133092BF8D10320FFF73AFF0220FEF79C
:101AB000AFFBFFF7DDFE0020FFF7B8FE70BD00BFF3
:101AC00000ED00E000000000809B0020F0080020F6
:101AD0007C9B002080010020D4080020FC570000DF
:101AE000D0080020CC080020000D0840E1B130B43F
:101AF00004464B1E9BB20133C1184FF6FF700825F8
:101B00004AF2010201E08C4211D014F8013B584026
:101B10002B4610F0010F14BF82EA50004008013B31
:101B200013F0FF03F5D1EEE74FF6FF70704730BCBE
:101B30007047FFFF38B56C4B1A686C4B1B69996A8C
:101B4000521A92B29A84D98C914238BFDA84664A8A
:101B500012689A62DA690132DA6100F037FD634B8C
:101B60001A695389F42B00F083803AD8002B51D0A6
:101B7000EF2B40D1D2685C4B1B6811685B1A52682E
:101B8000934268D35A4C002240F203412046FEF7AC
:101B9000FFFE012240F204412046FEF7F9FE00223A
:101BA00040F205412046FEF7F3FE504B1B69DB680F
:101BB000002B65D04D4A91684B4800681860596009
:101BC0001369F4225A81494C256900F00DFD2884DF
:101BD00023691A8C598C914280F082805A840120AA
:101BE00017E0F92B07D1D2683F4B1B6811685B1ACD
:101BF0005268934265D33D4C256900F0F5FC28847A
:101C000023691A8C598C914238BF5A8400225A8118
:101C1000042038BD364C012240F203412046FEF735
:101C2000B7FE002240F204412046FEF7B1FE00223A
:101C300040F205412046FEF7ABFE2C4B1B69DB68EA
:101C4000002B9FD0294A9168274800681860596086
:101C50001369EF225A81254C256900F0C5FC2884C0
:101C600023691A8C598C914238D25A840120D0E7CA
:101C7000D2681D4B1B6811685B1A52689342A2D34D
:101C80001B4C002240F203412046FEF781FE002259
:101C900040F204412046FEF77BFE012240F205415E
:101CA0002046FEF775FE114B1B69DB68002BA2D0A6
:101CB0000E4A91680C480068186059601369F9224F
:101CC0005A810A4C256900F08FFC288423691A8CFC
:101CD000598C914206D25A8401209AE7012098E754
:101CE000012096E7012094E760090020CC0C002039
:101CF0008C09002070B582B006460F4C0025A571F6
:101D0000E5716570A570E57025712570A06000F023
:101D10006FFDE060094B1B680360466000F068FDE2
:101D20000346074A00922A460649642000F078FFDD
:101D3000206102B070BD00BFCC0C00206009002003
:101D400020550000351B000070B50D46164600F505
:101D5000001084010121204602F068F900B970BD2D
:101D600032462946204602F079F9F8E710B4094BCB
:101D70001C68094A631E073412F8010F13F8011F8B
:101D8000884205D1A342F7D101205DF8044B70478A
:101D90000020FAE7600800202B550000F0B597B04E
:101DA000334B05936FF07F430493324B93E803006A
:101DB0000290ADF80C10304B019303F1D85300930F
:101DC000FFF7D4FF00284BD10DF117030DF1570198
:101DD000FF2203F8012F8B42FBD16D238DF81830C1
:101DE00063238DF819308DF81A306F238DF81B306E
:101DF0006E238DF81C3066238DF81D3069238DF815
:101E00001E3067238DF81F3001AA08AB6D4605AC64
:101E100004A802A90F4612F8016B03F8016B15F82C
:101E2000016BDE7014F8016BDE7210F8016BDE716D
:101E300011F8016BDE74BA42EDD111238DF8383000
:101E40008DF8393041F28833ADF8303041F270739B
:101E5000ADF8323080214FF0006002F0E7F808B9A9
:101E600017B0F0BD402206A90020FFF76DFFF7E78D
:101E7000C0A8000124550000C0A800032DE9F043CC
:101E800083B087799FBB90F80480437A047A04EB8F
:101E90000324C37A867A00F10C0516EB03260FD0D3
:101EA00026444FF040094A462946E0B2FFF74CFF6E
:101EB00028B101344035A642F5D1344600E001276F
:101EC0008DF8008000218DF801108DF802108DF83A
:101ED00003108DF804708DF805108DF80640240A63
:101EE0008DF8074008236A46062001F07FF801209C
:101EF00003B0BDE8F08383790BB1012070472DE971
:101F0000F04790F8049090F809A090F80880C37A00
:101F1000877A07EB0327BFB2BD01ADB205F1120608
:101F2000B6B2304601F024F8044600283DD008EB54
:101F30000A2189B2EE23037043708370C370B31F0C
:101F400003711B1243714FF0000880F806800723CD
:101F5000C37180F8089080F8098080F80A8080F8C2
:101F60000B8001730B0A437387733B0AC37301F53C
:101F70000011BA018901103002F00AFC264406F86B
:101F8000028C06F8018C05F111039BB2621D05F16C
:101F9000100189B206312144013B1C44237812F818
:101FA000010F034423708A42F8D10120BDE8F08775
:101FB00008B50449072001F00FF80349062001F095
:101FC0000BF808BDF71E00007D1E000038B5194B48
:101FD0001A68194B9B68996A521A92B29A84D98CE2
:101FE000914238BFDA84134A12689A62DA69013280
:101FF000DA6100F0EBFA104B9B685B895BB90E4B22
:10200000598841B1DB6833B10B4A5068984710B129
:10201000094B00225A80084CA56800F0E5FA288494
:10202000A3681A8C598C914238BF5A8400225A8175
:10203000042038BD60090020E00C00200129044B79
:102040001B680CBF184323EA0000014B186070475F
:102050006408002070B50578002D40D0044600F1DA
:102060000D062349304602F0A8FB00BB012D17D90D
:1020700001251D341F49204602F09FFB38B31E493D
:10208000204602F09AFB28B31C49204602F095FB3B
:1020900038B31B49204602F090FB30BB04201AE005
:1020A00001214FF6FF70FFF7C9FF012517E0154921
:1020B000304602F082FBB0B9012D01D90025D8E7E6
:1020C00000214FF6FF70FFF7B9FF012507E04FF63B
:1020D000FF7000E001202946FFF7B0FF01252846E8
:1020E00070BD0820F7E70025F9E70025F7E700BFF6
:1020F000345500003C550000405500004455000098
:1021000048550000385500000EB400B582B00E4BA3
:102110001B68184207D10D4B00225A8002B05DF8AF
:1021200004EB03B0704704AA0192084B58885B681F
:102130000399184402F06AFB80B20028EED0034BEA
:102140005A8810445880E9E764080020E00C002019
:1021500070B582B00D4C0025258065804FF48061FC
:10216000012000F071FB6060094E00962B462A4664
:102170000849092000F054FDA060E560064A0749BF
:10218000304600F0A5F802B070BD00BFE00C0020A2
:1021900050550000CD1F0000545500005520000090
:1021A00038B50546074BD3F8B8305C683CB12946D2
:1021B000606802F002FB10B12468002CF7D12046C1
:1021C00038BD00BFF00C0020104B00225A8090F95F
:1021D0000030B3B110B40E4C024600F58060A4F19B
:1021E000BF0104F8013F4B8801334B8012F9013FD6
:1021F0000BB18242F5D1054B02221A705DF8044BF7
:102200007047024B02221A70704700BFF00C00208A
:10221000AF0D002008B503784BB10D30FFF7C0FFBC
:1022200078B1C06848B1FFF7CFFF012008BDD0F8F2
:10223000B030D868FFF7C8FFF7E70448FFF7C4FFDE
:10224000F3E70348FFF7C0FFEFE700BF905500003A
:10225000BC55000008B50248FFF7B6FF012008BDD5
:10226000D85500000FB400B583B004AA52F8041B7F
:102270000848002343800192C03002F0C7FA80B2C0
:1022800018B1044B588002221A7003B05DF804EBB9
:1022900004B07047F00C002070B582B000F0B8FABE
:1022A00044687CB10025094E0135A3686168E26885
:1022B000581A0190009129463046FFF7D3FF246851
:1022C000002CF1D1012002B070BD00BFF05500001C
:1022D00070B505460C46164602F079FA431E9BB2CD
:1022E0000A2B11D894B11021012000F0ADFA01465B
:1022F0000023036045608460C660054BD3F8B800D6
:1023000000F008FA012070BD0020FCE70020FAE789
:10231000F00C00202DE9F041384B93F8C020202A22
:1023200034D00A2A32D05B88002B63D0344D044667
:1023300000231946A5F1C0066AB104F8012F013344
:102340009BB272889A4255D90B2B24D0013115F8D3
:10235000012F202AF0D1014400224A70274A5488D4
:102360009C4298BF002546D903F1BF0223490A4485
:10237000013CE41AC0310B4413FA84F300263446BE
:102380003546B446B0464FF0010E21E01D48FFF738
:1023900069FF002003E01C48FFF764FF0020BDE850
:1023A000F0811A48FFF75EFF0020F8E71EB300EB4C
:1023B00005110C4484F80DC00135ADB23978D1B1A6
:1023C0006646444602E0002EF1D16446934212D0A4
:1023D0000132174611782029F5D00029E6D0661C75
:1023E000B6B200EB05173C4461730F2ED9D83446C2
:1023F0007646EBE7002505700120D0E7F00C0020C1
:10240000B00D002028560000485600006456000019
:1024100038B5324B1B68324AD2F8BC10886A1B1A96
:102420008B84D2F8BC309A8CD98C914238BFDA8434
:102430002B4CD4F8BC30294A12689A62D4F8BC20DC
:10244000D3690133D36100F0C1F8D4F8BC305B89A3
:1024500033B92378012B17D0214B1B78022B30D0B6
:102460001F4CD4F8BC5000F0BFF82884D4F8BC301E
:102470001A8C598C914238BF5A84194BD3F8BC300E
:1024800000225A81042038BD2046002300F8043B76
:10249000FFF740FF0028DFD0601DFFF781FE0446F4
:1024A00058B10F48C0F8B440A368043098470028DA
:1024B000D2D1E068FFF788FECEE70A48FFF784FE36
:1024C000CAE70748D0F8C0344188C0309847002890
:1024D000C6D0034B00225A801A70C1E76009002061
:1024E000F00C00208056000030B583B0124C00255F
:1024F000257001221146104600F069F9C4F8B800B1
:102500000E4B00932B462A460D49092000F088FB0C
:10251000C4F8BC000B4A0C490C48FFF7D9FE0C4A22
:102520000C490D48FFF7D4FE0C4A0D490D48FFF742
:10253000CFFE03B030BD00BFF00C00209856000065
:1025400011240000A056000015220000C45600000F
:10255000CC56000055220000F4560000FC56000046
:10256000992200000C57000010B5064C0649204681
:10257000FEF726FB2046FEF7E2FA04490448FEF780
:102580001FFB10BDA00A00202C5100007851000054
:10259000C00A002003799BB90A4A1368013313600B
:1025A000094B9B8801339BB2B3F57A7F02D2064A6E
:1025B00093807047044B00229A801A6801321A6097
:1025C000704700BF600900206409002010B5054C69
:1025D0002046FEF7B9FAA36800229A642046FEF767
:1025E000AEFA10BDC00A002010B5064883689C6C86
:1025F000FEF7A0FA4FF6FF70A04228BF204680B237
:1026000010BD00BFC00A00204FF00043054A1B70F8
:1026100001339342FBD14FF0014337221A7001205E
:10262000704700BF0000088008B50D480D4BC3601F
:102630004FF4004383600123037400F025F9FFF792
:10264000E3FF00B908BD08484FF00043C3604FF4F2
:10265000002383600323037400F016F9F2E700BF40
:10266000B4110020C8110020C891002008B50B4B00
:1026700000221A605A609A60DA601A615A610A226E
:102680001A7100F00EF800F017F900F05FFB00F08F
:102690009FFAFFF729FFFFF75BFD08BDDC910020E3
:1026A000704708B5FFF760FF08BD0B4600292BD027
:1026B00000282BD00278022A2AD94268AAB18A427D
:1026C00018D082688A4204BF4A6882605A680AB198
:1026D000196811601A680AB1596851604288013A54
:1026E0004280002018605860704700234380836058
:1026F0000220704782688A4202D00A684260E5E799
:10270000002242608260E1E70120704701207047AB
:1027100001207047F0B5438801334380D0F804E0CE
:10272000BEF1000F0AD04478012C45D00678022E65
:1027300019D0042E17D000252F4616E00378022B5F
:1027400008D80EBF096000230B604160816001233F
:1027500043802EE0042B03D000230B604B60F4E792
:1027600009604960F1E785687746022E94BFD1F889
:1027700004C0D1F808C0734606E062450ED21A685C
:102780001D46974218D01346022E94BF5A689A6885
:10279000022CF2D0032CF2D16245F0D89E4509D02C
:1027A00005B129600B600278022A02D94D6003B19D
:1027B0005960F0BD4160F3E785682B688160F0E700
:1027C000417002700023438043608360704738B5D6
:1027D0000D4614460C2100F037F8034628B1457029
:1027E00004700022428042608260184638BDFFFFBC
:1027F00008B50821012000F027F80022026042609D
:10280000024A93890133938108BD00BFDC91002007
:10281000004870476C090020094B00221A615A6178
:10282000084B5B685BB1064A116998680144116105
:1028300051695868014451611B68002BF4D17047FD
:10284000DC9100206C09002038B511F003031CBF97
:102850000431C91A0B4B5C6814B90CE0246854B1FC
:10286000237C8342FAD163685A18A568AA42F5D23C
:10287000E1686260CC18002CFDD0FFF7CDFF204648
:1028800038BD00BF6C09002078B10146C36873B140
:1028900083680BB90120704710B5002444600460C0
:1028A0000448FFF737FF204610BD01207047012084
:1028B000704700BF6C09002008B50122114603488B
:1028C000FFF77EFFFFF7B0FE08BD00BF6C090020D8
:1028D0002DE9F0410D460821FFF7B6FF0646164ADE
:1028E000D3790133D37155B9002303700122114606
:1028F0001046FFF76CFF70603046BDE8F0810120A4
:10290000307075700C4A13892B441381A900FFF7AE
:102910009BFF7060013DEDB20135AD0000244FF02A
:1029200001087768424641464046FFF750FF38515C
:102930000434AC42F5D1DFE7DC91002043685868ED
:1029400028B103798B4202D000680028F9D1704782
:1029500070B505460E46FFF7F1FF044608B1204664
:1029600070BD0C210120FFF76FFF044600230360B8
:10297000012211461046FFF72AFFA060267121466A
:102980006868FFF7C7FE024A138901331381E6E73F
:10299000DC910020406828B143688B4202D0006877
:1029A0000028F9D17047FFFF38B504460D46FFF700
:1029B000F1FF00B138BD08210120FFF745FF0146B6
:1029C0000023036045602046FFF7A4FE024A5389B6
:1029D00001335381EEE700BFDC91002090B110B5C8
:1029E000144652B102784AB142788A4205D9436806
:1029F00053F821002146FFF7D7FF10BDFFF7A8FFCE
:102A00008068F7E770470378012B09D0436858685E
:102A100080B103798B420AD000680028F9D1704751
:102A200043788B4205D9436853F82100704780688A
:102A3000704700207047A8B138B51546FFF7E3FF8F
:102A400090B144681CB900200BE0246844B163686D
:102A5000002BFAD0284698470028F6D0012000E045
:102A6000002038BD002070470020FAE7F8B50C4B75
:102A70001B685D686DB100270A4E2C462D686760A3
:102A8000276021463068FFF745FE3368E361002D7B
:102A9000F3D1034B1B6800225A609A605A80F8BD3C
:102AA000FC910020F891002038B504460B4B1D68BE
:102AB0000146C069FFF7F9FD0023A37301232373C7
:102AC00023692B44A360AB4234BF054D054D21461D
:102AD0002868FFF71FFE2B68E36138BD60090020FE
:102AE000FC910020F89100202DE9F843334B1A683F
:102AF000334B1B68996A521A92B29A84D98C9142CC
:102B000038BFDA842D4A12689A62DA690132DA61D2
:102B1000FFF75CFD2A4B1B685B89002B37D1274BE5
:102B20001D68284B1B68AB4202D9274B01221A7043
:102B3000244B1D60254B1B685C682CB3DFF8888034
:102B40000127224E11E063690BB1A0699847637BAE
:102B5000012B12D0A77300232373D4F800902146D1
:102B60003068FFF7A2FD4C4674B1A368AB42EAD9C6
:102B700098F80030002BE6D109E0D4F80090204608
:102B8000FFF792FF4C46EFE70F4B1B787BB90C4CDD
:102B90002568FFF729FD288423681A8C598C9142F7
:102BA00038BF5A8400225A810420BDE8F883FFF719
:102BB0005DFF054B00221A70E9E700BF60090020A5
:102BC000F4910020780900207C090020F891002071
:102BD00000B583B0032202210120FFF7F8FD0B4B63
:102BE0001860032201210846FFF7F1FD084B186029
:102BF000084B009300231A460749184600F010F8C6
:102C0000064B186003B05DF804FB00BFF89100208C
:102C1000FC91002010570000E92A0000F4910020E8
:102C20002DE9F0410546884617461E462C21012015
:102C3000FFF70AFE044600234381C0F81080476175
:102C40000572C660092D84BF0925057205EB45068E
:102C50000F4B03EB86060146B068FFF75BFD736818
:102C600093B10C4A53780133DBB25370637225720F
:102C7000069BA361002323846384E361A384E3842C
:102C8000A3622046BDE8F081B26852687260E8E74E
:102C900004920020DC91002010B504460821012098
:102CA000FFF7D2FD002202804460024A53880133BC
:102CB000538010BDDC9100200A4901F17800002208
:102CC00002E00C3181420CD08B685B68002BF8D09D
:102CD0001A845A84DA619A84DA841B68002BF7D14B
:102CE000EFE770470492002038B5FFF7E5FF154B7A
:102CF000154A1A601C4615460CE093685B685360E1
:102D00001368236006E02368AB4203D02560AB68FC
:102D10005B686B6022685368002BEED01A695869B3
:102D200090470028EFD023685A6812685A60002A3A
:102D3000E9D1AB42EAD1AB685B686B602B6823607A
:102D4000E8E700BF00920020049200202DE9F04146
:102D5000124D01244FF00008114F2E46C5F8048093
:102D6000032201210846FFF732FDA86087FB0432E9
:102D7000E317C3EBA20303EB8303A4EB430303EBCF
:102D8000430306EB830345F80C3B01340B2CE5D1E0
:102D9000044B024A1A60BDE8F08100BF0492002093
:102DA00067666666009200202DE9F843274B5B6852
:102DB0005C6A588A26180B283CD90246244DDFF855
:102DC0009880224F2368AB4230D1A18840F2F4733F
:102DD00099422BD893B201F10C0C63451BD36318B5
:102DE000B3F80A90063189B2201DFEF77FFE8145B7
:102DF00022D1E28841460420FFF786F9E188224685
:102E0000090AB868FFF717FEA3880C331C44321B6D
:102E100090B20B28D6D868B10C4B5B68586AA042B8
:102E200008D092B2214601F0B3FC03E0074B5B6887
:102E300000225A82BDE8F88306490120FFF764F9B1
:102E4000024B5B6800225A82F4E700BF88920020A0
:102E500068796E6E345700001857000038B5194B6A
:102E60001A68194BDB68996A521A92B29A84D98C03
:102E7000914238BFDA84134A12689A62DA690132E1
:102E8000DA61FFF7A3FB104BDB685B8953B90E4C8B
:102E90006068C36BDB699847FFF786FF6068C36BA8
:102EA000DB699847084CE568FFF79EFB2884E368D8
:102EB0001A8C598C914238BF5A8400225A810420BE
:102EC00038BD00BF6009002088920020F0B585B0B1
:102ED00004460E461746224B0393FFF789FC034630
:102EE000204D214A00922A4620490220FFF798FEF1
:102EF000E86006210120FFF7EBFCA86000F000FB72
:102F00004FF400631A46012101F050F868604FF653
:102F1000FF739E420DD08686C786621E00F1300385
:102F2000E01C12F8011F03F8011B9042F9D105B013
:102F3000F0BD40F2E573838640F2E673C3869DF8E8
:102F40000C3080F830309DF80D3080F831309DF82D
:102F50000E3080F832309DF80F3080F83330E6E7DD
:102F6000C0A8001E88920020505700005D2E00006F
:102F700002460A4B5B68D97A032909D1198A188C51
:102F8000401A904207DB986A08440A441A82704744
:102F90000020188270470020704700BF98920020E0
:102FA00030B4851C032914D004398CB2E11C0144CF
:102FB0002A46002312F8010B0344DBB28A42F9D1FE
:102FC000013425442878984214BF0020012030BCE9
:102FD00070470023F6E7FFFF08B50A460146024B9B
:102FE0009868FFF7FBFC08BD98920020002A48D0A3
:102FF0002DE9F041074688461D46164613B90020C4
:10300000BDE8F08103F10A0080B2FFF7B1FF04468A
:10301000002838D0EE23037043708370C3702B1DDB
:103020009BB203711B0A437180F80680C7716F1E43
:10303000BFB2013737443246C6F10800111889B2D1
:1030400012F8013B6354BA42F8D105F108039BB270
:103050000022E25405F109039BB2E118E2544FF655
:10306000FD739D420BD0631DAA1C92B2063214441C
:103070000A7813F8010F02440A70A342F8D12846D7
:10308000BEE7002070470020BAE7FFFF70B51C4B79
:103090005D686C8A082C2FD9686AAB7983B1431EAE
:1030A00005F13002C61C13F8011F02F8011BB342E0
:1030B000F9D10279437903EB0223114A5380083096
:1030C0000378FF2B13D14378FF2B10D18378FF2B8C
:1030D0000DD1C378FF2B0AD18188023189B24B1DF3
:1030E000A3420BDA041D2046FFF75AFF10B9002057
:1030F00068820446204670BD0024FBE70024F9E7FF
:103100009892002038B51E4B1A681E4BDB68996AEE
:10311000521A92B29A84D98C914238BFDA84184AF2
:1031200012689A62DA690132DA61FFF74FFA154BD9
:10313000DB685B89ABB9134B5868C36BDB69984795
:10314000FFF7A4FF024638B10E4CC178A068FFF724
:1031500072FC636800225A820A4B5868C36BDB69B1
:103160009847084CE568FFF73FFA2884E3681A8C13
:10317000598C914238BF5A8400225A81042038BDAC
:10318000600900209892002010B582B0FFF730FB54
:103190000346164C164A0092224616490920FFF7AC
:1031A0003FFDE06000210120FFF792FBA06000F0EE
:1031B000A7F94FF400631A46022100F0F7FE6060A1
:1031C00044F6F063838644F6F163C386C02380F837
:1031D0003030A82380F83130002380F83230642367
:1031E00080F833300123837102B010BD9892002023
:1031F000585700000531000008B5002240F2037165
:103200000148FDF7C5FB08BD8C09002008B5012267
:1032100040F203710148FDF7BBFB08BD8C0900209B
:1032200008B500220F210248FDF7B2FB08BD00BF20
:103230008C09002008B501220F210248FDF7A8FBE8
:1032400008BD00BF8C0900200379012B0CBF0122AF
:103250000222014B1A607047A892002010B5044664
:10326000FFF7CAFF0120FFF71BFA1F4B9A68D378BC
:1032700013F0200FFBD0C4F3074313711A4B9B6864
:10328000DA78D209FCD01A79DA7812F0200FFBD064
:10329000C4F307221A71144B9B68DA78D209FCD068
:1032A0001A79DA7812F0200FFBD0E4B21C710E4BC1
:1032B0009B68DA78D209FCD01A79DA7812F0200FFC
:1032C000FBD000221A71084B9A68D378DB09FCD036
:1032D0001479E4B20120FFF7E3F9FFF797FF01202B
:1032E000FFF7DEF9204610BD680A002038B5054614
:1032F0000C46FFF781FF0120FFF7D2F945F00400EB
:103300001E4B9A68D37813F0200FFBD0C0F307430D
:1033100013711A4B9B68DA78D209FCD01A79DA78E3
:1033200012F0200FFBD0C0F307221A71134B9B68D9
:10333000DA78D209FCD01A79DA7812F0200FFBD0B3
:10334000C0B218710D4B9B68DA78D209FCD01A799B
:10335000DA7812F0200FFBD01C71084B9A68D378F2
:10336000DB09FCD01479E4B20120FFF799F9FFF7EB
:103370004DFF0120FFF794F9204638BD680A002070
:10338000002960D0F8B5074615461C460E4602B91E
:10339000F8BDFFF731FF0120FFF782F90CB947F0C4
:1033A0000407294B9A68D37813F0200FFBD0C7F39A
:1033B00007431371244B9B68DA78D209FCD01A7941
:1033C000DA7812F0200FFBD0C7F307221A711E4BD8
:1033D0009B68DA78D209FCD01A79DA7812F0200FDB
:1033E000FBD0FFB21F71184B9A68D378DB09FCD071
:1033F00013793046013D16FA85F6134B552505E045
:103400000A790270421CB04214D010469968CA78FA
:1034100012F0200FFBD02CB10D719968CA78D20937
:10342000FCD0EDE702780A719968CA78D209FCD01D
:103430000A79E7E70120FFF733F9FFF7E7FE0120FC
:10344000FFF72EF9A4E77047680A002010B5264957
:103450002648FCF7F1FE28B9244B9A68137843F00C
:1034600040031370214C012384F82030A268D37AE2
:1034700043F04003D3722046FDF72AF8A268137880
:103480006FF345131370A26813786FF3C7131370AB
:10349000A3681A8A42F001021A821A8A42F00202D2
:1034A0001A821A8A6FF383021A821A8A6FF306123B
:1034B0001A821A8A6FF3C7121A821A8A072161F3D5
:1034C0000B221A821A8A6FF30C321A821A8A42F479
:1034D00000521A821A8A42F480421A821A8A42F4EC
:1034E00000421A8210BD00BFF4510000680A00209B
:1034F000024B9878421C9A7040B27047AC92002000
:1035000000487047AC92002038B5054603795B014E
:1035100003F50270FFF7A2FE04462B795B0100F071
:103520001F0103F50270FFF7E1FE14F0010F1CBF4D
:103530000123AB7314F0020F1CBF0323AB7314F011
:10354000040F1CBF02236B7314F0080F03D0012378
:10355000EB7100232B7314F0100F1CBF00232B738F
:1035600038BDF8B54601083606F5185706F51C565D
:1035700000250BE03846FFF771FE0502ADB230467C
:10358000FFF76CFE0544ADB2A5420CD03846FFF7FC
:1035900065FE0402A4B23046FFF760FE0444A4B204
:1035A000002CF1D0E6E72046F8BDF8B54601083614
:1035B00006F5005706F5045600250BE03846FFF7E0
:1035C0004DFE0502ADB23046FFF748FE0544ADB2F0
:1035D000A5420CD03846FFF741FE0402A4B23046A3
:1035E000FFF73CFE0444A4B2002CF1D0E6E72046ED
:1035F000F8BDF8B504460079FFF7B3FF08B900201D
:10360000F8BD05462079400100F520500830FFF74D
:1036100025FE06462079400100F524500830FFF7CA
:103620001DFE00EB0626B6B2678A616A207940016A
:10363000183001232A46394400EB0620FFF7A0FE8C
:10364000A9198EB220794001C1F3072100F520505D
:103650000830FFF74BFE20794001F1B200F524500D
:103660000830FFF743FE4FF4FA70FFF719F820799E
:10367000400100F520500830FFF7F0FD06462079A4
:10368000400100F524500830FFF7E8FD00EB06206C
:10369000A06320794001402100F58470FFF726FEE9
:1036A0004FF4FA70FEF7FCFF2079400100F58470BA
:1036B000FFF7D4FD638A2B4463822846A0E770B5E8
:1036C00004460079FFF771FF238A834276D8237B73
:1036D0000BB1002073E02079400100F50270FFF784
:1036E000BDFD10F0100F3CD110F0080F41D16379EF
:1036F000022B46D02079400100F510500830FFF72A
:10370000ADFD06462079400100F514500830FFF762
:10371000A5FD00EB06262079400110300023228A07
:10372000A16A00EB0620FFF72BFE258A354420799D
:103730004001C5F3072100F510500830FFF7D6FD12
:1037400020794001E9B200F514500830FFF7CEFDB2
:1037500020794001202100F58470FFF7C7FD207C0F
:103760002DE020794001102100F50270FFF7BEFD29
:10377000BDE720794001082100F50270FFF7B6FD92
:10378000B5E7207940010023042204F1300100F65E
:103790000840FFF7F5FDA18E20794001090A00F5E8
:1037A00080500830FFF7A2FD2079400194F83410D2
:1037B00000F588500830FFF799FD9BE7002070BDA9
:1037C00070B50446C26A1388DBB1B3F5D67F40F00A
:1037D0009D805268514B1B6811685B1A5268934276
:1037E000C0F09A802079400100F54270FFF736FD65
:1037F00085B26379012B5ED0022B68D00423E3727B
:1038000085E04179012900794FEA401008BF212164
:103810000830FFF76BFD207940010830FFF71EFDEF
:10382000E18E20794001090A00F58160FFF75EFD15
:103830002079400194F8361000F5A160FFF756FD9D
:103840002079400100F58160FFF708FD20794001F3
:1038500000F5A160FFF702FD6379012B1BD02079F1
:103860004001012100F58470FFF740FD20794001FF
:1038700000F58470FFF7F2FCE36A5B68002BB1D0BF
:10388000264A12681A600A225A60E36A4FF4D67216
:103890001A8001203FE020794001052100F53C50CD
:1038A0000830FFF723FD2079400100F53C50083037
:1038B000FFF7D4FCD3E7132DA0D100232373E371CA
:1038C000637323826382A373237202230AE0222D8F
:1038D00094D100232373E371637323826382A37300
:1038E00023720323E3722079400100F52050083051
:1038F000FFF7B4FC06462079400100F5245008305B
:10390000FFF7ACFC00EB0620A06300E00025E36AB3
:1039100000221A80E8B270BD0120FCE76009002097
:1039200070B582B00446FFF7EFFD2079400100F545
:103930004270FFF793FC8DF80400172804BF0123A1
:10394000A373E26A1388A3B1B3F50F7F5BD1A37BA6
:10395000012B53D05268304B1B6811685B1A5268B8
:10396000934256D30423E372E36A00221A800320B1
:103970004DE004F1300120794001002304220D467E
:1039800000F60840FFF7FCFC01AB294604F13405C2
:10399000FF2613F8010B11F8012B904218BF03F812
:1039A000016CA942F5D1A18E20794001090A00F5E8
:1039B00080500830FFF79AFC2079400194F83410C9
:1039C00000F588500830FFF791FC20794001042170
:1039D00000F58470FFF78AFCE36A5B685BB10E4A0E
:1039E00012681A604FF47A725A60E36A4FF40F72E9
:1039F0001A8001200BE0A37B012BB3D1A369002225
:103A00005A600323E372E36A00221A80032002B0A3
:103A100070BD0120FBE700BF6009002010B504461F
:103A2000C26A138840F281218B420AD040F28D2174
:103A30008B425AD0002B33D0E36A00221A80032035
:103A400010BD5268304B1B6811685B1A5268934274
:103A500056D32079400100F54270FFF7FFFB10B10B
:103A6000E36B00221A70207940011F2100F50270DB
:103A7000FFF73CFC2079400100F50270FFF7EEFBF8
:103A8000E36A5B68002B38D01F4A12681A604FF453
:103A9000FA625A60E36A40F28D221A800120CFE771
:103AA0000079400100F54270FFF7D8FB78B9E36A6E
:103AB0005B68002BCDD0144A12681A604FF4FA727A
:103AC0005A60E36A40F281221A800120B8E7207927
:103AD0004001102100F58470FFF708FC20794001B7
:103AE00000F58470FFF7BAFBE1E75268064B1B68EC
:103AF00011685B1A5268934204D30123E3729BE777
:103B000001209DE701209BE76009002010B50446D5
:103B1000038A002B31D1E26A1388FBB140F2C52140
:103B20008B4231D152681B4B1B6811685B1A52687B
:103B300093422DD32046FFF7E7FC2046FFF759FDBF
:103B400010B1002363732372A37B042B02D0E379AB
:103B5000012B03D1002323820423E372E36A5B6811
:103B6000002BE7D00B4A12681A6005225A60E36AFC
:103B700040F2C5221A80012009E0FFF7A0FD0028CD
:103B8000C9D000232382C6E700231380032010BD81
:103B90000120FCE76009002010B504468269138803
:103BA00040F209318B4248D04FF000001FD8002B63
:103BB00032D040F205318B422AD15268304B1B681B
:103BC00011685B1A5268934253D3FFF733FBA36922
:103BD0005B68002B39D02A4A12681A604FF47A7257
:103BE0005A60A36940F209321A80012013E040F2C2
:103BF0000E318B420CD15268214B1B6811685B1A45
:103C00005268934239D30020FFF728FB0123237029
:103C1000A36900221A8010BDFFF702FBA3695B684D
:103C2000002BD2D0164A12681A6064225A60A36927
:103C300040F205321A800120EDE75268104B1B68F4
:103C400011685B1A5268934215D380210020FFF758
:103C50004DFBA3695B68002BD5D0094A12681A6036
:103C60004FF4FA725A60A36940F20E321A800120B2
:103C7000D1E70120CFE70120CDE70120CBE700BF4E
:103C800060090020F0B583B0054683691B882BB11D
:103C9000AB6900221A80042003B0F0BD3C4C062220
:103CA00021464FF41060FFF76BFB012306226946A3
:103CB0004FF41060FFF764FB611E6C460DF10606C1
:103CC0006B46FF2713F8012B11F8010F904218BF24
:103CD00003F8017CB342F5D12E4E00230422314675
:103CE0004FF48070FFF74CFB0123042269464FF428
:103CF0008070FFF745FB3146261D2346FF2711F84C
:103D0000010B13F8012B904218BF03F8017CB3425A
:103D1000F5D1214F0023042239464FF4A060FFF76C
:103D20002FFB0123042269464FF4A060FFF728FB14
:103D300039462346FF2711F8010B13F8012B904257
:103D400018BF03F8017CB342F5D1144F00230422BD
:103D500039464FF47060FFF713FB012304226946D4
:103D60004FF47060FFF70CFB3946FF2011F8012B70
:103D700014F8013B9A4218BF04F8010CB442F5D183
:103D80004FF43850FFF76AFA03232B7080E700BF27
:103D9000BB920020B7920020B3920020AF92002087
:103DA00010B50446826913889BB140F299318B4269
:103DB00021D15268134B1B6811685B1A52689342F9
:103DC0001ED34FF43850FFF749FA607010F0010F1E
:103DD0000FD0A3695B68002BF3D00A4A12681A60FF
:103DE0004FF47A725A60A36940F299321A80012026
:103DF00005E003232370A36900221A80032010BD6D
:103E00000120FCE76009002010B504468269138890
:103E10009BB140F2C1318B4221D15268134B1B68D8
:103E200011685B1A526893421ED34FF43850FFF763
:103E300015FA607010F0010F0FD1A3695B68002BB9
:103E4000F3D00A4A12681A604FF47A725A60A36972
:103E500040F2C1321A80012005E002232370A369D9
:103E600000221A80032010BD0120FCE76009002019
:103E700008B50378032B05D8DFE803F00205080B2B
:103E8000FFF78AFE08BDFFF7FDFEFBE7FFF788FF9F
:103E9000F8E7FFF7B9FFF5E710B50446C06BFFF789
:103EA000E7FF0E4B1B78022B0AD1E37A013B032B71
:103EB00006D8DFE803F002060A0E2046FFF780FC72
:103EC00010BD2046FFF72CFDFAE72046FFF71EFE47
:103ED000F6E72046FFF7A2FDF2E700BFAC92002014
:103EE0002DE9F84307460E4615469846FFF7AEFA09
:103EF000174C4FF0000984F80090164BE361FEF771
:103F000077FCFEF7C9FEA061134B236284F8029090
:103F10007B1E0334711E6A1E08F1FF35033713F848
:103F2000010F04F8010B11F8010FE07012F8010FF6
:103F3000E07115F8010FE072BB42F0D198F804204F
:103F4000034BDA7498F805201A75BDE8F88300BFB2
:103F5000AC920020993E0000F134000030B587B0EB
:103F600004460D460E4905916FF07F4104910D49BD
:103F700003C90290ADF80C100B4901912168B1F111
:103F8000FF3F05D029462046FFF7AAFF07B030BD06
:103F900002AB05AA04A901A8FFF7A2FFF6E700BF3C
:103FA000C0A8000124550000C0A800032DE9F84373
:103FB0008046894617461E46036A98470546002DE7
:103FC000FDDB40210120FEF73FFC0446057180F82F
:103FD00005904FF0010980F80B900025857345731B
:103FE000C571057305824582C0F83C80078446840C
:103FF00039464846FEF728FCA06231464846FEF79F
:1040000023FC6062FEF7F4FBE061FEF7F1FBA061C8
:10401000E3690A225A60E3695D60FEF7E9FBFEF797
:104020003BFEE0622046BDE8F883FFFF08B50A4684
:10403000074B1B6872B6074B4FF0FF311960014602
:104040000548FDF737F862B6B0FA80F0400908BDC0
:104050006009002080090020FC0900202DE9F041C2
:1040600005460C469046144B1B6872B6134B4FF036
:10407000FF321A600F46434602461148FCF7D6FF4E
:1040800062B688B94FEA9806B8F1030F0FD9211F1D
:104090002C1DE41B625851F8043F9A4209D10130AB
:1040A0008642F7D8012000E00020BDE8F081012021
:1040B000FBE70020F9E700BF60090020800900202D
:1040C000FC09002008B50B460146184600F060FBCD
:1040D00008BDFFFF0378032B12D8DFE803F00A0EB8
:1040E0000602084B03221A607047064B02221A6030
:1040F0007047044B00221A607047024B01221A607D
:10410000704700BF8009002008B508490848FCF73F
:10411000C3FE08B1002008BD002202210448FDF7BB
:1041200021F8B0FA80F04009F5E700BF185100000F
:10413000FC09002083790BB10120704710B5047988
:10414000C27A837A03EB0222437A03EB0223007ADA
:104150004FF4806100EB032000F056FA084A147017
:10416000002151709170D1700123137150719171C0
:104170000423D37108230320FEF738FF012010BD6C
:10418000D092002038B583790BB1012038BD057974
:10419000437A047A04EB0324C17A837A00F10C0297
:1041A00003EB0121204600F05FFA084A1570002158
:1041B00051709170D170107151719471240AD47141
:1041C00008230420FEF712FFDFE700BFD092002093
:1041D00082790AB10120704738B50346427A007AE5
:1041E00000EB022080B2124C1B7923700025657011
:1041F000A570E5700F4B1B6823711A0A62711A0CC7
:10420000A2711B0EE3712072030A6372A57204236C
:10421000E37204F130024FF4806100F05FFA40F283
:104220000C43224629460520FEF7E0FE012038BD5A
:10423000D0920020EC9A002000B583B000218DF8C8
:1042400000108DF801108DF802108DF803108DF814
:10425000041001208DF8050006236A46FEF7C6FE0D
:1042600003B05DF804FB08B503794BB983790BB152
:10427000012006E000F042F9FFF7DEFF012000E038
:10428000002008BD00B585B018BB00F037F900214B
:104290008DF804108DF805108DF806108DF80710B4
:1042A00001238DF808308DF809108DF80A108DF86B
:1042B0000B108DF80C108DF80D108DF80E108DF878
:1042C0000F100C2301AA0220FEF790FE05B05DF846
:1042D00004FB00F019F9DAE708B543790BB10120C6
:1042E00008BDC079FFF7CEFFF9E7FFFF08B50A491F
:1042F0000120FEF771FE09490220FEF76DFE084914
:104300000320FEF769FE07490420FEF765FE064913
:104310000520FEF761FE08BD67420000D94200009B
:104320003541000085410000D141000070474FF445
:1043300080331868013018BF0120704772B65B4B9C
:104340000122C3F88020BFF34F8FBFF36F8F02218C
:10435000C3F88010BFF34F8FBFF36F8F0421C3F8F2
:104360008010BFF34F8FBFF36F8F0821C3F8801009
:10437000BFF34F8FBFF36F8F1021C3F88010BFF3CF
:104380004F8FBFF36F8F2021C3F88010BFF34F8F83
:10439000BFF36F8F4021C3F88010BFF34F8FBFF37F
:1043A0006F8F8021C3F88010BFF34F8FBFF36F8FE3
:1043B0004FF48071C3F88010BFF34F8FBFF36F8F3E
:1043C0004FF40071C3F88010BFF34F8FBFF36F8FAE
:1043D000C3F88010BFF34F8FBFF36F8F4FF40021EE
:1043E000C3F88010BFF34F8FBFF36F8F4FF480116E
:1043F000C3F88010BFF34F8FBFF36F8F4FF40011DE
:10440000C3F88010BFF34F8FBFF36F8F4FF480015D
:10441000C3F88010BFF34F8FBFF36F8F4FF400616D
:10442000C3F88010BFF34F8FBFF36F8F4FF48051ED
:10443000C3F88010BFF34F8FBFF36F8F4FF400515D
:10444000C3F88010BFF34F8FBFF36F8F4FF48041DD
:10445000C3F88010BFF34F8FBFF36F8F4FF400414D
:10446000C3F88010BFF34F8FBFF36F8F4FF48031CD
:10447000C3F88010BFF34F8FBFF36F8F4FF400313D
:10448000C3F88010BFF34F8FBFF36F8F4FF48021BD
:10449000C3F88010BFF34F8FBFF36F8FC3F8802036
:1044A000BFF34F8FBFF36F8F72B6704700E100E02C
:1044B0000246B0B100230F498B60BFF34F8FBFF3AB
:1044C0006F8F1B6883F3088852B1BFF34F8F094980
:1044D000CA6802F4E062084B1343CB60BFF34F8F0E
:1044E00070474FF4823303498B60BFF34F8FBFF3A4
:1044F0006F8FE6E700ED00E00400FA05014B0122B2
:104500001A707047D09A002008B5FFF710FF08B95D
:10451000002008BDFFF712FF0020FFF7C9FF024B84
:104520001B689847F4E700BF0404010038B5344B1A
:104530001A68344B9B69996A521A92B29A84D98C40
:10454000914238BFDA842E4A12689A62DA690132DF
:10455000DA61FEF73BF82B4B9C69638923B1F92B99
:104560003BD1284B1B78D3B1264AE368002B30D0CF
:10457000234A12681A6042F210725A60214B9B69FA
:10458000F9225A811F4CA569FEF72EF82884A369E9
:104590001A8C598C91422ED25A8401202AE0E2686A
:1045A000174B1B6811685B1A52689342EAD3FFF7F6
:1045B000ABFF144CA36900225A81A569FEF714F8D9
:1045C0002884A3691A8C598C914216D25A840320EC
:1045D00010E01378002BC8D1E9E7FEF705F8208436
:1045E000084B9B691A8C598C914238BF5A8400221F
:1045F0005A81042038BD0120FCE70320FAE700BF00
:1046000060090020D09A002038B5144B984201D997
:10461000012038BD04460D460A214FF48030FFF7D3
:1046200005FDC0B10E4B1C600E4B00225A609D6010
:10463000DA60B4FBF5F305FB13434BB1B4FBF5F4BF
:104640000134084B1C614FF482325A610020E0E7CC
:10465000B4FBF5F4F5E70220DBE700BF00FC040043
:10466000EC9A0020D09A0020194BDB68834201D0DD
:104670000420704710B50C461146154B9A685869CE
:10468000FFF7ECFCF8B1124BDA680132DA605969D5
:104690009868014459615968214459601B699A42DC
:1046A00013D30C4B19681A4613685B1A632BFBD99A
:1046B000802209494FF48030FFF7D0FC002814BF56
:1046C0000020052010BD0320FCE70020FAE700BF12
:1046D000D09A002060090020EC9A002008B50B4613
:1046E000114603FB00F01A4600F58030FFF7EAFCA4
:1046F00008BDFFFF30B583B00C4C0025257080222B
:104700004FF480310A4800F043F8FEF771F8034691
:10471000084A00922A4608490420FEF781FAA0615F
:10472000FFF7E4FDFFF702FE03B030BDD09A002092
:10473000EC9A0020605700002D45000010B572B6BD
:10474000FFF7E2FCFDF72AFB0D4C206800F11C038B
:1047500000F1140200F110010830FFF7FFFB2068A0
:10476000028B418B0C30FEF7B1FBFEF70DFDFFF71E
:10477000C1FF6420FDF7BEFAFDF71AFC62B610BD5A
:1047800060080020014B1868704700BF68080020CF
:104790000A44431E914200D1704710B511F8014BF5
:1047A000914203F8014FF9D110BD024403469342F0
:1047B00000D1704703F8011BF9E710F8012B11F83D
:1047C000013B012A28BF9A42F7D0D01A704703460E
:1047D00013F8012B002AFBD1181A01387047FFFF8C
:1047E00000B59BB0009104916FF0004105910291DA
:1047F00005490391694600F06FF8009B00221A708A
:104800001BB05DF804FB00BF0802FFFF13460A4619
:10481000014602480068FFF7E3BF00BF68080020B8
:104820002DE9F0478E6882460C4690469E421F4610
:1048300038D88A8912F4906F32D02568013309691B
:10484000A5EB0109656905EB45054B4405EBD575FD
:104850006D109D4238BF1D46530531D5294600F0E5
:1048600049FB064650B90C234FF0FF30CAF8003020
:10487000A38943F04003A381BDE8F0874A4621693C
:10488000FFF786FFA38923F4906343F08003A3819D
:1048900026614E446561A5EB090526603E46A5608C
:1048A000BE4200D93E4632464146206800F0B8FA82
:1048B000A368226800209B1B3244A3602260DBE7D0
:1048C0002A4600F071FB06460028E1D121695046D6
:1048D00000F0C0FAC7E7FFFF2DE9F04F98468B893B
:1048E0009DB007461B060D4614460ED50B6963B9ED
:1048F000402100F0FFFA2860286120B90C233B60BA
:104900004FF0FF30D1E040236B610023CDF80C80E5
:104910004FF00109DFF8AC81099320238DF829308D
:1049200030238DF82A3023469A4613F8012B0AB11A
:10493000252AF9D1BAEB040B0BD05B462246294657
:104940003846FFF76DFF013000F0AA80099A5A44FB
:1049500009929AF80030002B00F0A28000234FF05B
:10496000FF320AF1010A049307938DF853301A932A
:10497000CDE9052354460522524814F8011B00F0E6
:1049800041FA049AD8B9D00644BF20238DF8533099
:10499000110744BF2B238DF853309AF800302A2B8F
:1049A00015D0079A544600204FF00A0C214611F802
:1049B000013B303B092B4ED9B0B1079214E0A0EB7C
:1049C0000803A24609FA03F313430493D2E7039BB7
:1049D000191D1B68002B0391BBBF5B4242F0020212
:1049E00007930793B8BF049223782E2B0CD16378DA
:1049F0002A2B35D1039B02341A1D1B68002B03920E
:104A0000B8BF4FF0FF330593DFF8C8A00322217829
:104A1000504600F0F7F940B14023A0EB0A00013402
:104A200003FA00F0049B0343049314F8011B0622CD
:104A300025488DF8281000F0E5F9002838D0234BE0
:104A40001BBB039B073323F0070308330393099B26
:104A50003344099367E70CFB02320C460120A5E7BB
:104A6000002301344FF00A0C19460593204610F834
:104A7000012B303A092A03D9002BC5D00591C3E791
:104A80000CFB012104460123F0E703AB2A4604A9ED
:104A9000384600930E4B00E000BF421C0646D6D1BC
:104AA000AB895B063FF52CAF09981DB0BDE8F08FD0
:104AB00003AB2A4604A938460093054B00F07CF866
:104AC000EBE700BF645700006E57000000000000D5
:104AD000214800006A5700002DE9F0471646994624
:104AE0008A6807460B690C46DDF820809342B8BF00
:104AF0001346336091F843200AB1013333602368D1
:104B0000990642BF336802333360256815F0060505
:104B100006D104F1190AE36832689B1AAB4229DC1A
:104B200094F84320131E226818BF012392062ED446
:104B300004F1430249463846C047013021D023687A
:104B40001A3454F80E5C03F0060332680026042B76
:104B500054F8123C08BFAD1A54F80A2C14BF0025B3
:104B600025EAE5759342C4BF9B1AED18B5421AD1E8
:104B7000002008E00123524649463846C04701302C
:104B800003D14FF0FF30BDE8F0870135C3E7E118EE
:104B90005A1C30200233224481F8430094F8451017
:104BA00082F84310C4E70123224649463846C047ED
:104BB0000130E6D00136D9E72DE9FF470C46914692
:104BC00080469A46277E04F143020C99782F07D835
:104BD000622F0AD8002F00F0D880582F00F0A38051
:104BE00004F1420684F842703AE0A7F16303152B02
:104BF000F6D801A050F823F0514C0000654C00009D
:104C0000E14B0000E14B0000E14B0000E14B0000F4
:104C1000654C0000E14B0000E14B0000E14B00005F
:104C2000E14B0000714D0000954C0000534D000019
:104C3000E14B0000E14B0000934D0000E14B000010
:104C4000954C0000E14B0000E14B00005B4D000083
:104C50000B6804F142061A1D1B680A6084F8423092
:104C60000123A3E0256808682E0600F104030AD595
:104C700005680B60002D03DA2D236D4284F8433064
:104C80005E480A2319E015F0400F05680B6018BF55
:104C90002DB2EFE70B682568181D0860280601D5BE
:104CA0001D6802E06906FBD51D886F2F53480CBFB5
:104CB00008230A23002184F843106668002EA660AA
:104CC000A2BF216821F0040121600DB9002E4DD052
:104CD0001646B5FBF3F103FB1157C75D06F8017DDE
:104CE0002F460D46BB42F4D9082B0BD12368DF07B2
:104CF00008D5236961689942DEBF302306F8013C7C
:104D000006F1FF36921B22614B4603AA214640461C
:104D1000CDF800A0FFF7E0FE01304CD14FF0FF309E
:104D200004B0BDE8F087354884F8457023680E6804
:104D30001F0656F8045B0E6014D5D90744BF43F034
:104D4000200323601DB9236823F020032360102370
:104D5000B0E7236843F0200323607823284884F8D1
:104D60004530E3E75E0648BFADB2E6E71646BBE76F
:104D70000B6826681D1D60690D6035061B6801D52E
:104D8000186002E07106FBD51880002316462361E7
:104D9000BAE70B681A1D0A6000211E686268304677
:104DA00000F030F808B1801B606063682361002365
:104DB00084F84330A8E72369324649464046D04745
:104DC0000130ABD023689B0713D4E068039B984263
:104DD000B8BF1846A4E70123324649464046D047AB
:104DE00001309BD00135E36803995B1AAB42F2DCDA
:104DF000EBE7002504F11906F5E700BF7557000041
:104E000086570000C9B2024410B59042034601D152
:104E1000002303E01C7801308C42F6D1184610BD07
:104E2000884210B501EB020402D98442234607D818
:104E3000431EA14208D011F8012B03F8012FF8E717
:104E4000024401468A4200D110BD13F8014D02F818
:104E5000014DF7E737B5002947D051F8043C0C1F46
:104E60000190002BB8BFE41800F0D4F8204A019854
:104E70001368154633B96360146003B0BDE8304071
:104E800000F0CEB8A3420BD921686218934202BF4A
:104E90001A685B685218636008BF22602C60ECE7F8
:104EA0001A465B680BB1A342FAD911685518A5429E
:104EB0000BD12468214454181160A342DDD11C6831
:104EC0005B68214453601160D7E702D90C2303606B
:104ED000D3E7256861198B4202BF19685B684919DD
:104EE000636008BF21605460C7E703B030BD00BFF6
:104EF00084090020F8B5CD1C064625F003050835C9
:104F00000C2D38BF0C25002D01DBA94203D90C2341
:104F100033600020F8BD00F07DF821490A6814468E
:104F20009CB9204F3B6823B92146304600F062F817
:104F300038602946304600F05DF8431C23D10C232D
:104F40003046336000F06CF8E3E723685B1B17D44E
:104F50000B2B03D923601C44256004E06368A24244
:104F60000CBF0B605360304600F05AF804F10B00A0
:104F7000231D20F00700C21ACCD01B1AA350C9E78A
:104F800022466468CCE7C41C24F00304A042E3D0AA
:104F9000211A304600F02EF80130DDD1CFE700BFF6
:104FA0008409002088090020F8B5074614460E46FB
:104FB00021B91146BDE8F840FFF79CBF22B925464C
:104FC000FFF748FF2846F8BD00F030F8A0420FD2A6
:104FD00021463846FFF78EFF05460028F2D03146BD
:104FE0002246FFF7D5FB31463846FFF733FFE9E7A6
:104FF0003546E7E738B50023054D044608462B60E3
:10500000FCF7EAFC431C02D12B6803B1236038BDD6
:105010006C9B0020014800F011B800BF749B002079
:10502000014800F00CB800BF749B002051F8043C0C
:10503000181F002BBCBF0B58C01870477047704733
:105040004275696C7420776974682052656E657367
:10505000617320416476616E63656420466C657897
:1050600069626C6520536F66747761726520506168
:10507000636B6167652076657273696F6E20332E8E
:10508000302E3000332E302E3000000000000003A0
:10509000F8B500BFF8BC08BC9E467047F8B500BF25
:1050A000F8BC08BC9E46704701B40248844601BC67
:1050B000604700BFDD05002001B40248844601BC02
:1050C000604700BF4903002001B40248844601BC88
:1050D000604700BF8101002001B40248844601BC42
:1050E000604700BF4504002001B40248844601BC6B
:1050F000604700BF4D07002001B40248844601BC50
:10510000604700BFA103002001B40248844601BCEF
:10511000604700BF8106002000000000D54000006D
:105120000000000000000000FFDFFFDF00000000C3
:10513000A08601000000000050C300000000000035
:1051400095250000000000004C5100000000000008
:10515000000000000000000000000000000000004F
:105160000000000000000000000000000000FFFF41
:10517000DFDF00000000000001000000000000640C
:10518000080000000000003201FFDF000000000006
:105190000000000098510000000000000000000026
:1051A00000000000000000000000000000000000FF
:1051B00000000000000000000000FFFFDFDF000033
:1051C00000000000980A0020D0510000F4540000B4
:1051D00030080020D851000002FFFFFFE00A002045
:1051E000E8510000F454000040080020F051000095
:1051F00001FFFFFF00010203040C0C0C0C00000077
:1052000001000000C4510000DC51000049320000E0
:105210000000000018520000010000000000000221
:1052200000000000410000002C52000005000000BA
:105230000F0000000000010B000100000000010B46
:10524000010100000000010B020100000000010B41
:10525000030100000000010B040100000000010B2D
:10526000050100000000010B060100000000010B19
:10527000070100000000010008010000000001001B
:1052800009010000000001000A0100000000010BFC
:105290000B0100000000010B0C0100000000010BDD
:1052A0000D0100000000010B0E0100000000010BC9
:1052B0000F0100000000010B030200000000010BC1
:1052C000040200000000010B050200000000010BB9
:1052D0000702000000000100000300000000010BB5
:1052E000010300000000010B020300000000010B9D
:1052F000030300000000010B040300000000010B89
:10530000050300000000010B060300000000010B74
:10531000070300000000010B080300000000010B60
:10532000090300000000010B0A0300000400000054
:105330000304000004000000040400000400000056
:1053400005040000000001060A0400000000010638
:105350000B040000000001060C0400000500000022
:105360000D04000000000111000500000000011103
:1053700001050000000001110205000000000111FC
:1053800003050000000001110405000000000111E8
:1053900005050000050000000605000000000110E2
:1053A0000B050000000001100C0500000000010BBF
:1053B000000600000000010B010600000000010BC8
:1053C000080600000000010B090600000000010BA8
:1053D0000A060000040000000B06000000000105A2
:1053E0000D060000000001050E0600000000010689
:1053F0000007000000000106010700000000010690
:105400000207000005000000030700000000011073
:10541000040700000000011005070000000001055E
:105420000807000000000105090700000400000053
:105430000B070000C600C401C501C801C701A100D7
:10544000A400A500A600A900AA00AA01AB01AC0116
:10545000AD018601870188018901C901CA01CD0119
:10546000CC0100000000000000000000000000006F
:10547000000000000000000000000000000000002C
:10548000000000000000000000000000000000001C
:10549000000000000000000000000000000000000C
:1054A00000000000000000000000000000000000FC
:1054B00000000000000000000000000000000000EC
:1054C00000000000000000000000000000000000DC
:1054D00000000000000000000000000000000000CC
:1054E00000000000000000000000000000000000BC
:1054F00000000000091300008913000011120000D1
:10550000E5130000751100006D110000711100001D
:1055100091110000E11100000100020008001000DC
:105520006C6564000408DC11111100FF6D63636F8A
:105530006E6669676F6E00006F666600616C6C0076
:105540006572720064626700696E666F00FFFFFF3C
:105550006C6F67006C6F673A205B6F6E2F6F6666CB
:105560005D206F70656E20636C6F7365205B616C8E
:105570006C2F6572722F7761722F6462672F696E6C
:10558000666F5D206C6F67206C6576656C00FFFF51
:1055900068656C7020636D64202C6572726F722078
:1055A000636D642068617665206E6F2068656C703D
:1055B000446F63756D656E742021000068656C70C2
:1055C00020636D64202C6572726F7220636D64209D
:1055D000756E6B6E6F772100626F6F742069732038
:1055E00072756E6E696E67EFBC8C6E6F7700FFFF31
:1055F0004D656D5F25752040307825583A73697A7E
:10560000653D20257520627974653B757365643D41
:1056100020257520627974653B667265653D20259D
:105620007520627974653B004572726F723A20632F
:105630006D64206669727374206368617220696C9E
:105640006C6567616C2021004572726F723A20634D
:105650006D64206E616D6520746F6F206C6F6E6776
:10566000210000004572726F723A20636D64206100
:1056700072672020746F6F206C6F6E672100FFFFD0
:105680006572726F723A20636D642020554E7265A8
:1056900067697374657221007368656C6C00000043
:1056A00068656C7020636D643A2073686F7720635F
:1056B0006D642068656C7020646F63756D656E74D1
:1056C0002100000068656C70000000007265626F68
:1056D0006F743A205265626F6F742074686520623F
:1056E0006F61726420627920736F6674776172658E
:1056F000210000007265626F6F7400006D656D3A85
:10570000206F73206D656D6F727921006D656D007E
:105710007274696D657200FF0D0A7265637620759B
:1057200070706572206D73673A2030782530347858
:105730000D0A000072656376207570706572206DC9
:10574000736720657272206372630D0A00FFFFFFAA
:10575000757070657200FFFF746F6F6C00FFFFFF64
:1057600069617000232D302B2000686C4C00656649
:1057700067454647003031323334353637383941A2
:1057800042434445460030313233343536373839B8
:1057900061626364656600FF0000000000000000B5
:1057A00000000000000000000000000000000000F9
:1057B00000000000000000000000000000000000E9
:1057C00000000000000000000000000000000000D9
:1057D00000000000000000000000000000000000C9
:1057E00000000000000000000000000000000000B9
:0C57F000000000000000000000000000AD
:1057FC0010B4214BB3F88440A4B24FF42A42A3F85E
:10580C008420B3F884309BB200206BB14FF49642E5
:10581C0000201949013AB1F884309BB223B1002A17
:10582C0008BF4FF4FA70F5E7012C04D0802C1AD085
:10583C005DF8044B7047104B4DF60112A3F8442051
:10584C000E4B0122A3F804211A46B2F804319BB284
:10585C00002BFAD10123094AA2F80031A2F5A83293
:10586C0093601360E4E7064B01225A601A465368B2
:10587C00002BFCD1DCE700BF00E07F4000C0014002
:10588C000070004082B04FF496430193104BB3224A
:10589C001A7003F5F033D3F8803013F4004F0AD1AB
:1058AC000C4A019B93B1019B013B0193D2F88030D0
:1058BC0013F4004FF5D0074B1B7CC3F30013002BE4
:1058CC0040F2F51008BF002002B070471420FBE72F
:1058DC0000007E4000E07F4082B04FF4964301937D
:1058EC00104B50221A7003F5F033D3F8803013F4B8
:1058FC00004F0AD10C4A019B93B1019B013B0193D0
:10590C00D2F8803013F4004FF5D0074B1B7CC3F357
:10591C000013002B40F2F51008BF002002B07047B6
:10592C001420FBE700007E4000E07F4070B5044689
:10593C0043681A78F2B193F91130590903F01F0337
:10594C00012202FA03F31A48203140F82130BFF348
:10595C004F8FBFF36F8F636893F91330590903F0BE
:10596C001F039A4001F1200340F82320BFF34F8F0F
:10597C00BFF36F8F0F4BB3F884309BB28BB1FFF733
:10598C0081FF0546FFF7A8FF064675B9FFF730FF04
:10599C00002E14BF35460546002384F834302846C3
:1059AC0070BD204600F074FAE9E7FFF721FFF3E73A
:1059BC0000E100E000E07F4010B4846A124B1C63ED
:1059CC00124C20232370D0232370836A0B448362F0
:1059DC00036B013B036310468AB10B4BD3F8803049
:1059EC0013F4004F0ED1084A0138D2F8803013F46A
:1059FC00004F03D10028F7D1142000E000205DF8FF
:105A0C00044B70470020FAE700E07F4000007E4026
:105A1C00F0B482B0C46A254B1C63A3F5F033E824C0
:105A2C001C70C1F347041C70012922D94E080025B3
:105A3C001F461E4C03690193836A1B883B80D4F874
:105A4C00803013F4806F08D0019B591E0191002BFC
:105A5C00F5D1142002B0F0BC7047836A0233836224
:105A6C00C36A0233C362036B013B03630135AE426D
:105A7C00E0D80F4BD02119709AB103F5F033D3F85D
:105A8C00803013F4004F0ED10849013AD1F8803020
:105A9C0013F4004F03D1002AF7D11420DAE70020C9
:105AAC00D8E71046D6E70020D4E700BF00E07F40DF
:105ABC0000007E4010B50446114B1B7C13F0100FF8
:105ACC0009D100200E4BD3F880300B4218BF104682
